:100000000C942F020C9467020C9467020C94670204
:100010000C9467020C9467020C9467020C946702BC
:100020000C9467020C9467020C94AF280C946B2814
:100030000C94BA290C9467020C9467020C94670222
:100040000C9467020C9467020C9467020C9467028C
:100050000C9467020C9496290C9467020C94670226
:100060000C9467020C9467020C9467020C9467026C
:100070000C9467020C9467020C9467020C9467025C
:100080000C9467020C9467020C9467020C9467024C
:100090000C9467020C9467020C9467020C9467023C
:1000A0000C9467020C9467020C9467020501090224
:1000B000A10185020901A1000509190129081500FE
:1000C0002501950875018102050109300931158165
:1000D000257F95027508810609381581257F9501D0
:1000E00075088106050C0A38021581257F95017572
:1000F000088106C0C005010980A101850319012AF4
:10010000B700150126B700950175108100C0050CD8
:100110000901A101850419012AA002150126A002E6
:10012000950175108100C00660FF0961A101096297
:10013000150026FF00952075088102096315002629
:10014000FF00952075089102C005010906A101056F
:100150000719E029E7150025019508750181029529
:1001600001750881010507190029FF150026FF0008
:100170009506750881000508190129051500250156
:10018000950575019102950175039101C062696E33
:10019000657061642F626E72312F76313A62696EDA
:1001A00065706164204020393439323238205B3246
:1001B0003032352D30332D31342D30323A31373A1B
:1001C00033385D00FD377A585A000004E6D6B4464D
:1001D0000200210116000000742FE5A3E000CC000E
:1001E0008B5D003D888986D3DC0AE842C32492589F
:1001F00042588FD8E75CA0D2616E26E888019A67E2
:100200006C7887BC8D3709E9DC33BDA53C7ADFE922
:10021000BC4FA6EA8E84AF490EA22C427D41C7791D
:10022000B56E1B5BBF23DC2A75233C5CEDFA81199C
:10023000802703983D6D3AF395F39A11B4A7C4C192
:100240003D5FAC56764849D60B40888D27FC01D8D7
:1002500003CD21833E593E6E1767B5EFF9EAE47589
:10026000B4AD5DD301828548C1413A743C000000C1
:10027000FAAF542BFD6133970001A701CD010000B7
:10028000D780C97FB1C467FB020000000004595A3F
:10029000A8410100A900AA00D900DA000902BF00A4
:1002A000050100A0FA090400000103010100092171
:1002B000110100012244000705810308000109041F
:1002C00001000203000000092111010001222200A7
:1002D000070582032000010705030320000109042C
:1002E00002000103000000092111010001227B002E
:1002F00007058403200001080B0302010100000927
:1003000004030000010100000924010001090001AB
:100310000409040400020103000007240100014154
:10032000000624020101000624020202000924033F
:100330000103010201000924030204010101000973
:10034000050602400005000005250101010905859B
:100350000240000500000525010103120100020012
:10036000000008494231420001010203011C0376EA
:1003700000690061006C003A0066003600340063DA
:1003800000320062003300630000000A0342004EA6
:10039000005200310000001003420069006E006549
:1003A0000070006100640000000403090400000004
:1003B000000000000000000000000000000000003D
:1003C000000000000000000000000000000000002D
:1003D000007E0F00D4FFFFFFC70000007800000080
:1003E00000000000002A2B28000000000000000090
:1003F000000000000000000029000000002C1E3456
:1004000020212224342627252E362D3738271E1F5B
:10041000202122232425263333362E37381F040586
:10042000060708090A0B0C0D0E0F101112131415F4
:10043000161718191A1B1C1D2F3130232D350405D2
:10044000060708090A0B0C0D0E0F101112131415D4
:10045000161718191A1B1C1D2F3130354C0011248A
:100460001FBECFEFDAE0DEBFCDBF04B603FE18C07B
:100470008091B6059091B705A091B805B091B905E6
:100480008730904BA740B04B59F41092B6051092AC
:10049000B7051092B8051092B905E0E0F8E30995A8
:1004A00011E0A0E0B1E0E4E6F9E602C005900D92AB
:1004B000AC38B107D9F725E0ACE8B1E001C01D9236
:1004C000A63BB207E1F70E94E1290C945C340C943E
:1004D00000000F931F939B01305E8901000F012FD5
:1004E000001F110B11952F77482F406EE091C90422
:1004F000F091CA0463E070E089EC94E009951F91E3
:100500000F9108950F93262F042F0F77482F406BDC
:10051000E091C904F091CA0463E070E089EC94E0D2
:1005200009950F910895482F2091C80490917F0458
:1005300059E0291302C080E0089530E0529FF00195
:10054000539FF00D1124E058FB4F8181681306C0C2
:100550008081481303C085818111EECF2F5F3F4F0B
:100560002770E7CFA3E0B0E0E8EBF2E00C94A8330B
:100570007C01162FD42EC22E8091EE04843071F5AA
:10058000E091E304F091E4043097C1F1C7010197D1
:1005900063E070E00E946933CB01880F991F860FDA
:1005A000971F19834A83CB824E2D481B9E012F5FD4
:1005B0003F4FBC0189EC94E00995E091E704F0918C
:1005C000E804309739F00C2D2D2D412FB70189EC1F
:1005D00094E009952396E8E00C94C43382E0E81691
:1005E000F10409F45AC083E0E816F104A9F081E0AF
:1005F000E816F10409F484C0F12CE12CE091E50443
:10060000F091E6043097C9F20C2D2D2D412FB70142
:1006100089EC94E00995D1CF862F807F803A11F143
:1006200088F48038D1F0E091CD04F091CE04803987
:1006300029F7309719F3123F49F12C2D4D2D612FD9
:100640006F7027C0803E99F0803FB1F0E091CB04FD
:10065000F091CC04803B91F6ECCFE091CF04F09187
:10066000D004E7CFE091D104F091D204E2CFE09141
:10067000D304F091D404DDCF623F09F0BFCFE09105
:10068000D504F091D604309709F4B8CF2C2D4D2D18
:1006900062EF89EC94E0099590CF862F807F803DB2
:1006A000B9F0803FD1F0E091D704F091D804803CBC
:1006B00009F0A4CF309709F4A1CF812F8D7F4D2D64
:1006C000612F6F70813FC9F089EC94E0099575CF77
:1006D000E091D904F091DA04EDCFE091DB04F091E0
:1006E000DC04633F39F0613F09F088CFE091DD041D
:1006F000F091DE04309709F481CF4D2D612FE4CFC6
:10070000E091DF04F091E004683F38F4663F09F0BF
:1007100075CFE091E104F091E204309709F46ECFD7
:10072000612F89EC94E0099548CFE8EDF0E08081F5
:100730008E7F80831092E2001092DA001092E10026
:10074000A0EEB0E08C9181608C9380818F77808364
:1007500019BCA7EDB0E08C918E7F8C9380818F7E49
:10076000808310926A0408952091E4003091E5009E
:1007700095E6A9012091EC00822F817020FF06C030
:100780008091E80080FF06C080E008952091E80095
:1007900022FD1AC080917504882389F0853089F084
:1007A0008091EB0085FD0FC02091E4003091E500C1
:1007B00042175307F9F29150E1F684E0089582E080
:1007C000089583E0089581E00895EF92FF920F93DA
:1007D0001F93CF937C018B010E94B403C82F81111A
:1007E00017C08091E80085FD0BC08091E8008E77EE
:1007F0008093E8000E94B403882399F3C82F08C0AF
:10080000F70181917F018093F1000150110949F7AF
:100810008C2FCF911F910F91FF90EF900895EF9241
:10082000FF920F931F93CF937C018B010E94B4031F
:10083000C82F811117C08091E80085FD0BC0809101
:10084000E8008B778093E8000E94B403882399F333
:10085000C82F08C08091F100F70181937F010150FA
:10086000110949F78C2FCF911F910F91FF90EF90B5
:1008700008958091770487FF13C08091E80082FF7C
:1008800006C08091E8008B778093E80004C08091D7
:1008900075048111F2CF0895809175048823D9F3EE
:1008A0008091E80080FFF8CF8091E8008E77ECCF50
:1008B000982F9093E900242F762F50E0891731F07C
:1008C0007091EC002091ED005091F00021FD07C0E7
:1008D0009F5F973071F78093E90081E00895309130
:1008E000EB003E7F3093EB003091ED003D7F309385
:1008F000ED003091EB0031603093EB007093EC0031
:100900002093ED005093F0002091EE0027FDE0CF02
:1009100080E00895B0E0A0E0E0E9F4E00C94A833B2
:10092000C8EDD0E088818F7E8883E7EDF0E080819C
:100930008160808384E082BF81E080936A04888143
:100940008E7F888302EE10E0F80110821092DA00A8
:1009500081EEC82ED12CF601108288818F77888392
:1009600088818068888388818F7D888319BC1092F4
:10097000750410927604109274041092730490EE31
:10098000E92EF12CF70180818B7F80838881816043
:10099000888342E060E080E00E945804F601808194
:1009A0008E7F8083F8018081816080838081886070
:1009B0008083F70180818E7F808388818061888336
:1009C000CDB7DEB7E8E00C94C433FC0180917D0420
:1009D00090917E0486179707A0F06115710529F4A0
:1009E0009091E8009E779093E80090E06115710582
:1009F00051F4911108C08091E80082FF34C080E07A
:100A00000895BC01F2CF809175048823C1F185302F
:100A1000C1F18091E80083FD30C08091E80082FD43
:100A2000EACF8091E80080FFE1CF8091F300209130
:100A3000F200382F6115710519F02830310558F092
:100A400091E02830310509F090E02091E8002E7700
:100A50002093E800CBCF81918093F1006150710920
:100A60002F5F3F4FE7CF80917504882341F0853099
:100A700041F08091E80083FFBECF81E0089582E0DD
:100A8000089583E0089508959C014FB7F8948091EC
:100A9000660490916704A0916804B09169044FBF07
:100AA000821B930B08952FB7F894609166047091A0
:100AB000670480916804909169042FBF08952FB74F
:100AC000F8948091660490916704A0916804B091B5
:100AD00069042FBF0895809119010895E0E9F1E0BC
:100AE0009191891303C0DF0111971C9291E0E639BF
:100AF000F907B1F708959C01FC0132969FEF80E061
:100B00004191461751F09F3F19F4411101C0982FB0
:100B10008F5F8630A9F79F3F09F40895290F311D93
:100B200097FD3A95F90162830895A3E0B0E0EBE9FF
:100B3000F5E00C94AE3320916304309164042817DF
:100B40003907A1F09093640480936304E0916104F9
:100B5000F0916204309751F024E029839B838A83CB
:100B60000084F185E02DCE01019609952396E2E0FF
:100B70000C94CA33A3E0B0E0E0ECF5E00C94AE33A3
:100B800020915F043091600428173907A1F09093F9
:100B9000600480935F04E0916104F09162043097F7
:100BA00051F023E029839B838A830084F185E02D23
:100BB000CE01019609952396E2E00C94CA33E091A8
:100BC0006104F0916204309729F00190F081E02DEA
:100BD0000995089580E008954115510511F0FA0135
:100BE000099508950E945F059C019091540480919D
:100BF0005504982B21F03093510420935004909188
:100C0000560480915704982B21F030934F04209381
:100C10004E04E0916104F0916204309749F082E063
:100C2000809352040680F781E02D82E594E00995D7
:100C3000089580914D0480FD16C081FD16C082FD8F
:100C400016C080914C048823A1F0883280F428E0FB
:100C5000829FC001112468E270E00E947D33862FDC
:100C6000672B39F0089582E0089584E0089588E0C4
:100C7000089581E0089580914D0480FD14C081FDA8
:100C800014C082FD16C080914B04882381F08E3100
:100C900080F420E5829FC00111246EE170E00E9483
:100CA0007D33862F089584E1089588E2089588E0D1
:100CB000089580E50895282F35EB2303C001112402
:100CC00097FF04C080589109892F089580589F4F3D
:100CD000FBCFCF93DF93EC0140914004509141044E
:100CE00060914204709143042FB7F8948091660498
:100CF00090916704A0916804B09169042FBF841B90
:100D0000950BA60BB70B843F9140A105B10518F5D3
:100D10008091400490914104A0914204B091430419
:100D200080933C0490933D04A0933E04B0933F0411
:100D300084EF91E0A0E0B0E0809338049093390410
:100D4000A0933A04B0933B04D0934804C093470463
:100D5000DF91CF9108950E94530560933C047093F6
:100D60003D0480933E0490933F0482E390E0A0E032
:100D7000B0E0E2CFFC018481862351F49281992373
:100D8000B9F06923808583FF05C081E061110FC040
:100D900080E00895892F8F7092959F70982B862FF1
:100DA0008F7062956F70682B81E09613F1CF089574
:100DB00081E0FDCFDC016091320480913304962FF5
:100DC000891301C00895292F30E0F901EE0FFF1FAC
:100DD000E65DFB4F408151814A175B07A1F487E034
:100DE0008A9FA0018B9F500D112447575C4F81E0D3
:100DF000FA0184839613E6CF2F5F3F4F237033278A
:100E00002093320408952F5F3F4F922F9370D8CFD5
:100E10001092870310928603E9E8F3E0858181113F
:100E200002C014821682379683E0E13CF807B1F7DE
:100E3000089526E9611127E989B190E02F7002C079
:100E4000959587952A95E2F78170089526E96111B5
:100E500027E93AB12F7081E090E001C0880F2A9510
:100E6000EAF7982F909593239AB99BB1892B8BB968
:100E7000089590918003E92FF0E0409181039F0154
:100E80002F5F3F4F2370332742171306A9F0EE5709
:100E9000FC4F282F2F7780818078822B60FB87F989
:100EA00080839F5F93709093800380917E038F5F18
:100EB00080937E0381E0089580E00895E5E3F2E009
:100EC00090E080E062E777E249E957E224EF36E21A
:100ED0007783668351874087338722879787868702
:100EE000019670968830910599F7089581152CE741
:100EF000920741F42091360430913704232B11F4EA
:100F000090E080E0089508950895982F907F903B99
:100F1000E9F040F49039D1F0903AC1F09038B1F056
:100F200080E00895903D19F020F4903CC9F782E0EC
:100F30000895903E59F0903F99F7815F8F3080F788
:100F4000E82FF0E0E359FE4F8081089583E0089593
:100F5000A7E0B0E0EEEAF7E00C94AB338C01085167
:100F60001F4F80917504843009F06CC0809111018D
:100F70008F708093E9008091E80082FF63C08091C8
:100F8000E80085FF5FC050E040E064E070E0CE0123
:100F900001960E940F048091E80085FD05C08091B4
:100FA000E8008B778093E800FA808F2D0E948507F8
:100FB000282FFD828B818E838C818F8321110AC023
:100FC0008981843039F1873029F1863029F121E097
:100FD000853039F630E0E5E0F0E0EC0FFD1FE30F7F
:100FE000F11DF0804FB7F894D8011196EC9111974C
:100FF000F0E0CF01019612966C9170E00E947D3373
:10100000D8015C915817190649F44FBF3F5F32175A
:1010100010F3A7CF23E0DECF22E0DCCF13968D9133
:101020009C911497E80FF91FF08211968C911197FB
:1010300090E0019612966C9170E00E947D33F80169
:101040008183E3CF2796E5E00C94C733A4E0B0E0BA
:10105000ECE2F8E00C94A9337B01142FD22E4A83E2
:101060002B830C83842F0E94850781113AC082E074
:10107000E816F10489F183E0E816F10441F081E01B
:10108000E816F10429F5173F29F485E004C087E04C
:10109000073F09F084E08983809175048430C1F4AE
:1010A00080910C018F708093E90050E040E064E093
:1010B00070E0CE0101960E94E503811109C0809184
:1010C000E80085FD05C08091E8008E778093E800F8
:1010D0002496E7E00C94C53387EFD812DBCF86E087
:1010E000DACF12951F701983D7CF80E00895F89456
:1010F0006E98769A789408959091070292FF10C0A6
:1011000041E0282F2471243009F040E031E0282FFD
:101110002871283009F030E0431711F02CE08227C5
:1011200093FF10C041E0282F2471243109F040E0E2
:1011300031E0282F2871283109F030E0431711F0F1
:101140002CE082273091080230FF10C051E0282F98
:101150002171213009F050E041E0282F287128301A
:1011600009F040E0541711F029E0822731FF10C048
:1011700041E0282F2171213109F040E031E0282F92
:101180002871283109F030E0431711F029E0822757
:1011900094FD877E089582389105B9F1B0F48133CA
:1011A000910509F47DC048F48932910509F46DC0B8
:1011B0008A32910509F47BC008958533910509F4BD
:1011C0005FC08933910509F10895833E9105D9F1F6
:1011D00038F4803E910529F1823E910579F1089518
:1011E000863E9105D9F1873E910509F43EC0843EC3
:1011F000910541F52091080221FF24C0809107024A
:1012000084FD19C087EE90E00895209107022370B5
:1012100009F05AC02091080223FF14C089E290E02F
:1012200008952091070220FD38C03091080230FF58
:1012300009C024FF43C090E080E008952091070298
:1012400022FDF7CF08952091070222FD3AC0309188
:10125000080230FD39C024FFF5CFEDCF2091070201
:1012600023FFF0CF24FDE7CFCDCF2091070223FD50
:101270002EC03091080231FFEECF84EE90E0089549
:101280002091070225FFDECFC9CF2091070225FD5F
:1012900021C02091080223FFD5CF89E390E0D2CF6F
:1012A0002091070226FFCECF8AE290E00895209198
:1012B000070226FFC7CF81E390E0089583EE90E018
:1012C000089582EE90E0089580EE90E0089586EE15
:1012D00090E0089585E390E008951F93CF93DF9306
:1012E0000E94CB08EC01C11580E5D807F0F5C115C7
:1012F00080E4D80708F09CC0C03ED10520F5CD3C65
:10130000D10508F082C0C83AD10578F4C53AD105B4
:1013100008F073C0C130D10519F1209709F1C4302C
:10132000D105F0F4D0E0C0E01BC0C33CD105D0F73C
:10133000C85AD0E0CC0FDD1FC95DDE4F0990D881BF
:10134000C02DD4640DC0C11580E2D80708F0D1C00B
:10135000C11581E0D80708F05AC0C83ED10510F782
:10136000CE01DF91CF911F910895C03682E5D80755
:1013700018F5C03482E5D80708F06BC0C03282E5AA
:10138000D80708F05FC0C11582E5D80708F497C0F8
:101390002C2F2695269580E2289F900111248C2FD2
:1013A0008370C1E0D0E002C0CC0FDD1F8A95E2F768
:1013B000C22BD32BDD68D4CFC03A82E5D80760F4C6
:1013C000C03882E5D80708F459C0CF71D0E0DC2FCF
:1013D000CC27C46FD06AC4CFC03C82E5D80708F4DC
:1013E00062C0C03E82E5D80708F09CCFDC2FCC2736
:1013F000CC27DF71C06FD06AB3CFC55AD0E0CC5DC7
:10140000DE4FC881D0E0D064ABCFD065A9CF8D2F9F
:101410000E947C08182FCE0199270E94CB08C12F6B
:10142000D0E0DC2FCC27CC27DF71C82BD92B98CF6D
:10143000CE0199270E94CB08CC27DF70C82BD92B6F
:10144000D06A8ECFCF71D0E0DC2FCC27C16FD06AAD
:1014500087CF2C2F26952695277080E2289F900114
:1014600011248C2F8370C1E0D0E002C0CC0FDD1FAF
:101470008A95E2F7C22BD32BDC6872CF2C2F2695EE
:101480002695277080E2289F900111248C2F83706D
:10149000C1E0D0E002C0CC0FDD1F8A95E2F7C22B7D
:1014A000D32BDA685DCF8C2F8F710E947C08C82FF8
:1014B000D0E0DC2FCC27CC27DF71D06251CF8C2F2E
:1014C0008F710E947C0855E0D695C7955A95E1F733
:1014D000CF70D0E0DC2FCC27282F30E084FF05C070
:1014E00044E0220F331F4A95E1F7C22BD32BD0697A
:1014F00037CF8D2F8F710E947C08182FCE0199272E
:101500000E94CB08C12FD0E0DC2FCC27CC27DF7185
:10151000C82BD92BD2CF8091B601882331F01092FD
:10152000B6011092B5011092B40108959091B601E0
:10153000292F282361F0809589238093B601882381
:1015400039F00E945F059093B5018093B40108952E
:1015500090E080E0F8CF809590915B049823909381
:101560005B040895809590915C04982390935C04AB
:1015700008951092AB011092AA011092A90108954A
:101580009091A801292F282321F080958923809309
:10159000A80108958091C80490917F04981301C018
:1015A00008958F5F8770FACF903F09F446C091117C
:1015B00019C0811115C080919D01482F417050E0E4
:1015C000440F551F90919C019170942B80919E0126
:1015D000282F217030E0220F331F220F331F922B50
:1015E000892F08959C5F923040F5682F677090E0D6
:1015F00023E0969587952A95E1F7FC01EE0FFF1FF2
:10160000E80FF91FE756FE4F50E040E090E02191CF
:1016100030E0062E02C0369527950A94E2F7217035
:101620003327042E01C0220F0A94EAF7922B4F5F52
:101630005F4F4330510559F7D3CF90E0D1CF262FDC
:10164000277091E001C0990F2A95EAF723E076957B
:1016500067952A95E1F7FB01EE0FFF1FE60FF71FD5
:10166000E40FF51F50E040E0682F70E08191DF014A
:1016700011979B01042E02C0369527950A94E2F734
:10168000217021952827292328272C934F5F5F4F0E
:101690004330510559F70895282F862F903F41F088
:1016A000911107C04CE951E070E060E0222341F065
:1016B00008959C5F9230E0F7622F70E049E951E0B5
:1016C0000E941F0BF5CF80930602089590910602A9
:1016D00021E030E0F90101C0EE0F8A95EAF7D90167
:1016E00002C0AA0FBB1F6A95E2F7EA2B01C0220FC6
:1016F0004A95EAF7892F8E23E81305C0292B822FFC
:101700000E94630B089520952923F9CF21E030E052
:1017100001C0220F8A95EAF7209580910602822364
:101720000E94630B08959091AB018095892380936B
:10173000AB01282F277069F4891759F0909108029E
:1017400092FF07C08695869586950E94860B0E941B
:10175000B90A089521E030E001C0220F8A95EAF726
:1017600080910602822B0E94630B089590910802DB
:1017700092FF10C098E0899F90011124622B609322
:10178000AB010E94AA0B0E945F059093AA0180936F
:10179000A90108950E94AA0B089580930502089557
:1017A000662309F45DC08D3C41F40E943B0681959F
:1017B000809355040E94F20508958E3C19F40E940E
:1017C0003B06F6CF8F3C31F40E943B068195809317
:1017D0005404F0CF803D19F40E943B06F8CF893DB8
:1017E00029F40E94190680935604E4CF8A3D21F41F
:1017F0000E9419068195F7CF8B3D31F40E9419069E
:10180000819580935704D6CF8C3D19F40E94190618
:10181000F8CF9FE2980F983070F4815D990B21E02A
:1018200030E001C0220F8A95EAF780915304822BA1
:1018300080935304BFCF8D3D31F480914D0481607E
:1018400080934D04B7CF8E3D21F480914D0482608A
:10185000F7CF8F3D09F0AECF80914D048460F0CF7B
:10186000409154048D3C59F48091550487FF0DC07C
:101870001092550441110BC010924B0408C08E3CCD
:1018800081F48091550418169CF3442381F08091D3
:10189000560490915704892B09F08CCF10924C0478
:1018A00089CF8F3C49F447FFF0CF109254048091C8
:1018B00055048111ECCFE0CF803D19F41416ACF340
:1018C000E4CF90915604893D29F41916F4F610924C
:1018D0005604DBCF8A3D19F497FFD7CFF8CF90910C
:1018E00057048B3D29F497FFD0CF10925704CDCFEA
:1018F0008C3D19F41916CCF3C8CF9FE2980F98309D
:1019000090F4815D990B21E030E0B90102C0660FCF
:10191000771F8A95E2F7CB01809590915304892334
:1019200080935304B2CF8D3D31F480914D048E7F6E
:1019300080934D04AACF8E3D21F480914D048D7F7C
:10194000F7CF8F3D09F0A1CF80914D048B7FF0CF71
:101950009C013A9521153F4150F5FC01EE27F170AD
:10196000BC0166277270AC01442754709C01222789
:10197000387094FF0EC080E1EF2B09F480E0672BF4
:1019800009F08062452B09F08064232B89F0806880
:10199000089581E0EF2B09F480E0672B09F0826065
:1019A000452B09F08460232B19F08860089580E0AE
:1019B00008959B01BA01909175049430E1F48093ED
:1019C000E9009FEF8091E800915085FD06C085ED0C
:1019D0008A95F1F700009111F5CF8091E80085FF1D
:1019E0000AC050E040E0C9010E94E5038091E80090
:1019F0008E778093E800089543E050E0BC0184E0D6
:101A00000E94D90C089546E050E0BC0184E00E9499
:101A1000D90C0895CF93DF93EC0148E050E0BC016E
:101A200081E00E94D90C88E0FE01ABE6B4E00190B1
:101A30000D928A95E1F7DF91CF91089581E080932F
:101A4000E00080E28093D8001092C9008FE19EE40C
:101A50000197F1F700C0000087E090EBDC01809374
:101A6000B6059093B705A093B805B093B90588E182
:101A70009CE00FB6F894A895809360000FBE9093F9
:101A80006000FFCFCF93C82F6FEF81116CE284E22B
:101A900090E00E9420346FEFC11164E485E290E091
:101AA0000E9420346FEFC11166E486E290E00E944C
:101AB0002034CF910895CF93DF93C4E2D1E060E06A
:101AC000CE010E9420342196C11584E0D807B9F7D1
:101AD000DF91CF9108950F931F93CF93DF93142F2E
:101AE000022F8230E8F461111BC094E0899FE0016D
:101AF0001124AC9682E090E0442311F090E080E065
:101B0000632F8C0F9D1F0E94203483E090E01123EF
:101B100011F081E090E0602F8C0F9D1F0E94203417
:101B2000DF91CF911F910F9108951F93CF93DF9372
:101B3000122F823088F4962F942B71F4C82FD0E0A6
:101B4000CC0FDD1F632FCE0188960E942034612FB9
:101B5000CE0189960E942034DF91CF911F91089584
:101B600084E290E00E9402348C3289F485E290E0B5
:101B70000E940234843459F486E290E00E940234D8
:101B800091E0863409F090E0892F8170089580E01B
:101B9000FCCFFF920F931F93CF93DF93F42E8230ED
:101BA00040F5611126C024E0829F80011124045D6C
:101BB0001F4F82E090E0442311F090E080E0800F1E
:101BC000911F0E940234C82FD0E0DC2FCC2783E085
:101BD00090E0FF2011F081E090E0800F911F0E94C3
:101BE00002349E01282BC901CDB7DEB7E5E00C9485
:101BF000C73390E080E0F8CF0F931F93CF93DF932C
:101C00008230D0F4642BC1F4082F10E0000F111FB4
:101C1000C80188960E940234C82FD0E0DC2FCC2760
:101C2000C80189960E9402349E01282BC901DF91C8
:101C3000CF911F910F91089590E080E0F8CF20910F
:101C40001F0230912002232BD1F4703F39F4603F02
:101C5000B1F480912102909122020895711108C07F
:101C600061110DC0823058F440E00E94FC0D0895CF
:101C70007D3F41F4611103C041E0823050F090E0BB
:101C800080E008957C3FD9F76111F9CF8230B8F731
:101C900040E00E94C90D0895CF92DF92FF920F930A
:101CA0001F93CF93DF936C01009106028091050290
:101CB000082BC1E0D0E010E0FC2EC8010C2E02C0C1
:101CC000959587950A94E2F780FD0FC0CD2B51F4CE
:101CD000F12C8F2DDF91CF911F910F91FF90DF900D
:101CE000CF900895D0E0C0E0E7CFB6018C2F0E94DE
:101CF0001F0E0E946D09019749F3EBCFCF93DF933D
:101D0000EC010E944C0EBE010E941F0E0E946D0944
:101D1000DF91CF910895FC0184818823F9F08781B8
:101D20009085009791F00E946D0992959F70963072
:101D3000B9F080F4925F9F70923080F4803F19F088
:101D400058F4883E58F481E00895808191810E9482
:101D50007E0EEBCF9A5FEFCF843FA9F380E008952A
:101D6000883E88F3813FD1F7EECFA6E0B0E0EBEB01
:101D7000FEE00C94AD339C01FC01878190850097B7
:101D8000E1F486E0DE01119601900D928A95E1F76B
:101D9000F901258189819A81222399F0662389F0AE
:101DA0000E944C0E182F682F89819A810E944C0B3B
:101DB00069817A81812F0E941F0E2696E3E00C94A0
:101DC000C9330E94D40A182FF3CFAEE1B0E0EBEE96
:101DD000FEE00C94A833E0903604F090370481E0E4
:101DE00090E09093370480933604E0E9F2E0259187
:101DF000349140E060E080E00E94950DE4E9F2E07B
:101E00002591349141E060E080E00E946B0DE6E9AD
:101E1000F2E02591349140E060E080E00E946B0D9B
:101E2000E2E9F2E02591349140E060E081E00E9437
:101E3000950DE8E9F2E02591349141E060E081E020
:101E40000E946B0DEAE9F2E02591349140E060E0F8
:101E500081E00E946B0D1A8219821C821B821E82F5
:101E60001D8218861F828FEA90E09A87898704E393
:101E700010E04AE050E0B801CE0101960E944434DF
:101E8000065F1F4F04381105A1F76E018BE0C80EE5
:101E9000D11C8AE0F60111928A95E9F74AE050E0F8
:101EA000B801C6010E944434065F1F4F043D11056E
:101EB000A9F76E01F5E1CF0ED11C8AE0F60111926F
:101EC0008A95E9F78FEF9FEF9A8F898F87E08E8F42
:101ED0004AE050E0B801C6010E944434065F1F4F3B
:101EE0000432F1E01F07A1F7F0923704E0923604C4
:101EF0006E96E8E00C94C43380E00E94420D60E0EE
:101F000087E290E00E9420340E94E50E0E945B0D63
:101F100081E00E94420D08959B01883070F49AE0A0
:101F2000899FB00111246C5C7F4F4AE050E0C901E9
:101F30000E94F23390E080E008958FEF9FEF0895C4
:101F4000AAE0B0E0E6EAFFE00C94AE339C0137551E
:101F50002F3F310509F068F4BE016F5F7F4F0E948B
:101F60008C0F892B31F489859A852A96E2E00C94AE
:101F7000CA338FEA90E0F9CFAAE0B0E0E2ECFFE0EC
:101F80000C94A63306E013E084EDE82EF12C97E0E4
:101F9000B92E25E0C22E23E0D22EAA24A3944AE033
:101FA00050E0B701CE0101960E94F233F801389655
:101FB000DF018B2D1D928A95E9F789819A81D801DD
:101FC00011969C938E938F8112968C9312978D818C
:101FD00013968C931397888514968C931497898500
:101FE00015968C9315978B819C8117969C938E9355
:101FF000169718961C9218978A8587FF3CC01E96E4
:102000001C921E921D9780FF03C0D8011896AC92B7
:1020100081FF04C0F80190859260908782FF07C01D
:10202000D80118969C911897946018969C9383FFFA
:1020300004C0F80190859860908784FF07C0D8019C
:1020400018969C911897906118969C9385FF04C0F0
:10205000F801808580628087FAE0EF0EF11C015F55
:102060001F4F84E2E81681E0F80609F098CF2A961F
:10207000EAE00C94C233F801D686C586C4CFAAE044
:10208000B0E0E5E4F0E10C94A833E5EBF2E080E5A4
:10209000DF011D928A95E9F7E9E8F3E088E3DF01C3
:1020A0001D928A95E9F785EBC82E82E0D82E7F0134
:1020B00004E810E0F701D182C0824AE050E0B801A4
:1020C000CE0101960E94F23388E0FE013196D601DE
:1020D00001900D928A95E1F789859A85D70113962B
:1020E0009C938E931297BAE0CB0ED11CE7E0EE0ED4
:1020F000F11C065F1F4F043D1105E1F62A96E8E04A
:102100000C94C4339091080292FB222720F92817DF
:1021100079F080FB92F99093080260910702709128
:10212000080284E090E00E943E3482E00E94930B1B
:102130000895CF9380915C04C0915B04C82B80917B
:10214000B6018823F9F00E945F052091B401309117
:10215000B501821B930B8838934110F00E948B0AC3
:102160008091B601C82B20E080E991E0FC0131911B
:10217000CF0131112F5FF1E086399F07B9F72111A7
:102180000E948B0A8091440480958C239091450491
:10219000892B80938E0148E050E06CEA71E08EE874
:1021A00091E00E94DE33892BA9F088E0EEE8F1E0AF
:1021B000ACEAB1E001900D928A95E1F7E0916104FB
:1021C000F0916204309731F00280F381E02D8EE8C7
:1021D00091E00995CF910895CF9310925C04C6E0E9
:1021E000E0E9F1E0DF018C2F1D928A95E9F790E09C
:1021F00080E00E94BA0590E080E00E949505109270
:102200005B040E949910E2E5F4E0DF011D92CA959B
:10221000E9F710924B0410924C0410924D040E9466
:10222000F205CF910895AAE2B0E0E9E1F1E10C9462
:10223000AD3387E794E02091F100DC012D93CD01CF
:10224000B4E08F379B07B9F780917804833009F4A5
:1022500072C0B8F4813009F449C0823009F4B7C0C3
:102260008091E80083FF3FC18091770490917804CA
:102270009A3008F038C1E92FF0E0E25AFB4C0C9498
:1022800091338A3009F492C08B3009F471C08930DF
:1022900039F780917704813219F780917B0490910E
:1022A0007C04009711F00297D9F68091E800877FAF
:1022B0008093E8008091E80082FF38C09091F3009D
:1022C0008091F200029731F48091F100813011F099
:1022D000863021F48091F100809319018091E8000B
:1022E0008B778093E8000E943904BACF80917704FD
:1022F000813A09F0B5CF8091E800877F8093E800AC
:1023000080917B0490917C04892B61F468E08BE6DA
:1023100094E070E00E94E5048091E8008B77809360
:10232000E8009ECF60E090E080E0F3CF80917504FC
:102330008111C0CF95CF80917704813A09F090CF79
:1023400080917B0490917C04892B09F089CF809146
:10235000E800877F8093E8008091E80080FFFCCF51
:1023600080911A018093F1008091E8008E77B9CFB7
:1023700080917704813209F073CF80917B04909132
:102380007C04892B09F06CCF8091E800877F8093D3
:10239000E8000E94390481E090917904911101C014
:1023A00080E080931A010E94EC105ACF809177044C
:1023B000813209F055CF8091E800877F8093E80053
:1023C0000E94390480917A048093180149CF80914A
:1023D0007704813A09F044CF8091E800877F8093A9
:1023E000E8008091E80080FFFCCF80911801BACF0F
:1023F000803899F0823809F076C080917B048F7024
:10240000873008F070C08093E9008091EB0085FB75
:10241000882780F91092E90006C08091730490919A
:102420007404911182609091E800977F9093E80086
:102430008093F1001092F1008091E8008E77CDC179
:10244000882309F4BAC1823009F04DC08091790423
:102450008111BEC180917B048F702FEF280F263031
:1024600008F041C08093E9002091EB0020FFB0C14B
:10247000933031F48091EB0080628093EB00A8C12F
:102480009091EB0090619093EB0021E030E001C06F
:10249000220F8A95EAF72093EA001092EA008091D1
:1024A000EB008860EACF81111EC0109179041F777C
:1024B0008091E3008078812B8093E3008091E80095
:1024C000877F8093E8000E9439048091E80080FFB4
:1024D000FCCF8091E30080688093E30082E01111DB
:1024E00083E0809375048091E80083FF0AC08091A7
:1024F000E800877F8093E8008091EB008062809302
:10250000EB00AA96E3E00C94C9338058823058F768
:102510002091790430917A042C3DE3E03E07A1F547
:1025200083E08A838AE289834FB7F894DE011396A9
:1025300020E03EE051E2E32FF0E050935700E491B9
:1025400020FF03C0E295EF703F5FEF708E2F90E0A9
:10255000EA30C0F0C7968D939D932F5F243159F7D1
:102560004FBF8091E800877F8093E8006AE270E0C7
:10257000CE0101960E94E5048091E8008B7780935C
:10258000E800B1CFC096E7CF80917B0490917C04A6
:10259000432F55274330510509F44AC078F541309F
:1025A000510509F485C08FEB90E0ECE9F2E0423090
:1025B000510509F098CF2091E800277F2093E8008B
:1025C00020917D0430917E048217930708F49C01CA
:1025D00040E02115310509F070C041116EC08091B5
:1025E000E80082FDC9CF80917504882329F28530E7
:1025F00019F28091E80083FFF2CFBECF413251053E
:1026000009F447C04232510509F06DCF833091057E
:1026100008F069CFFC01EE0FFF1FE158FE4F01905B
:10262000F081E02D84589E4FDC018C9190E01DC01C
:10263000332721303105E9F02115310579F02230B9
:102640003105F9F02330310509F04DCFEDE6F3E027
:10265000E4918E2F90E0EDE6F3E007C0E9EAF3E0C5
:10266000E4918E2F90E0E9EAF3E0009709F43BCF84
:10267000A2CFE7E9F3E0E4918E2F90E0E7E9F3E001
:10268000F4CFEBE8F3E0E4918E2F90E0EBE8F3E099
:10269000ECCF8330910508F026CF880F991FFC01FD
:1026A000EB57FE4F0190F081E02D89E090E083CF61
:1026B00082E190E0EBE5F3E07ECF80917504882322
:1026C00009F45ACF853009F457CF8091E80083FD93
:1026D00053CF8091E80082FD82CF8091E80080FF97
:1026E00078CF9091F3008091F2002115310519F017
:1026F0008830910550F041E0089709F040E0809162
:10270000E8008E778093E80064CF44914093F10015
:102710003196215031090196E8CF803809F0E3CE97
:102720008091E800877F8093E80080917604809311
:10273000F10082CE8111D7CE10917904123008F0C9
:10274000D2CE8091E800877F8093E80010937604D2
:102750000E943904112311F084E005C08091E30048
:1027600087FDFACF81E08093750442E061EC81E05F
:102770000E94580442E261EC84E00E94580442E264
:1027800061EC82E00E94580442E260EC83E00E9427
:10279000580442E361E885E00E94580442E360E89F
:1027A00086E00E94580480917504843021F081E015
:1027B00080931B0198CE82E0FBCF80917904813019
:1027C00009F091CE81E0933009F080E080937404A9
:1027D0001092E9008091E800877F8093E8000E94D2
:1027E000390481CE0E94EC102FEF84E39CE021504D
:1027F00080409040E1F700C0000088E19CE00FB607
:10280000F894A895809360000FBE90936000FFCF6E
:10281000CF93DF93EC014A855B856E857F850E94AF
:10282000EC058B810E94AB0A8C810E94B20A0E9447
:10283000991086E0FE0111928A95E9F7DF91CF9118
:102840000895CF93DF93EC018D8181FD17C08260E5
:102850008D8380915B049B81892B80935B048091A5
:102860005C049C81892B80935C040E9499104885AC
:1028700059856E857F85CE010E94EC0510925E041D
:1028800010925D048D8180FD03C0CE010E9408146A
:10289000DF91CF910895882321F00E94AB0A0E9416
:1028A00099100895882339F090915B04982B9093A8
:1028B0005B040E9499100895882321F00E94B20AB7
:1028C0000E9499100895882339F090915C04982B08
:1028D00090935C040E9499100895882381F19CEFE5
:1028E000980F913A28F40E946E050E94991008955D
:1028F00090E2980F983050F4877091E001C0990FE2
:102900008A95EAF7892F0E94B20AEFCF9BE5980FCC
:10291000933028F490E080E00E94BA05089598E58D
:10292000980F9B3128F490E080E00E94950508956F
:1029300093E3980F933118F460E00E94D00B089550
:10294000FF920F931F93CF93DF93F82E00914904CA
:1029500010914A040115110509F449C01092480468
:10296000109247041092440410924504D801169620
:10297000CD91DC919E013A9521153F4108F4D07E1E
:10298000D1E0C11101C0D0E0D8011996ED91FC91C0
:102990001A97309731F01B966D917C9180E00995E4
:1029A000D823DD2339F08CEF8C0F813A30F58C2F52
:1029B0000E946E05FF2099F0E0914904F0914A04CD
:1029C000808584FD0CC080914604882341F080817D
:1029D00091819C01215031092F333E47A0F00E9484
:1029E000991010924A041092490410924604C801AA
:1029F000CDB7DEB7E5E00C94C7330E9499108C2F59
:102A00000E946D14D7CF0E946906E9CFCF93C82FDB
:102A10008823A9F08CEF8C0F813A98F4E0E9F1E07B
:102A20008191C81709F441C081E0E639F807C1F780
:102A30006C2F8EE891E00E947B050E949910CF9147
:102A4000089580E28C0F883068F4C77021E030E090
:102A500001C0220FCA95EAF780915C04822B809313
:102A60005C04EBCFEBE5EC0FE33040F4F0E0EC5D21
:102A7000FE4F808190E00E94BA05E1CFE8E5EC0FBF
:102A8000EB3150F4F0E0EE0FFF1FE95DFE4F808167
:102A900091810E949505D3CF83E38C0F833178F623
:102AA00061E08C2F0E94D00BCACF8C2F0E946E0544
:102AB0000E949910BDCF1F93CF93DF93182FEB0186
:102AC0000E940615209739F4812F0E946D14DF9122
:102AD000CF911F9108958FE99FE00197F1F700C012
:102AE00000002197EFCF70E060E0893311F460E5DA
:102AF00070E00E945B150895B0E0A0E0E2E8F5E127
:102B00000C94A933E82FF0E0E352FC4FD490282F27
:102B100026952695269530E0F901E353FC4F049164
:102B2000877010E0082E02C0159507950A94E2F709
:102B300001701127F901E354FC4FE490F12C082EA9
:102B400002C0F594E7940A94E2F791E0E922FF24A9
:102B5000F901E355FC4FC491D0E002C0D595C7956B
:102B60008A95E2F7C170DD270115110519F081EE94
:102B70000E940615E114F10419F086EE0E94061574
:102B800070E060E08D2D0E945B15E114F10419F0F6
:102B900086EE0E946D140115110519F081EE0E9458
:102BA0006D14CD2B19F08CE20E947315CDB7DEB7F2
:102BB000E7E00C94C533EF92FF921F93CF93DF931E
:102BC000EC011AE08881882309F44CC0813009F0B7
:102BD00046C08981813051F47E0182E0E80EF11C0B
:102BE0008A810E947315E7012196ECCF823041F46F
:102BF0007E01E2E0EE0EF11C8A810E940615F3CF01
:102C0000833041F47E01F2E0EF0EF11C8A810E94D4
:102C10006D14E9CF843011F02196E6CF2A812296F7
:102C200090E080E0AE014F5F5F4F2053330B2A30BE
:102C3000310550F00097C1F2EFE9FFE03197F1F76D
:102C400000C000000197F6CF189FB001199F700DCA
:102C50001124C901860F971F2981EA01E3CF0E9441
:102C60007C15C2CFDF91CF911F91FF90EF90089517
:102C7000B0E0A0E0EEE3F6E10C94A8336B01C42FC2
:102C8000D22FFC0185818823A9F040935A040E9429
:102C90005F059093590480935804C77081E001C088
:102CA000880FCA95EAF70E946314CDB7DEB7E8E053
:102CB0000C94C43310915A04141337C080915804F3
:102CC000909159040E9444057C01C6010E94A00F06
:102CD000E816F90650F5C0E2CD0F1D17C1F080E2ED
:102CE000810F883048F4177081E0012E01C0880FF1
:102CF0000A94EAF70E945C14C83048F481E09D2FE2
:102D0000977001C0880F9A95EAF70E946314802F8C
:102D10000E947315C83048F6D77081E001C0880F53
:102D2000DA95EAF70E945C14C0CFC77081E001C059
:102D3000880FCA95EAF7F6CFCF93DF93EC010E9494
:102D4000A80C9E01205E31092830310510F0209733
:102D500041F40E9463148C2F0E940615DF91CF91DD
:102D600008950E945214F7CFA8E0B0E0EAEBF6E134
:102D70000C949E337C01DC0114968C91882309F419
:102D80008AC261E0C7010E94B50E8C01F7018581FE
:102D9000882331F180915D0490915E04009701F1E8
:102DA00008171907E9F0FC01FF27887F9927892B6D
:102DB00009F06AC0B4E0EE0FFF1FBA95E1F7EB5CD3
:102DC000FD4F85818460858311830083CF010E943C
:102DD000211410925B0461E0C7010E94B50E8C01C2
:102DE000D70115968C91882309F4BCC0C801975768
:102DF0008038910510F00C94B120D02EBFE0B017B0
:102E000008F439C28FEF93E00E940234811133C27B
:102E100004E211E0D1103BC0A4E04A2E9E012F5FD6
:102E20003F4F390133243A94D301E42D1D92EA95A2
:102E3000E9F76801FFEFCF1ADF0AC8010E940234E8
:102E40008983882309F417C28130D1F4580122E024
:102E5000A20EB11CC6010E940234582E8A83882318
:102E600009F409C28FEF850D8330F8F4680133E06F
:102E7000C30ED11CC5010E9402348B838823F1F15B
:102E8000C3010E94DB153AC0F0E0E0E09ACF0115E3
:102E9000E4E01E0709F4EFC1C8010E940234811169
:102EA00001C0DA940F5F1F4FB5CF8BEF850D8330D4
:102EB00068F5480143E0840E911CC5010E9402346C
:102EC0008B8364018823D1F0680154E0C50ED11CC6
:102ED000C4010E9402348C83882381F08B819C8101
:102EE00081306FEF960710F0982F882776E05716FD
:102EF00039F0A7E05A1639F00E946727860194CF6F
:102F00000E944227FBCF0E94BC26F8CFB4E06501A7
:102F10005B12F4CFC5010E940234B82E6801E4E0D0
:102F2000CE0ED11CC80103960E940234BB2009F4C6
:102F3000A2C1882309F49FC1482F4150550B349EEC
:102F4000C001359E900D11246B2D6150770B860FBB
:102F5000971F019798F2AFE9BFE01197F1F700C012
:102F60000000F7CF0115E7E51E07B0F10115F8E500
:102F70001F0710F00C94D920680127E5D21A6BE2E4
:102F800072E08C2D0E948C0F892B31F5C601E4E094
:102F9000880F991FEA95E1F7FC01EB5CFD4F228158
:102FA000213009F0DBC020912B0230912C02232B21
:102FB00099F020912D0230912E02232B69F020915F
:102FC0002F02309130024091310250913202242B75
:102FD000352B232B09F4CCC0D70115965C90033810
:102FE000B1E71B0708F0B4C70337E1E71E0708F095
:102FF000C7C10436F1E71F0708F057C7073521E7B7
:10300000120708F078C1053531E7130708F037C714
:103010000B3441E7140708F054C1033051E715079A
:1030200008F0F4C0511065C280910001882309F4B2
:1030300087C6380140EE641A71084090B60180914D
:10304000A801482A80915C04482A58E0651671045A
:1030500008F06DC298012770332781E090E001C02D
:10306000880F2A95EAF7552009F45EC2482AD7014D
:103070008D919C910E94D40A21E030E0190102C098
:10308000220C331C8A95E2F7E0914904F0914A043E
:10309000FE83ED83209196013091970138872F832D
:1030A00056E0C52E53E0D52EB12CA12CB8E0AB16BE
:1030B000B10409F4A6C6411005C0D60112968C9140
:1030C000811171C2F601838190E082219321892BC5
:1030D00009F469C28085982F977009F487E0F8E0B9
:1030E0006F16710408F03DC2552009F436C286956A
:1030F0008170882309F457C2D6018D909C900815E1
:10310000190519F4552009F44EC2ED81FE81EC1524
:10311000FD0509F448C2D6011D96ED91FC9130974A
:1031200021F08081882309F43EC2642DC6010E94EB
:10313000BA06882309F437C20815190509F09DC796
:103140000115110509F49EC751109EC7EF81F8853E
:103150008E169F0609F027C2512C96C7223009F01F
:103160003BCF20912F0230913002232B09F434CF32
:10317000FC01E65CFD4F20812E7F20838B5C9D4F00
:103180000E94211429CF823049F486010E5F1F4F1F
:10319000F80184910E9406150C94D420833049F4E0
:1031A00086010E5F1F4FF80184910E946D140C94EC
:1031B000D420843011F00C94D42086010E5F1F4F70
:1031C000F801249190E080E0F80131962053330B10
:1031D0002A30310560F0009711F40C94D420AFE947
:1031E000BFE01197F1F700C000000197F4CFB89E3F
:1031F000A001B99E500D1124C901840F951F24917F
:103200008F01E2CF0E947C158601CEC790911402F7
:10321000892F881F8827881F409115024770440F07
:10322000482B302F9F77035010E0F801E454FE4FF5
:103230006F012081552099F12F3FE9F4109113027D
:10324000212F2F7015951595159515951350FCE0A8
:103250002F9F100D1124130F212F2F774069E0911C
:10326000C904F091CA04092F63E070E089EC94E08E
:103270000995D6011C938091AB01877061F0D7014D
:1032800015968C91882339F08091080282FF03C043
:1032900082E00E94930B2896E2E10C94BA332F3F10
:1032A00061F02F774068E091C904F091CA04092FBA
:1032B00063E070E089EC94E009958FEFF60180837C
:1032C000DACF5520C1F20B54E02FEF7000911302BA
:1032D000007F0E2B00931302CECF552061F2809118
:1032E0001302982F9F7039F2915F9F70807F892B16
:1032F00080931302C0CF552009F4BDCF0D55E02FA8
:10330000E295E07F009113020F70E3CF552009F49E
:10331000B2CF80911302982F959595959595959597
:103320009B3F0CF4A8CF915F9295907F8F70DFCF79
:10333000552009F4A0CF0656ECE00E9FE02D112495
:10334000EF770091140200780E2B0093140293CFB4
:10335000552009F490CF80911402982F9F7709F49B
:103360008ACF80789F3721F485678093140283CFBA
:103370009D30D8F39D509F77892BF7CF8F67F5CF7E
:10338000552009F478CF03578091140200FB87F988
:10339000809314020695077080911502887F082B90
:1033A0000093150268CF552009F465CF20911402CF
:1033B000322F331F3327331F90911502892F8770C7
:1033C000880F832B815F382F3F7080FB27F9209374
:1033D0001402832F8695987F982B909315024BCFDC
:1033E000552009F448CF90911402991F9927991FED
:1033F000809115028770880F40E06BE7892B0E944F
:10340000820239CF40E051104FE7881F8827881F7C
:103410009770990F60E4F2CF40E051104FE7881F9A
:103420008827881F9770990F61E4E8CF40E051101A
:103430004FE790911402991F9927991F80911502C7
:103440008770880F63E4DACF40E051104FE7909126
:103450001402991F9927991F809115028770880F70
:1034600064E4CCCF552009F406CF90911502292FA2
:103470002695269526952F7081E0820F8F70880FF4
:10348000880F880F9778892B80931502982F98774B
:1034900009F0F1CE220F220F220F8778822B809322
:1034A0001502E9CE552009F4E6CE80911502982F39
:1034B000987709F4E0CE982F969596959695915F1A
:1034C0009F70990F990F990F8778892BE8CF80917A
:1034D0001402982F991F9927991F809115028770C0
:1034E000880F892B60E070EE5110A2C570E060E09B
:1034F0009FC50E35FCE71F0799F00F352CE7120723
:1035000049F00D353CE7130709F08ECD809100019D
:10351000882331F01092000180E00E94A014ABCE0D
:1035200081E080930001A7CE80954822A0CD552050
:1035300009F450C410939701009396010E9453051B
:103540006093400470934104809342049093430439
:1035500010924804109247048ACD82FB882780F994
:10356000C8CD552001F18170C4CD0E946D14B1C544
:103570000497813A910558F46C2D8EE891E00E94F1
:103580007B05552009F4DCC30E94991074CE0E947B
:1035900099108FE39CE90197F1F700C000008C2D92
:1035A0000E940615EECF9FEFA91AB90AAFE0CA0E26
:1035B000D11C7CCDDC012D913C910217130709F041
:1035C000B9C35110B9C31092460480E00E94A01400
:1035D000B7C3902F812FF9C3F901448555856685BE
:1035E0007785C9010E94EC05D60115968C9181FF63
:1035F0001CC4C6010E94081480915D0490915E0471
:103600000817190709F011C410925E0410925D04A6
:103610000CC406E221EE41EE6AE17CE7C7010E949C
:10362000381629CE07E225EE45EE6BE17CE7F6CFB2
:1036300006E221EE40EE68E17CE7F0CF07E225EEFE
:1036400044EE69E17CE7EACF06E221EE42EE6CE16E
:103650007CE7E4CF07E225EE46EE6DE17CE7DECFC6
:1036600008E221E045EE6EE17CE7D8CF80910702C9
:1036700081608093070295C08091080288608093E2
:1036800008028FC0809107028260F3CF8091070209
:103690008460EFCF809107028860EBCF80910802B1
:1036A0008160EDCF809108028260E9CF80910702AE
:1036B0008061DFCF809107028062DBCF80910702BB
:1036C0008064D7CF0E94EC10809107028068D1CF30
:1036D000809107028C60CDCF809108028360CFCFAC
:1036E000809107028E7FC5CF80910802877FC7CF68
:1036F000809107028D7FBDCF809107028B7FB9CF6C
:1037000080910702877FB5CF809108028E7FB7CF67
:10371000809108028D7FB3CF809107028F7EA9CF61
:10372000809107028F7DA5CF809107028F7BA1CF6B
:103730000E94EC10809107028F779BCF8091070247
:10374000837F97CF809108028C7F99CF8091070269
:1037500082FB992790F921E0922790FB82F990FB58
:1037600083F987CF80910802982F909591708E7F72
:10377000892B90FB81F983CF90910702892F8F7B52
:1037800096FF806476CF0E94EC1090910702892FFB
:1037900097FB87F980586DCF61E08EE090E00E9442
:1037A0002034609107027091080284E090E00E944A
:1037B0003E340E94EC105FCD60E0EFCF90910702A5
:1037C000892F8F7E94FF806154CF90910702892FBB
:1037D0008E7F90FF81604DCF90910802892F877F67
:1037E00093FF88604CCF85E345C481E00E94AA0B1B
:1037F00043E062E081E00E94660B3DCD81E00E94E3
:10380000860BF6CF82E0F2CF882381F003303CE7CD
:10381000130709F468C008F04BC001155CE71507F1
:1038200009F454C001301C4709F463C0F7018781D3
:103830009085009709F46BC00E946D098C01F70117
:10384000C580B680B2943FE0B3228091AB0187700F
:1038500001F1AC2CCC20F1F0812F807F803461F01D
:1038600080E2800F8830A8F0812F807E803221F4A2
:10387000023078F0BB2069F08091080282FF09C015
:1038800082E00E94930B8091AB018770AA24A394DD
:103890008111A12C912E92942FE09222FBE0F91538
:1038A00008F4A9C0E92DF0E0E859FB4C0C949133E1
:1038B0000B357CE7170749F10C358CE71807D9F071
:1038C0000A351C4709F0B2CF81E01CC00E94EC1001
:1038D000AFEFB4E3ECE0A150B040E040E1F700C04E
:1038E00000000E941E0D6FEF7FEF90E080E00E94CD
:1038F0003E340E94F2138091080282FB882780F9EF
:1039000091E089270E94821091CF80E0FBCF8581D2
:1039100000811181882369F0C8010E944C0ED82EC5
:10392000682FC8010E944C0BB8018D2D0E941F0EFC
:1039300083CFC8010E94D40AD82EF6CF212F2F7032
:10394000D22E107F19F0D29490EFD922CC20B9F06A
:10395000DD2069F080E2800F883010F0011109C08D
:1039600080915C04D82AD0925C040E949910802F28
:1039700040C080915B04D82AD0925B04F6CF802FA0
:103980000E946D14DD20B9F180E2800F883010F0C4
:10399000011104C08D2D0E94B20A03C08D2D0E941A
:1039A000AB0A0E94991027C0312F3F70D32E107F91
:1039B000103219F0D29480EFD822002351F0013058
:1039C00009F486C0CC2009F492C0BB2009F440C0A1
:1039D000CECF8091080282FD37C0CC2079F1DD2066
:1039E00039F080915C04D82AD0925C040E9499102E
:1039F00080E00E940615A92DA850BB0B149710F467
:103A00000E94DF05AA20A9F08091AB0180FD11C0C2
:103A1000F70115828695869586950E94AA0BC701A7
:103A20000E94B4168091AB018695869586950E947A
:103A3000860B60E0C7010E94B50E2DCC80E00E948D
:103A40006D14DD20C1F2A6CFCC2069F1B11004C005
:103A50008D2D0E946314CFCF41E0B41210C010919D
:103A6000B6018D2D8123D81631F20E945F05909307
:103A7000B5018093B401D12AD092B601BCCF55E0F4
:103A8000B512B9CF8D2D0E9463148D2D0E94960A18
:103A90008091A8019D2D9823D91609F4ACCFD82A7E
:103AA000D092A801A8CFB1100AC08D2D0E945C143D
:103AB0008D2D0E94960A8D2D0E94C00A9CCF61E038
:103AC000B61299CF80915C048D2109F494CFEDCF8B
:103AD000CC2029F075E07B1508F48DCFB9CF84E0B8
:103AE0008B1508F488CF8D2D0E945C1484CFBB20E9
:103AF000D1F3093349F49FEFA7EEB3E09150A04012
:103B0000B040E1F700C00000802F0E946D1473CF19
:103B1000812F86958695837061F0813009F06BCF97
:103B2000C8019370C11002C080E090E00E9495052A
:103B300062CFC8019370C11002C080E090E00E9483
:103B4000BA0559CF6C2D802F0E94D00B54CF812FF6
:103B5000837089F5C1104FCF402F4295469547702D
:103B6000440F440F802F8F70042E01C0880F0A94D9
:103B7000EAF7202F207104FF07C02FE030E001C0DA
:103B8000220F4A95EAF72095169516951370123074
:103B900069F050F430910502113029F0822B832313
:103BA0000E94CD0B28CF832B822BFACF282B80911C
:103BB00005028227F5CF8695CC2011F0812F8170E8
:103BC000882309F418CF402F429546954770440F3B
:103BD000440F802F8F70042E01C0880F0A94EAF7DB
:103BE000202F207104FF07C02FE030E001C0220F1A
:103BF0004A95EAF72095169516951370123069F0DC
:103C000050F430910602113029F0822B83230E9458
:103C1000630BF1CE832B822BFACF282B80910602E7
:103C20008227F5CF1F70CC2029F0812F0E94AA0B8C
:103C3000802F0FCF802F0E945C14812F0E94860B53
:103C4000DACE023F89F160F4003FB9F0013F81F024
:103C5000CC2009F45FC0B1108ACE812F8F7128C0AB
:103C6000033F49F1043FA1F78091080282FD2FC074
:103C7000812F8F71CC2011F31BC0CC2081F0E4E0A8
:103C8000EB1508F4B8CE1F7181E090E0012E01C061
:103C9000880F0A94EAF7909106028927B8CFF5E0D9
:103CA000FB1508F4A8CEEFCF812F8F71C110C6CFBE
:103CB0000E94AA0BA0CE80E0CC2009F4A8CF1F71EF
:103CC00081E0012E01C0880F0A94EAF7A0CFCC2032
:103CD000B1F08091AB018770843041F40E94B90A41
:103CE000812F8F710E94860BA12C85CE24E063E08A
:103CF0002B15D0F3812F8F710E94B60BF5CF34E0D6
:103D00003B1520F40E94B90A64E0F4CF81E00E94E0
:103D1000930BEACFBB2059F0093309F0F5CE4FEFF2
:103D200057EE63E0415050406040E1F7EBCE812F09
:103D30008F7184CF552021F0FC01808585FF45CC13
:103D4000C80197558F3F910511F008F08EC0C8014A
:103D5000887F9927892B09F08ECAF801FF2744E054
:103D6000EE0FFF1F4A95E1F79F012B5C3D4F690164
:103D7000D70115968C91E65CFD4F908180FB90F900
:103D80009083882309F428CC0E945F0590930C024D
:103D900080930B02F60182818F5F828380915B04A6
:103DA00090915C04892B83838091B6018483468142
:103DB000578166857785C6010E94EC05D601159668
:103DC0008C9181FF06CC90E080E090935D0480931D
:103DD0005E042BC0809196019091970108171907F6
:103DE00081F4109297011092960110924004109263
:103DF000410410924204109243041092480410921D
:103E000047048091490490914A04009709F498CF9F
:103E1000E8E06E16710408F0CDCB642D0E94BA065E
:103E2000811103C081E00E94A014F70185818823DD
:103E300009F416C110925A04980130572332310503
:103E400008F0F9C084E090E00E940A3490930802E0
:103E500080930702F801E150F047E232F10508F0E3
:103E600005CCEC58FB4C0C949133F801E851FC471D
:103E7000E730F105D0F6EA56FB4C0C94913305354A
:103E800061E7160709F429CA063571E7170709F033
:103E9000C9C8552009F4EFC980911302982F9F706B
:103EA000993008F0E8C99F5F20CA013781E71807F9
:103EB000A8F5063691E7190708F03ACA0436A1E7D3
:103EC0001A0709F423CA0536B1E71B0709F0AAC887
:103ED000552009F4D0C920911302822F859585952C
:103EE0008595859586300CF0C6C991E0980F92951E
:103EF000907F9595959595959595392F3295307F2D
:103F00002F70232B2093130218160CF0B4C997FFBF
:103F1000B2C98295807F922F9F70E9C9013710073F
:103F200009F416CA0237F1E71F0709F07BC85520CC
:103F300009F4A1C980911402982F9F779F3709F443
:103F40009AC9933708F01ACA935F9F77807814CA8A
:103F5000093821E7120709F469CAB0F5053841E7C5
:103F6000140709F43DCAD8F4033861E7160709F4C9
:103F70001ACA043871E7170709F054C8552009F424
:103F80007AC920911402322F331F3327331F9091A7
:103F90001502892F8770880F832B8F5F14CA809139
:103FA0001402909115020738A1E71A0709F434CAE0
:103FB00008F428CA40E051104FE7881F8827881F5F
:103FC0009770990F62E41ACA0C38E1E71E0709F4EA
:103FD00049CA88F40A3821E7120709F435CA0B38B0
:103FE00031E7130711F00C9412188FEF511081E094
:103FF0008093120240C90E3841E7140709F467CADA
:1040000008F450CA0F3861E7160711F00C94121823
:1040100080911402982F991F9927991F809115025A
:104020008770880F892B6FEF7FE1552009F45ECAF6
:104030000E94690220C906317CE7170709F0C0C059
:1040400080915C048A7A91E009F490E09093980161
:1040500069E2811165E38EE891E00E947B0594CAD4
:1040600006319CE7190709F0D1C0809198018111B0
:10407000BACB89E20E946E0587CA8114910409F0C7
:1040800065C8512C912C812C80E00E94A014D09204
:104090004A04C092490481E0809346048FE08A9DDF
:1040A000F0018B9DF00D1124EA5FFC4F8581809318
:1040B000440451100EC08114910459F08081918103
:1040C0009C0124503109213A310508F04ECA0E9462
:1040D0006E058FE08A9DF0018B9DF00D1124EA5F43
:1040E000FC4FC680D780C6019A9581159F4110F478
:1040F00020EED22299249394C60101978F339E47D4
:1041000008F0912C8FE08A9DD0018B9DB00D112479
:10411000AA5FBC4F1996ED91FC911A97309731F038
:104120001B966D917C9181E0099598229920B1F0C0
:104130008FE08A9DF0018B9DF00D1124EA5FFC4F0A
:10414000868197810E94A80C80934504C60148E0AF
:104150006416710408F00CCA0E9469060E94991046
:1041600010CA0930AEE71A0711F00C94EC176DE88D
:10417000C62E61E0D62E7AE0B72EF6018491882310
:1041800009F479C8813009F03DC886010F5F1F4FDF
:10419000F8018491813011F00C94C3180F5F1F4F08
:1041A000F80184910E9473156801BFEFCB1ADB0AF6
:1041B000E4CF0930BEE71B0709F45DC80C94EC1787
:1041C0000737ECE71E0709F410CB0837FCE71F0799
:1041D00009F418CB9801205E32452032310508F0F1
:1041E00013CB811123CB0F7181E090E09C0102C0C1
:1041F000220F331F0A95E2F78901622F83E090E0D6
:104200000E942034802F0E94CD0B35C807372CE741
:10421000120709F4F3CA08373CE71307D9F682E01E
:10422000EECAB0E0A0E0E7E1F1E20C94A93380919E
:10423000A501807F09F051C08091A401882309F471
:104240004CC0E091C80489E0D82E80917F048E177D
:1042500009F443C00E2F10E0ED9DF0011124E05849
:10426000FB4F84818823F1F1D09EE001D19ED00DD7
:104270001124FE01E058FB4F91818091A001981319
:1042800031C0908180919F0198132CC0858181114C
:1042900029C0E280F3808091A1019091A201E81AE7
:1042A000F90A60E08FE991E00E94B50E0E94A00F2C
:1042B000E816F906B8F48091A5018F7080618093AB
:1042C000A501CA57DB4F88818F70806188838FE991
:1042D00091E00E94B4160E94CA0ACDB7DEB7E7E0AB
:1042E0000C94C533F8013196E770AFCFA8E1B0E088
:1042F000ECE7F1E20C94A1338C0186E0F801DE01D9
:10430000539601900D928A95E1F7F801F480E580CB
:104310008FE9882E81E0982E8091A30181112AC017
:10432000F11003C0FF24F3941CC0EE20F9F0C80183
:104330000E948B0EF82E8823C9F089E0F801AFE9BE
:10434000B1E001900D928A95E1F78091A30181304F
:1043500031F480919F019091A0010E947E0E0E94F5
:1043600011218F2D6896EFE00C94BD33C8010E9497
:10437000B416D8CFC280D380B090A4018091A1019F
:104380009091A2013601681A790ABB2009F420C174
:104390005080A18060E08FE991E00E94B50E0E94FC
:1043A000A00F6816790608F0BDC0FF2009F4BACF47
:1043B0008091A501382F307F2091A001F8019181D3
:1043C000311161C0FE2C29131DC020919F019081E5
:1043D000291318C04091A6015091A701278130856B
:1043E0004217530779F4E11047C08F7080618093C2
:1043F000A5018FE991E00E94B4168091A501F80112
:104400008683AFCFE11038C06A2D852D0E949302BC
:104410006A2D852D0E949302E82E8111A2CF5B8A1E
:10442000AC8A8B899C890E947E0E292F22952F7041
:10443000243058F49F70223088F0992399F0F801C5
:104440009681907F79F4FE2C8CCF2A5F2F702230DA
:1044500068F0C8010E94B416EB2CF5CF992311F037
:10446000882389F3805E883070F3F3CF803F58F360
:10447000815F833070F7E7CF8091A50181608093E1
:10448000A501F12C6ECF29131EC020919F019081B0
:10449000291319C04091A6015091A70127813085A9
:1044A0004217530781F4E1100EC08683C8010E94B1
:1044B000B41689E0F801AFE9B1E001900D928A9558
:1044C000E1F7FB2C4ECFC8010E948B0E882309F424
:1044D0004DCFEE2009F44ACF8091A5018032B8F08B
:1044E00020919F013091A0013B872A87DD86CC86F1
:1044F0009091A3019E871F86888B8091A601909141
:10450000A7019A8B898BCE010A960E94B41689E086
:10451000F801AFE9B1E001900D928A95E1F70E94B0
:10452000112100CF8091A501982F907F51F48FE940
:1045300091E00E94B41689E0F40111928A95E9F79E
:10454000A0CFFF2009F4EECE2091A001F8019181C7
:1045500029131AC020919F019081291315C0409101
:10456000A6015091A701278130854217530761F4B6
:10457000E1100AC08683C8010E94B41689E0F401E4
:1045800011928A95E9F79DCFC8010E948B0E88236E
:1045900009F4ECCEEE2009F4E9CE8091A501803239
:1045A00008F4B5CF20919F013091A0013A8329836F
:1045B000DC82CB829091A3019D831E828F838091A8
:1045C000A6019091A70199878887CE0101969DCF7A
:1045D00060E08FE991E00E94B50E0E94A00F68167E
:1045E000790608F0A8CFFF2009F49CCEFE2CEE201F
:1045F00009F4BCCE9091A001F8018181981336C0D6
:1046000090919F018081981331C02091A601309133
:10461000A701878190852817390741F58091A1016D
:104620009091A201C81AD90AFFEACF16D104A8F4C2
:104630009091A50190FD11C0907F79F08091A50126
:10464000F8018683903F31F0982F907F905F8F70B4
:10465000892B8683C8010E94B41689E0F801AFE96E
:10466000B1E001900D928A95E1F77BCEC8010E94DE
:104670008B0E81114CCF8091A50181608093A501A3
:10468000C8010E94B4166DCEA2E1B0E0EAE4F3E204
:104690000C94AC330A871B872C873D874E875F8736
:1046A000688B798B8A8BCE010A960E9476218111C4
:1046B0000CC089E0FE013A96DE01119601900D9240
:1046C0008A95E1F78E8581110BC019E08091C804AD
:1046D00090917F04891331C06296E4E00C94C83352
:1046E00020917F0430E0C90101968770992740919D
:1046F000C8044817190699F099E0929FD001939F3A
:10470000B00D1124A058BB4FFE01319601900D92BF
:104710009A95E1F780937F040E94CA0AD6CF0E943F
:10472000EC1010927F041092C80489E0EFE9F1E0E8
:10473000DF011D928A95E9F7C8CF819FC00111243E
:1047400080589B4F0E947621882331F28091C804C3
:1047500090E00196877099278093C804B7CFEF92B5
:10476000FF920F931F93CF93DF938091C103882310
:1047700061F0E09188038DE0F82E8091C103E81785
:1047800048F01092C10310928803CDB7DEB7E6E07F
:104790000C94C633EE24E394EE0EE0928803CE2F01
:1047A000D0E0EF9DF0011124EE53FC4F848188236B
:1047B000E9F087819085892B21F481859285019686
:1047C00059F40081118122813381448155816681B0
:1047D000778180850E944423FC9EF001FD9EF00DB0
:1047E0001124EE53FC4F148210925B04EE2DC5CFC2
:1047F0001092350410923404109217018091330402
:10480000809332040E9408070E94AF230895B0E00D
:10481000A0E0EDE0F4E20C949F33C091320497E005
:10482000992E01E010E02DE0322E34E0432E552485
:104830005394809133048C1309C00E94AF230E94CB
:104840000807CDB7DEB7E1E10C94BB33D0E0FE0141
:10485000EE0FFF1FE65DFB4F80819181989ED00196
:10486000999EB00D1124A757BC4F14962C91149704
:10487000211159C06090C103E2ECF3E030E020E088
:10488000812C5D01261508F04CC0E384F484D50129
:10489000CD90DC906FEF7FEF712C472D50E0DA0167
:1048A000AA0FBB1FAC0DBD1D0D90BC91A02D109784
:1048B00031F0EA16FB0609F4BA017394EECF6F3FAC
:1048C0007607A9F1D80102C0AA0FBB1F6A95E2F7CB
:1048D0008A2AB801072C02C0660F771F0A94E2F7F4
:1048E000AB01415051098416150601F5329EF001C5
:1048F000339EF00D1124EE53FC4F989ED001999EEB
:10490000B00D1124A757BC4F12962D913C911397CF
:10491000308727834482108211829287818715967F
:104920005C920E94DA062196C37083CF14822F5FB7
:104930003F4F3D96A7CFAEE1B0E0E1EAF4E20C9440
:104940009E334B8B5C8B6D8B7E8B8F8B988F9111F5
:1049500010925B04188A198A1A8A86E0FE017396FF
:10496000DE011A9601900D928A95E1F78091080276
:1049700082FF1CC00E945F052091A9013091AA010D
:10498000821B930B8838934120F08091AB0182FF0A
:10499000EFC10E945F052091B4013091B501821BE7
:1049A000930B8838934110F00E948B0A8E858823E0
:1049B000B1F061E0CE010A960E94B50E61E0CE0131
:1049C0000A960E94B50E6C018F8540E5C4164CE72F
:1049D000D40689F4882329F181E0809317010A85A0
:1049E0001B852C853D854E855F85688979898A89F7
:1049F0000E944423C8C061E5C6166CE7D60629F4B8
:104A0000882379F00E94F823EACF72E5C7167CE785
:104A1000D70639F4882329F0809117018111F2CF4C
:104A2000DBCF89E8E82E83E0F82E512CB12CA12CA5
:104A300066246394712CCE0101969A8F898F442449
:104A40004394F7014081518188248A94982C20E076
:104A5000822F90E0FC01EE0FFF1FE40FF51F608135
:104A600071816115710531F0C616D70609F44C0144
:104A70002F5FEECF10E0FFEF8F169F0609F444C0C2
:104A8000F701448110911701812F411180E0182F07
:104A90001170F701358086819F85992309F4F4C050
:104AA000112309F4F1C0311014C0A301082C01C076
:104AB000440F0A94EAF7842B8683809186039091B1
:104AC0008703C29730F462E370E0709387036093CA
:104AD0008603C30102C0880F991F2A95E2F7019748
:104AE000F70126812817190679F4809134049091F2
:104AF0003504009709F44BC00E944405C39708F49D
:104B000046C0F701448211E0512AFFEFAF1ABF0AF5
:104B100027E0E20EF11C38E0A316B10409F091CFB2
:104B20008F85882309F410C1552009F40DC10E9416
:104B30005F0590933504809334048091C1038830DD
:104B400010F591E0980F9093C10399E0FE013A9619
:104B5000DE01119601900D929A95E1F74DE0849F48
:104B6000C00111248E539C4F29E0FE013196DC01D7
:104B700001900D922A95E1F72FEF3FEFFC0132876C
:104B80002187D486C3866E96E2E10C94BA33809175
:104B9000320450913304982FF0E0E0E0851314C004
:104BA00090933204EE16FF0609F4AECF90E0FC01BC
:104BB000EE0FFF1FE65DFB4FB182A082019683706E
:104BC000992780933304A0CF282E312CF101EE0FCA
:104BD000FF1FE65DFB4F20813181F7E0F29FD0019E
:104BE000F39FB00D1124A757BC4F2D913C91119705
:104BF0003E8F2D8F40E020E030E0E32FF0E0EE0F1D
:104C0000FF1F6D8D7E8DE60FF71F808091808114D0
:104C10009104E1F0F7010190F081E02DFC8FEB8F22
:104C200020E005C08616970609F4412F2F5FE22F7A
:104C3000F0E0EE0FFF1F6B8D7C8DE60FF71F60819C
:104C400071816115710571F73F5FD7CF4423C9F0BA
:104C5000F701231708F0FD014482EE16FF0621F448
:104C600090933204142F50CF981305C0AE17BF078E
:104C700011F49F5F937091012F5F3F4F822F8370DC
:104C80008DCFF0E0E0E0F7CF90E0311020C0B3012D
:104C900002C0660F771F2A95E2F79B012150310968
:104CA0008217930731F4442309F44CC0C5010E94D4
:104CB000DA06C301082C01C0880F0A94EAF7982F7E
:104CC0009095F701868189238683132D1DCFAC0132
:104CD000082C02C0559547950A94E2F7BA01617015
:104CE00077279C012150310982239323892B31F5A9
:104CF000672B21F1F70182819381892BE1F0E98D06
:104D0000FA8D27E011922A95E9F70E945F05282F76
:104D10008B839C8334E03D83F70182819381782FDC
:104D20008887998709811A813C8144E05E816F817F
:104D3000892F0E944423F7011582BBCFF42FF17015
:104D40003F2EB7CF312EB5CF9091320480913304EE
:104D5000981729F00E940724511015CF40CE0E94C9
:104D6000AF2310923504109234040E940807F4CF48
:104D700082E00E94930B0DCEA6E0B0E0E2ECF6E2FA
:104D80000C94AC338C019093220280932102011584
:104D900080E21807C0F4802F0E946D14C8010E94A1
:104DA000A80C9801205E31092830310518F0011552
:104DB000110531F40E945C142696E4E00C94C8338B
:104DC0000E944B14F9CF80EF89838A830E945F058C
:104DD0008160682F9C838B8349815A817C8181E02B
:104DE00090E00E949B24E8CF0F931F93CF93DF9313
:104DF0008C01EB016BE272E08C2F0E948C0F892BEF
:104E000071F4DD27CD5DDD4F8881F80112821882B3
:104E10008330F1F048F4813059F0823081F0DF9135
:104E2000CF911F910F9108958430B9F08530B9F773
:104E300080912B0290912C02009789F306C08091FB
:104E40002D0290912E02009799F30E94BC26E7CF85
:104E500080912F0290913002F6CF80913102909193
:104E60003202009791F720912B0230912C02809111
:104E70002D0290912E0221153105F1F2009729F7AC
:104E8000C901E3CFA6E0B0E0E8E4F7E20C94AE336A
:104E90009093220280932102811520E2920730F440
:104EA0000E949C162696E2E00C94CA3380EF898318
:104EB0008A830E945F058160682F9C838B83498170
:104EC0005A817C8181E091E00E949B24EBCFCF93BB
:104ED000DF93EC010E944227CE010E94BC26DF91A5
:104EE000CF9108950F931F93CF93DF938C01862F5B
:104EF0006BE272E00E948C0F892BB1F4C0912B02FF
:104F0000D0912C02209781F0F8018281833051F4F6
:104F1000CE010E946727CE010E946727CE010E9422
:104F2000672702C08430D0F7DF91CF911F910F9196
:104F300008950F931F93CF93DF938C01EB016BE2E6
:104F400072E08C2F0E948C0F892B09F05CC0FE014F
:104F5000FF27D80112968C911297ED5DFD4F81309D
:104F6000B9F415969C9192FF02C080830AC090FF0D
:104F7000FCCF82E0808380912D0290912E020097D9
:104F8000B9F480912B0290912C020097E1F110C0AE
:104F90008230B9F515968C9182FD28C080FD0BC03A
:104FA00083E0808380912F0290913002009701F17D
:104FB0000E94422728C084E0808380913102909132
:104FC00032020097A9F780912B0290912C02009752
:104FD000F9F00E94672780912D0290912E02009790
:104FE00039F780912B0290912C02E2CF85E08083EB
:104FF00080912B0290912C02009729F00E94672744
:10500000F0CF86E08083DF91CF911F910F910895BB
:1050100080912D0290912E02B8CFA6E0B0E0E3E19E
:10502000F8E20C94AC330E945F058C018091B701CB
:105030009091B8018017910781F019821A820E941D
:105040005F05682F49815A81792F80E090E00E94A6
:105050009B241093B8010093B7012696E4E00C94CA
:10506000C833CF93F8946E9A7698789400C0C3B101
:10507000C095C1700E94770880EA8A95F1F7809107
:1050800004028C1789F0C093040281E08093BB0175
:105090000E945F059093BA018093B901C0E08C2F04
:1050A000CF910895C0E014C0C091BB01CC23B1F3EF
:1050B0008091B9019091BA010E944405059770F35F
:1050C0008091040290911E02981761F380931E0252
:1050D0001092BB01E4CF1F920F920FB60F921124D2
:1050E0002F933F934F935F936F937F938F939F93F0
:1050F000AF93BF93CF93DF93EF93FF93D091E900EA
:10510000DF708091EC00C82FC17080FDC0E8109264
:10511000E9008091F000877F8093F00078940E94EE
:1051200013111092E9008091F00088608093F000E4
:10513000CD2BCF70C093E900FF91EF91DF91CF911C
:10514000BF91AF919F918F917F916F915F914F919F
:105150003F912F910F900FBE0F901F9018951F92A7
:105160000F920FB60F9211242F933F934F935F939B
:105170006F937F938F939F93AF93BF93EF93FF931F
:105180008091E10082FF09C08091E20082FF05C0AA
:105190008091E1008B7F8093E1008091DA0080FFB5
:1051A00024C08091D80080FF20C08091DA008E7FDB
:1051B0008093DA008091D90080FFAAC080E189BD88
:1051C00082E189BD09B400FEFDCF81E080937504C2
:1051D00080916A04811109C00E9495030E948A048B
:1051E0008091E20084608093E2008091E10080FF82
:1051F0001AC08091E20080FF16C08091E2008E7F8D
:105200008093E2008091E20080618093E2008091CF
:10521000D80080628093D80019BC85E08093750423
:1052200083E080931B018091E10084FF30C0809176
:10523000E20084FF2CC080E189BD82E189BD99B57F
:10524000892F817090FFFBCF9091D8009F7D909324
:10525000D8009091E1009F7E9093E1009091E20050
:105260009F7E9093E2009091E20091609093E20023
:1052700090917604992309F451C094E090937504B9
:1052800090917504943009F482E080931B01809121
:10529000E10083FF2CC08091E20083FF28C0809151
:1052A000E100877F8093E10082E080937504109293
:1052B00076048091E1008E7F8093E1008091E2008E
:1052C0008E7F8093E2008091E20080618093E20013
:1052D00042E060E080E00E9458048091F000886025
:1052E0008093F00081E080931B0180931A01FF916D
:1052F000EF91BF91AF919F918F917F916F915F914E
:105300004F913F912F910F900FBE0F901F901895C6
:1053100019BC1092750410926A0467CF9091E30053
:1053200097FD02C0982FAACF93E0A8CF78941F9240
:105330001FB61F9211248F939F93AF93BF938091B9
:10534000660490916704A0916804B0916904019685
:10535000A11DB11D8093660490936704A093680417
:10536000B0936904BF91AF919F918F911F901FBE21
:105370001F9018951F921FB61F9211248F939F9311
:10538000AF93BF9380916504811113C0809166042F
:1053900090916704A0916804B09169044196A11DA1
:1053A000B11D8093660490936704A0936804B09342
:1053B0006904BF91AF919F918F911F901FBE1F9065
:1053C0001895CDB7DEB7C754D1090FB6F894DEBF34
:1053D0000FBECDBF85B7806885BF85B7806885BFA4
:1053E00084E0809313028FE780931402809115026A
:1053F0008078806480931502ECEBF1E084E092E029
:105400002FEF21938E179F07E1F710921102109250
:10541000120210921802109217021092EE041092CB
:10542000F0041092EF0480EC8093B30581EF94E0D8
:105430009093B5058093B4051092B2051092B10512
:105440001092CE041092CD041092D0041092CF048A
:105450001092D2041092D1041092D4041092D3046A
:105460001092D6041092D5041092D8041092D7044A
:105470001092DA041092D9041092DC041092DB042A
:105480001092DE041092DD041092E0041092DF040A
:105490001092E2041092E1041092E4041092E304EA
:1054A0001092E8041092E70486E298E09093CA0410
:1054B0008093C90488EA97E09093EA048093E90412
:1054C00084E897E09093E6048093E50483E897E00E
:1054D0009093CC048093CB0484B7877F84BF0FB6AE
:1054E000F894A89580916000886180936000109284
:1054F00060000FBE80E890E00FB6F89480936100E2
:10550000909361000FBE81E080931B0185E798E0D6
:1055100090938D0180938C010E945E070E943F1042
:105520000E94BC0F0E9495030E948A048091E200B1
:1055300084608093E2007894809175048823A1F0C0
:105540001091E9001F709091EC00892F817090FDFF
:1055500080E8182B1092E9008091E80083FD0E94FA
:1055600013111F701093E90082E084BD93E095BD94
:105570009AEF97BD80936E000E94B00D811102C01A
:105580000E947C0FEEE7F3E088E0DF011D928A9530
:10559000E9F781E080930F0260E080E00E94260737
:1055A00061E080E00E942607EFE8F1E03197F1F733
:1055B00000C0000010E080910F02181708F49FC08F
:1055C0000E947708F8942098289A789410921E02E6
:1055D0001092040290E080E00E940A34853E9E4FC3
:1055E00021F40E94B00D811163C065EE7EEF90E062
:1055F00080E00E943E3460E082E090E00E9420342F
:1056000081E08093050261E083E090E00E94203415
:1056100060E074E184E090E00E943E3460E086E067
:1056200090E00E94203460E087E090E00E94203407
:1056300040E050E0BA0188E090E00E94323460E03F
:1056400083E290E00E94203460E08CE090E00E94D1
:10565000203460E08DE090E00E94203419821A82AC
:105660001B821C821D821E821F82188648E050E029
:1056700067E170E0CE0101960E94103440E050E0F6
:10568000BA018FE190E00E94323480E00E94420D26
:105690000E947C0F40E050E0BA018FE090E00E9451
:1056A000323440E050E0BA0183E190E00E943234AD
:1056B00082E090E00E9402348093090284E090E04E
:1056C0000E940A3490930802809307020E943128B6
:1056D0002FEF36E741E0215030404040E1F700C075
:1056E00000000E94312880911E0280FF1AC06FEFD7
:1056F0007FEF90E080E00E943E340E941E0D60E04B
:10570000812F0E941907082F61E0812F0E9419073D
:10571000E12FF0E0E25FFD4F880F802B80831F5F59
:105720004ACF83E090E00E9402340E94CD0B81E0DA
:1057300091E0909362048093610414E0412E512C17
:1057400003E0602E712C8091750410E400E1B2E159
:10575000FB2E853009F4E2C00E94312880910A02B4
:1057600010911E028113E4C00E940D28809147040D
:1057700090914804892B09F43EC040913C0450911B
:105780003D0460913E0470913F042FB7F8948091DE
:10579000660490916704A0916804B09169042FBFDA
:1057A000841B950BA60BB70B40913804509139041C
:1057B00060913A0470913B0484179507A607B707D8
:1057C000D0F080914704909148040E949C1610925A
:1057D00048041092470410923C0410923D04109229
:1057E0003E0410923F041092380410923904109233
:1057F0003A0410923B0400915D0410915E0401157F
:10580000110559F180910B0290910C020E94440500
:105810007C01FE01BB9689E0DF011D928A95E9F7C4
:10582000C8010E94A00F8E159F05B8F420915D0459
:1058300030915E04C9019927287F3327232B09F073
:10584000A2C0A4E0880F991FAA95E1F78B5C9D4F39
:10585000FC01258122FF0E942114809117018823D9
:1058600001F180913404909135040097D1F00E94A9
:10587000440520918603309187032817390788F45F
:105880009091320480913304981709F47FC00E94EC
:105890000724109287031092860310923504109209
:1058A000340480911002882351F0109210028091EC
:1058B00080038093810380917E0380937F03F12C8A
:1058C000A7C080917504843019F11092650488E1B5
:1058D00090E00FB6F894A895809360000FBE1093E7
:1058E000600083B7817F846083BF83B7816083BF9B
:1058F0007894889583B78E7F83BF0FB6F894A89568
:1059000080916000886180936000109260000FBEFB
:105910000E94312880911E0281110CC5809175046E
:10592000853009F4CECF0E94EC100E94DF0514CF21
:10593000812780FF23C021961FAE219722961FAE9C
:1059400022970E945F05682F23968FAF2397249696
:105950009FAF249781E025968FAF2597912F917067
:1059600026969FAF269721964FAD219722965FAD41
:10597000229724967FAD24970E949B2410930A02BD
:105980000E945305F3CE90E080E062CF0E94AF23E7
:1059900010923504109234040E94080782CF61E00F
:1059A0008F2D0E941907182F60E08F2D0E94190774
:1059B000E12FEE0FE82B0F2D10E0D801A25FBD4FB5
:1059C0009C91892F8370E81711F1990F990FE92B9A
:1059D000EC93EF70F0E0E35AFE4F035F1D4F8081C0
:1059E000D801EC90E80EEC92B3E060E0BE1524F034
:1059F000EDEFEE1624F461E08F2D0E9439078E2D15
:105A0000EE0C990BB2010E947D33D8018C93F39474
:105A100080910F02F81618F290E06CEFF62E73E00A
:105A2000E72EDD24D394EDEFCE2EF2E0BF2E809151
:105A3000810320918003281709F49CC4E82FF0E02B
:105A4000EE57FC4F108117FB002700F91F778F5F7F
:105A500083708093810380917F038F5F80937F03A6
:105A6000011108C00E945F051CABFDAA9FAB8EAB65
:105A7000E8AE07C00E945F051CABCDAA9FAB8EAB02
:105A8000B8AED9AE4CA95DA96EA97FA988AD99AD74
:105A90000E949B24002391F00E945F051AAFCBAEB9
:105AA0009DAF8CAFBEAE1FAE4AAD5BAD6CAD7DADF4
:105AB0008EAD9FAD0E949B2491E0B9CF0E945F05FF
:105AC0001AAFFBAE9DAF8CAFEEAEEDCF81E0B1C4AF
:105AD00081E0B7C481E0F6C481E0FCC42091B30545
