:100000000C946B020C94A3020C94A3020C94A30214
:100010000C94A3020C94A3020C94A3020C94A302CC
:100020000C94A3020C94A3020C9433290C94EF2893
:100030000C943E2A0C94A3020C94A3020C94A302E9
:100040000C94A3020C94A3020C94A3020C94A3029C
:100050000C94A3020C941A2A0C94A3020C94A302ED
:100060000C94A3020C94A3020C94A3020C94A3027C
:100070000C94A3020C94A3020C94A3020C94A3026C
:100080000C94A3020C94A3020C94A3020C94A3025C
:100090000C94A3020C94A3020C94A3020C94A3024C
:1000A0000C94A3020C94A3020C94A3020501090270
:1000B000A10185020901A1000509190129081500FE
:1000C0002501950875018102050109300931158165
:1000D000257F95027508810609381581257F9501D0
:1000E00075088106050C0A38021581257F95017572
:1000F000088106C0C005010980A101850319012AF4
:10010000B700150126B700950175108100C0050CD8
:100110000901A101850419012AA002150126A002E6
:10012000950175108100C00660FF0961A101096297
:10013000150026FF00952075088102096315002629
:10014000FF00952075089102C005010906A101056F
:100150000719E029E7150025019508750181029529
:1001600001750881010507190029FF150026FF0008
:100170009506750881000508190129051500250156
:10018000950575019102950175039101C062696E33
:10019000657061642F626E3030392F72313A626956
:1001A0006E65706164204020396431363062205BB6
:1001B000323032352D30332D31332D32333A34391C
:1001C0003A34345D00FD377A585A000004E6D6B45C
:1001D000460200210116000000742FE5A3E0008212
:1001E00000615D003D888986D3DC0AE842C3249221
:1001F0005842588FD8E75CA0D2616E26E888019AF1
:10020000676C7887BC8D3709E9FD7425A53C7ADFDA
:10021000E9BC4FA6EA8E84AF490EA22C427D41C7AD
:1002200079B56E194CC5A90630AC6CD4C12F3439E0
:100230002579FEF03EF22F78255CEEAD2ED615C462
:10024000BF429B610D0000000033C064F26FA291B9
:10025000AD00017D8301000000E567133AB1C4677A
:10026000FB020000000004595A010001002604208E
:100270000E050E0000020002002204200E050E00F2
:1002800000030001002704200E050E0000040002F8
:10029000000C04200E050EE90605000100280420CC
:1002A0000E050E0000060002000E04200E050E00D2
:1002B00000070002002404200E050E0000080001C3
:1002C000002904200E050E00000900020010042081
:1002D0000E050EC4060A0002001204200E050EC40C
:1002E000060B0002001404200E050EC4060C0002CA
:1002F000001604200E050EC4060D0002001804208E
:100300000E050EC4060E0002001A04200E050EC4CF
:10031000060F0002001C04200E050EC40610000289
:10032000001E04200E050EC4061100020020042049
:100330000E050EC406120002002A04200E050E004F
:1003400000130002002C04200E050E000014000112
:10035000002E04200E050E00001500000000004ACB
:10036000065414000024002500260021002200234A
:10037000001E001F00200009025B00030100A0FA1C
:1003800009040000010301010009211101000122FB
:10039000440007058103080001090401000203006D
:1003A000000009211101000122220007058203201B
:1003B00000010705030320000109040200010300F6
:1003C0000000092111010001227B000705840320A0
:1003D000000112010002000000084942954201009C
:1003E000010203011C037600690061006C003A0001
:1003F00066003600340063003200620033006300A0
:1004000000000C0342004E003000300039000000B4
:100410001003420069006E00650070006100640016
:1004200000000403090400000000000000000000B8
:1004300000000000000000000000000000000000BC
:10044000000000000000000000007E0F00D4FFFF4D
:10045000FFC70000007800000000000000002A2B09
:100460002800000000000000000000000000000064
:100470000029000000002C1E3420212224342627CD
:10048000252E362D3738271E1F20212223242526EE
:100490003333362E37381F0405060708090A0B0CBC
:1004A0000D0E0F101112131415161718191A1B1C04
:1004B0001D2F3130232D350405060708090A0B0CC2
:1004C0000D0E0F101112131415161718191A1B1CE4
:1004D0001D2F3130354C11241FBECFEFDAE0DEBFC7
:1004E000CDBF04B603FE18C08091AC049091AD045A
:1004F000A091AE04B091AF048730904BA740B04BB1
:1005000059F41092AC041092AD041092AE04109203
:10051000AF04E0E0F8E3099511E0A0E0B1E0E4E227
:10052000F7E602C005900D92A237B107D9F724E093
:10053000A2E7B1E001C01D92AC3AB207E1F70E9418
:10054000652A0C943C330C940000482F2091AA0497
:100550009091610459E0291302C080E0089530E0D1
:10056000529FF001539FF00D1124EE59FB4F8181F2
:10057000681306C08081481303C085818111EECFC6
:100580002F5F3F4F2770E7CFE8EDF0E080818E7F4F
:1005900080831092E2001092DA001092E100A0EE47
:1005A000B0E08C9181608C9380818F77808319BCBF
:1005B000A7EDB0E08C918E7F8C9380818F7E8083BD
:1005C00010924C0408952091E4003091E50095E6E6
:1005D000A9012091EC00822F817020FF06C080913C
:1005E000E80080FF06C080E008952091E80022FD29
:1005F0001AC080915704882389F0853089F0809152
:10060000EB0085FD0FC02091E4003091E50042171A
:100610005307F9F29150E1F684E0089582E00895DD
:1006200083E0089581E008958091590487FF13C005
:100630008091E80082FF06C08091E8008B7780936C
:10064000E80004C0809157048111F2CF0895809191
:1006500057048823D9F38091E80080FFF8CF809178
:10066000E8008E77ECCF982F9093E900242F762F17
:1006700050E0891731F07091EC002091ED0050911D
:10068000F00021FD07C09F5F973071F78093E9006C
:1006900081E008953091EB003E7F3093EB00309184
:1006A000ED003D7F3093ED003091EB0031603093F1
:1006B000EB007093EC002093ED005093F00020913C
:1006C000EE0027FDE0CF80E00895B0E0A0E0EBE68B
:1006D000F3E00C947F32C8EDD0E088818F7E888370
:1006E000E7EDF0E080818160808384E082BF81E07B
:1006F00080934C0488818E7F888302EE10E0F8019D
:1007000010821092DA0081EEC82ED12CF6011082F0
:1007100088818F77888388818068888388818F7DAE
:10072000888319BC109257041092580410925604F2
:100730001092550490EEE92EF12CF70180818B7F09
:10074000808388818160888342E060E080E00E944D
:100750003303F60180818E7F8083F8018081816080
:100760008083808188608083F70180818E7F808391
:10077000888180618883CDB7DEB7E8E00C949B3236
:10078000FC0180915F049091600486179707A0F0A8
:100790006115710529F49091E8009E779093E80027
:1007A00090E06115710551F4911108C08091E80045
:1007B00082FF34C080E00895BC01F2CF80915704DD
:1007C0008823C1F18530C1F18091E80083FD30C0FC
:1007D0008091E80082FDEACF8091E80080FFE1CFC0
:1007E0008091F3002091F200382F6115710519F006
:1007F0002830310558F091E02830310509F090E0BB
:100800002091E8002E772093E800CBCF8191809350
:10081000F100615071092F5F3F4FE7CF809157047E
:10082000882341F0853041F08091E80083FFBECFFE
:1008300081E0089582E0089583E0089508959C0181
:100840004FB7F8948091480490914904A0914A04CC
:10085000B0914B044FBF821B930B08952FB7F894B0
:10086000609148047091490480914A0490914B042E
:100870002FBF08952FB7F8948091480490914904B0
:10088000A0914A04B0914B042FBF089580911801A4
:100890000895E6E7F1E09191891303C0DF01119714
:1008A0001C9291E0EC37F907B1F708959C01FC0127
:1008B00032969FEF80E04191461751F09F3F19F427
:1008C000411101C0982F8F5F8630A9F79F3F09F42F
:1008D0000895290F311D97FD3A95F9016283089516
:1008E000A3E0B0E0E6E7F4E00C9485322091450403
:1008F0003091460428173907A1F09093460480935D
:100900004504E0914304F0914404309751F024E011
:1009100029839B838A830084F185E02DCE01019693
:1009200009952396E2E00C94A132A3E0B0E0EBE954
:10093000F4E00C9485322091410430914204281750
:100940003907A1F09093420480934104E09143045D
:10095000F0914404309751F023E029839B838A83EC
:100960000084F185E02DCE01019609952396E2E001
:100970000C94A132E0914304F0914404309729F0A3
:100980000190F081E02D0995089580E008954115CA
:10099000510511F0FA01099508950E943A049C014D
:1009A0009091380480913904982B21F030933504CC
:1009B0002093340490913A0480913B04982B21F0C9
:1009C0003093330420933204E0914304F0914404C3
:1009D000309749F082E0809336040680F781E02D5D
:1009E00086E394E0099508958091310480FF0CC05E
:1009F0006091160170E0759567957595679561151D
:100A0000710549F1862F089581FF06C06091160196
:100A100070E075956795F3CF6091160182FD0BC06C
:100A2000909130049923A1F06091150180911601F5
:100A3000961738F0682F70E06038710500F38FE783
:100A40000895899FC001112470E00E945432F4CFB0
:100A500061E070E0D7CF81E008958091310460912A
:100A600014047091150480FF16C020911401269F74
:100A7000C001279F900D1124BC017695679576954E
:100A800067956038710508F043C06115710509F478
:100A900041C0862F089581FF0BC020911401269F2D
:100AA000C001279F900D1124BC0176956795E9CF71
:100AB00082FF09C0809114019B01829FB001839F36
:100AC000700D1124DECF20910B042223D1F29091DE
:100AD000130180911401482F50E0291748F0CB01F1
:100AE000849FB001859F700D949F700D1124C9CF14
:100AF000289F90011124269FA001279F500D369F0B
:100B0000500D1124692F70E0CA010E944032B9CF04
:100B10008FE7089581E00895282F35EB2303C00166
:100B2000112497FF04C080589109892F0895805897
:100B30009F4FFBCFCF93DF93EC0140910004509186
:100B4000010460910204709103042FB7F89480911E
:100B5000480490914904A0914A04B0914B042FBFDE
:100B6000841B950BA60BB70B843F9140A105B105E3
:100B700018F58091000490910104A0910204B091B5
:100B800003048093FC039093FD03A093FE03B093B2
:100B9000FF0384EF91E0A0E0B0E08093F80390932E
:100BA000F903A093FA03B093FB03D0930804C09316
:100BB0000704DF91CF9108950E942E046093FC03F7
:100BC0007093FD038093FE039093FF0382E390E014
:100BD000A0E0B0E0E2CFFC018481862351F4928151
:100BE0009923B9F06923808583FF05C081E06111F5
:100BF0000FC080E00895892F8F7092959F70982B79
:100C0000862F8F7062956F70682B81E09613F1CFFD
:100C1000089581E0FDCFDC016091F2038091F30340
:100C2000962F891301C00895292F30E0F901EE0FA6
:100C3000FF1FE651FC4F408151814A175B07A1F429
:100C400087E08A9FA0018B9F500D1124475B5C4F6A
:100C500081E0FA0184839613E6CF2F5F3F4F237024
:100C600033272093F20308952F5F3F4F922F937005
:100C7000D8CF1092470310924603E9E4F3E0858150
:100C8000811102C014821682379683E0E138F8079A
:100C9000B1F70895B0E0A0E0E0E5F6E00C947D3215
:100CA0008FEF9FEF4430510508F469C040911F0356
:100CB00041FB882780F990E0880F991F42FB0027AD
:100CC00000F910E0000F111F000F111F802B912B56
:100CD00040FBCC24C0F8D12C8C299D2943FB222732
:100CE00020F9C22FE0E0DE2F53E0CC0FDD1F5A9534
:100CF000E1F78C2B9D2B44FBAA27A0F9B0E0E4E0A0
:100D0000AA0FBB1FEA95E1F78A2B9B2B45FBEE2729
:100D1000E0F9F0E0A5E0EE0FFF1FAA95E1F78E2BBA
:100D20009F2B46FB222720F930E0B6E0220F331F2D
:100D3000BA95E1F7822B932B47FB222720F930E06D
:100D40003695322F222737952795822B932B20918A
:100D50002003322F3170F32EE82EF92A26952170C8
:100D6000B22EBB0CA82EBF28C501BB0CAA0BBB0B17
:100D7000FB0180839183A283B38390E080E0CDB7B1
:100D8000DEB7EAE00C949932ECE0F4E084819581DE
:100D90002AE030E0B9010E94403260930E01868162
:100DA00080930D01828580931401848580931301C3
:100DB00086859785B9010E94403260930C01808935
:100DC00080930B0182898093160184898093150199
:100DD000089580910C0490910D04909310018093DC
:100DE0000F010895E6EDF1E090E080E060E378E245
:100DF00047E558E226EA37E27783668351874087E2
:100E00003387228797878687019670968830910569
:100E100099F7089581152CE7920741F42091F60384
:100E20003091F703232B11F490E080E0089580E0E7
:100E30000895F894E82FE295EF70F0E031A1282FA3
:100E40002F7081E090E001C0880F2A95EAF7982F73
:100E50009095932391A392A1892B82A378940895CE
:100E600090911F0392FF10C041E0282F247124307D
:100E700009F040E031E0282F2871283009F030E0F7
:100E8000431711F02CE0822793FF10C041E0282F78
:100E90002471243109F040E031E0282F28712831F5
:100EA00009F030E0431711F02CE082273091200345
:100EB00030FF10C051E0282F2171213009F050E09F
:100EC00041E0282F2871283009F040E0541711F034
:100ED00029E0822731FF10C041E0282F2171213104
:100EE00009F040E031E0282F2871283109F030E086
:100EF000431711F029E0822794FD877E08958238F8
:100F00009105B9F1B0F48133910509F47DC048F43D
:100F10008932910509F46DC08A32910509F47BC0CC
:100F200008958533910509F45FC08933910509F16E
:100F30000895833E9105D9F138F4803E910529F159
:100F4000823E910579F10895863E9105D9F1873E5B
:100F5000910509F43EC0843E910541F5209120039E
:100F600021FF24C080911F0384FD19C087EE90E00B
:100F7000089520911F03237009F05AC02091200387
:100F800023FF14C089E290E0089520911F0320FD03
:100F900038C03091200330FF09C024FF43C090E0E7
:100FA00080E0089520911F0322FDF7CF089520913E
:100FB0001F0322FD3AC03091200330FD39C024FFC9
:100FC000F5CFEDCF20911F0323FFF0CF24FDE7CF16
:100FD000CDCF20911F0323FD2EC03091200331FF80
:100FE000EECF84EE90E0089520911F0325FFDECF21
:100FF000C9CF20911F0325FD21C02091200323FF8D
:10100000D5CF89E390E0D2CF20911F0326FFCECF2A
:101010008AE290E0089520911F0326FFC7CF81E365
:1010200090E0089583EE90E0089582EE90E00895B8
:1010300080EE90E0089586EE90E0089585E390E0DC
:1010400008951F93CF93DF930E947F07EC01C11592
:1010500080E5D807F0F5C11580E4D80708F09CC0FA
:10106000C03ED10520F5CD3CD10508F082C0C83A7C
:10107000D10578F4C53AD10508F073C0C130D10567
:1010800019F1209709F1C430D105F0F4D0E0C0E0A7
:101090001BC0C33CD105D0F7C85AD0E0CC0FDD1F30
:1010A000CA5DDE4F0990D881C02DD4640DC0C11532
:1010B00080E2D80708F0D1C0C11581E0D80708F058
:1010C0005AC0C83ED10510F7CE01DF91CF911F91D4
:1010D0000895C03682E5D80718F5C03482E5D807F0
:1010E00008F06BC0C03282E5D80708F05FC0C115B8
:1010F00082E5D80708F497C02C2F2695269580E224
:10110000289F900111248C2F8370C1E0D0E002C091
:10111000CC0FDD1F8A95E2F7C22BD32BDD68D4CF2D
:10112000C03A82E5D80760F4C03882E5D80708F4F1
:1011300059C0CF71D0E0DC2FCC27C46FD06AC4CFA8
:10114000C03C82E5D80708F462C0C03E82E5D807FB
:1011500008F09CCFDC2FCC27CC27DF71C06FD06A82
:10116000B3CFC55AD0E0CD5DDE4FC881D0E0D064AA
:10117000ABCFD065A9CF8D2F0E943007182FCE019D
:1011800099270E947F07C12FD0E0DC2FCC27CC27E6
:10119000DF71C82BD92B98CFCE0199270E947F07EA
:1011A000CC27DF70C82BD92BD06A8ECFCF71D0E07F
:1011B000DC2FCC27C16FD06A87CF2C2F26952695A0
:1011C000277080E2289F900111248C2F8370C1E04A
:1011D000D0E002C0CC0FDD1F8A95E2F7C22BD32BE3
:1011E000DC6872CF2C2F26952695277080E2289FE9
:1011F000900111248C2F8370C1E0D0E002C0CC0F8D
:10120000DD1F8A95E2F7C22BD32BDA685DCF8C2FD6
:101210008F710E943007C82FD0E0DC2FCC27CC275D
:10122000DF71D06251CF8C2F8F710E94300755E053
:10123000D695C7955A95E1F7CF70D0E0DC2FCC2733
:10124000282F30E084FF05C044E0220F331F4A9569
:10125000E1F7C22BD32BD06937CF8D2F8F710E942E
:101260003007182FCE0199270E947F07C12FD0E0A9
:10127000DC2FCC27CC27DF71C82BD92BD2CF809184
:101280009E01882331F010929E0110929D011092D0
:101290009C010895CF93C82F8091200382FF0CC03A
:1012A00080919E018C1741F00E943A0490939D0119
:1012B00080939C01C0939E01CF91089590919E01CF
:1012C000292F282361F08095892380939E0188230C
:1012D00039F00E943A0490939D0180939C010895F7
:1012E00090E080E0F8CF80959091AB0498239093A4
:1012F000AB04089580959091210398239093210346
:10130000089590912103892B8093210308951092D1
:1013100093011092920110929101089580910E0410
:1013200090910F04892B89F00E943A0420919C012E
:1013300030919D01AC01421B530B81E020910E04C2
:1013400030910F044217530708F480E0817008952C
:1013500090919001292F282321F080958923809353
:10136000900108958091AA0490916104981301C09E
:1013700008958F5F8770FACF292F933078F58330E7
:1013800068F590E033E0239F800D911D1124682FB4
:10139000677023E0969587952A95E1F7FC01EE0F9B
:1013A000FF1FE80FF91FEF57FE4F50E040E080E0CD
:1013B000219130E0062E02C0369527950A94E2F777
:1013C00021703327042E01C0220F0A94EAF7822BE2
:1013D0004F5F5F4F4330510559F7089580E00895FE
:1013E000292F933098F5833088F590E033E0239FE0
:1013F000800D911D1124282F277041E001C0440F5A
:101400002A95EAF723E0969587952A95E1F7FC015E
:10141000EE0FFF1FE80FF91FEF57FE4F30E020E0FF
:1014200070E05191DF011197CB01022E02C0969519
:1014300087950A94E2F78170819585278423852713
:101440008C932F5F3F4F2330310559F708958093D8
:10145000A80108959091A80121E030E0F90101C0B0
:10146000EE0F8A95EAF7D90102C0AA0FBB1F6A9551
:10147000E2F7EA2B01C0220F4A95EAF7892F8E2363
:10148000E81305C0292B822F0E94270A0895209572
:101490002923F9CF21E030E001C0220F8A95EAF735
:1014A00020958091A80182230E94270A0895909197
:1014B00093018095892380939301282F277069F4E5
:1014C000891759F09091200392FF07C08695869561
:1014D00086950E944A0A0E948709089521E030E01B
:1014E00001C0220F8A95EAF78091A801822B0E9401
:1014F000270A08959091200392FF10C098E0899FD9
:1015000090011124622B609393010E946E0A0E9445
:101510003A04909392018093910108950E946E0A7B
:1015200008958093A701089592959F70963091F049
:1015300058F4925F9F70923058F4803F19F030F465
:10154000883E30F481E008959A5FF4CF843FD1F370
:1015500080E00895883EB0F3813FD1F7F3CF662352
:1015600009F45DC08D3C41F40E942D058195809366
:1015700039040E94CD0408958E3C19F40E942D0573
:10158000F6CF8F3C31F40E942D058195809338046D
:10159000F0CF803D19F40E942D05F8CF893D29F444
:1015A0000E94F40480933A04E4CF8A3D21F40E941F
:1015B000F4048195F7CF8B3D31F40E94F4048195BA
:1015C00080933B04D6CF8C3D19F40E94F404F8CFED
:1015D0009FE2980F983070F4815D990B21E030E024
:1015E00001C0220F8A95EAF780913704822B8093FD
:1015F0003704BFCF8D3D31F48091310481608093F9
:101600003104B7CF8E3D21F4809131048260F7CF51
:101610008F3D09F0AECF809131048460F0CF4091CE
:1016200038048D3C59F48091390487FF0DC0109225
:10163000390441110BC010920B0408C08E3C81F498
:101640008091390418169CF3442381F080913A0468
:1016500090913B04892B09F08CCF1092300489CFF4
:101660008F3C49F447FFF0CF109238048091390441
:101670008111ECCFE0CF803D19F41416ACF3E4CF28
:1016800090913A04893D29F41916F4F610923A041F
:10169000DBCF8A3D19F497FFD7CFF8CF90913B0469
:1016A0008B3D29F497FFD0CF10923B04CDCF8C3DDA
:1016B00019F41916CCF3C8CF9FE2980F983090F424
:1016C000815D990B21E030E0B90102C0660F771F00
:1016D0008A95E2F7CB018095909137048923809316
:1016E0003704B2CF8D3D31F4809131048E7F8093E9
:1016F0003104AACF8E3D21F4809131048D7FF7CF44
:101700008F3D09F0A1CF809131048B7FF0CF9C01F8
:101710003A9521153F4150F5FC01EE27F170BC01CF
:1017200066277270AC01442754709C0122273870E0
:1017300094FF0EC080E1EF2B09F480E0672B09F0E5
:101740008062452B09F08064232B89F0806808951E
:1017500081E0EF2B09F480E0672B09F08260452BD4
:1017600009F08460232B19F08860089580E00895C3
:101770000F931F93CF93DF938B01EA01909157044E
:10178000943061F58093E9008FEF9091E8008150EB
:1017900095FD06C095ED9A95F1F700008111F5CF02
:1017A0008091E80085FF1AC00E94E302811111C0F8
:1017B0008091E80085FD06C08091E8008E778093D7
:1017C000E800F2CFF80181918F018093F100219719
:1017D00079F78091E8008E778093E800DF91CF91D0
:1017E0001F910F91089543E050E0BC0184E00E94F6
:1017F000B80B089546E050E0BC0184E00E94B80BAD
:101800000895CF93DF93EC0148E050E0BC0181E004
:101810000E94B80B88E0FE01ADE4B4E001900D92A7
:101820008A95E1F7DF91CF91089581E08093E00000
:1018300080E28093D8001092C9008FE19EE4019766
:10184000F1F700C0000087E090EBDC018093AC046E
:101850009093AD04A093AE04B093AF0488E19CE0F4
:101860000FB6F894A895809360000FBE9093600027
:10187000FFCF019708F40895EFE9FFE03197F1F702
:1018800000C00000F6CFCF93C82F6FEF811169EC35
:1018900084E290E00E9400336FEFC1116DE885E2B1
:1018A00090E00E9400336FEFC1116DE486E290E09A
:1018B0000E940033CF910895CF93DF93C4E8D1E025
:1018C00060E0CE010E9400332196C11584E0D80764
:1018D000B9F7DF91CF9108951F93CF93DF93122F24
:1018E0008430E0F46330D0F44330C0F4C42FD0E04F
:1018F000CC0FDD1F96E0699FC00DD11D112492E130
:10190000899FC00DD11D1124632FCE0188960E949E
:101910000033612FCE0189960E940033DF91CF9171
:101920001F91089584E290E00E94E232893C89F49C
:1019300085E290E00E94E2328D3859F486E290E030
:101940000E94E23291E08D3409F090E0892F81709D
:10195000089580E0FCCF0F931F93CF93DF938430E3
:1019600030F5633020F5433010F5C42FD0E0CC0FB4
:10197000DD1F26E0629FC00DD11D112432E1839F3F
:10198000C00DD11D1124CE0188960E94E232082F8D
:1019900010E0102F0027CE0189960E94E2329801B4
:1019A000282BC901DF91CF911F910F91089590E0ED
:1019B00080E0F8CF462F2091C0013091C101232B48
:1019C00099F4703F39F4603F79F48091C2019091AD
:1019D000C3010895733040F4633030F4843020F450
:1019E000672F0E94AB0C089590E080E00895CF929D
:1019F000DF92FF920F931F93CF93DF936C010091BF
:101A0000A8018091A701082BC3E0D0E010E0FC2ED4
:101A1000C8010C2E02C0959587950A94E2F780FDC7
:101A20000CC02197A0F7F12C8F2DDF91CF911F9142
:101A30000F91FF90DF90CF900895B6018C2F0E94F8
:101A4000DA0C0E942108019761F3EECFCF93DF9368
:101A5000EC010E94F70CBE010E94DA0C0E942108E2
:101A6000DF91CF910895FC018481882371F08781F3
:101A70009085009729F00E9421080E94940A0895F9
:101A8000808191810E94260DF8CF80E00895A6E024
:101A9000B0E0EDE4FDE00C94843249835A8349813F
:101AA0005A819923A1F0222391F0CA010E94F70CD8
:101AB000182F682F89819A810E94F00969817A81A3
:101AC000812F0E94DA0C2696E3E00C94A032CA0122
:101AD0000E94BC09182FF2CFFC01262F8781908528
:101AE000009741F4408151816281738184819581A5
:101AF0000E94470D08950F931F93CF93DF930CE03F
:101B000014E0C0E7D0E0CE010E94E232F80161911A
:101B10008F01681719F0CE010E9400332196C43955
:101B2000D10589F7DF91CF911F910F9108950F9300
:101B30001F93CF93DF930CE014E0C0E7D0E0CE0119
:101B40000E94E232F80181938F012196C439D105B8
:101B5000B1F7C3E7D2E0FE0185919491009711F0AF
:101B6000FC0109952C96F3E0CF36DF07A1F7DF9152
:101B7000CF911F910F9108959B01883070F49AE0E6
:101B8000899FB00111246C567F4F4AE050E0C90193
:101B90000E94D23290E080E008958FEF9FEF089589
:101BA000AAE0B0E0E6EDFDE00C9485329C013755EB
:101BB0002F3F310509F068F4BE016F5F7F4F0E942F
:101BC000BC0D892B31F489859A852A96E2E00C9424
:101BD000A1328091240490912504F7CF90912003A5
:101BE00092FB222720F9281779F080FB92F9909335
:101BF000200360911F037091200384E090E00E9415
:101C00001E3382E00E94570A0895DA019C012E5F7C
:101C10003F4FF90145915491F90125913491A21753
:101C2000B30758F0FC013496859194910E94C2321A
:101C30000E947B0D90E080E008958FEF9FEF089564
:101C4000DB01FC013296259134914217530758F07D
:101C5000FC01349665917491A901CD010E94C232B4
:101C600090E080E008958FEF9FEF0895AAE0B0E044
:101C7000ECE3FEE00C947D3207EA12E084E3E82E08
:101C8000FF24F39497E0B92E26EAC22E22E0D22E4A
:101C9000AA24A3944AE050E0B701CE0101960E9425
:101CA000D232F8013896DF018B2D1D928A95E9F723
:101CB00089819A81D80111969C938E938F81129677
:101CC0008C9312978D8113968C9313978885149615
:101CD0008C931497898515968C9315978B819C818D
:101CE00017969C938E93169718961C9218978A8530
:101CF00087FF3CC01E961C921E921D9780FF03C05A
:101D0000D8011896AC9281FF04C0F80190859260CA
:101D1000908782FF07C0D80118969C91189794600D
:101D200018969C9383FF04C0F80190859860908773
:101D300084FF07C0D80118969C9118979061189657
:101D40009C9385FF04C0F801808580628087FAE05B
:101D5000EF0EF11C015F1F4F84E8E81681E0F806E2
:101D600009F098CF2A96EAE00C949932F801D686C9
:101D7000C586C4CFAAE0B0E0E0ECFEE00C947F3270
:101D8000E6E5F2E080E5DF011D928A95E9F7E9E4F6
:101D9000F3E088E3DF011D928A95E9F786E5C82E16
:101DA00082E0D82E7F0104EE10E0F701D182C082DC
:101DB0004AE050E0B801CE0101960E94D23288E09C
:101DC000FE013196D60101900D928A95E1F7898541
:101DD0009A85D70113969C938E931297BAE0CB0EF7
:101DE000D11CE7E0EE0EF11C065F1F4F0433F1E05B
:101DF0001F07D9F62A96E8E00C949B32A3E0B0E0E6
:101E0000E4E0FFE00C947E3219821A821B828CE59A
:101E1000C82E81E0D82E10E000E0EE24E394F12CEF
:101E2000F60181916F018F3F09F446C0F894E82FC5
:101E3000E295EF70F0E021A18F70A70102C0440F7E
:101E4000551F8A95E2F7CA01922F982B91A392A170
:101E50008095892382A3789400C0EFE5F1E0B12C4E
:101E600031E021912F3F09F450C0A22FA295AF700D
:101E7000B0E090968C9190E02F7002C09595879578
:101E80002A95E2F780FD41C0832FB82A330F51E035
:101E9000E236F50731F7F601319780818F3F11F077
:101EA0000E94190780EA8A95F1F7E1E0F0E0EC0F73
:101EB000FD1FE00FF11FB0820F5F1F4F03301105B0
:101EC00009F0AECF43E050E0BE016F5F7F4F84EA80
:101ED00091E00E94B532892BE1F089819A81AB8132
:101EE0008093A4019093A501A093A60181E0809323
:101EF000A3010E943A049093A2018093A10110E0F3
:101F0000812F2396E9E00C949A3280E0BECF10E056
:101F100022C01091A301112391F38091A10190910E
:101F2000A2010E941F04059750F343E050E064EAC9
:101F300071E08DEB91E00E94B532892B41F38091E5
:101F4000A4019091A501A091A6018093BD01909359
:101F5000BE01A093BF011092A301D2CFCF93809175
:101F60002103C091AB04C82B80919E018823E9F026
:101F700080910E0490910F04892B29F00E948E0904
:101F800081110E943F0980919E01C82B20E086E7C5
:101F900091E0FC013191CF0131112F5FF1E08C37DD
:101FA0009F07B9F721110E943F0980910404809591
:101FB0008C2390910504892B8093740148E050E0B4
:101FC00064E971E084E791E00E94B532892BA9F0C1
:101FD00088E0E4E7F1E0A4E9B1E001900D928A9590
:101FE000E1F7E0914304F0914404309731F002802E
:101FF000F381E02D84E791E00995CF910895CF9387
:10200000DF93EC014A855B856E857F850E94C7045E
:102010008B810E9473098C810E947A090E94AE0F05
:1020200086E0FE0111928A95E9F7DF91CF9108953C
:10203000CF93DF93EC018D8181FD14C082608D838D
:102040008091AB049B81892B8093AB048C810E948F
:1020500081090E94AE0F488559856E857F85CE0126
:102060000E94C7041092400410923F048D8180FDAD
:1020700003C0CE010E94FF0FDF91CF9108958091A0
:102080001101877F8093110182E00E947309809182
:10209000110184FF06C08F7E8093110182E00E94AF
:1020A00081098091110185FF06C08F7D8093110108
:1020B00080E20E9481090E94AE0F0895CF93109292
:1020C0002103C6E0E6E7F1E0DF018C2F1D928A953F
:1020D000E9F790E080E00E94950490E080E00E94A3
:1020E00070041092AB040E94AE0FE6E3F4E0DF014F
:1020F0001D92CA95E9F710920B04109230041092C9
:1021000031040E94CD04CF910895AAE2B0E0EBE83B
:10211000F0E10C94843289E594E02091F100DC0137
:102120002D93CD01B4E081369B07B9F780915A0415
:10213000833009F472C0B8F4813009F449C08230A8
:1021400009F4B7C08091E80083FF3FC18091590432
:1021500090915A049A3008F038C1E92FF0E0E25C1F
:10216000FC4C0C9468328A3009F492C08B3009F42C
:1021700071C0893039F780915904813219F7809103
:102180005D0490915E04009711F00297D9F680915A
:10219000E800877F8093E8008091E80082FF38C0E4
:1021A0009091F3008091F200029731F48091F10058
:1021B000813011F0863021F48091F1008093180174
:1021C0008091E8008B778093E8000E941403BACFD7
:1021D00080915904813A09F0B5CF8091E800877F5A
:1021E0008093E80080915D0490915E04892B61F4F6
:1021F00068E08DE494E070E00E94C0038091E80004
:102200008B778093E8009ECF60E090E080E0F3CF92
:10221000809157048111C0CF95CF80915904813AA4
:1022200009F090CF80915D0490915E04892B09F0B4
:1022300089CF8091E800877F8093E8008091E80053
:1022400080FFFCCF809119018093F1008091E8001C
:102250008E77B9CF80915904813209F073CF809184
:102260005D0490915E04892B09F06CCF8091E800A9
:10227000877F8093E8000E94140381E090915B04C3
:10228000911101C080E0809319010E945E105ACF25
:1022900080915904813209F055CF8091E800877F01
:1022A0008093E8000E94140380915C0480931701DE
:1022B00049CF80915904813A09F044CF8091E800D8
:1022C000877F8093E8008091E80080FFFCCF8091B9
:1022D0001701BACF803899F0823809F076C0809122
:1022E0005D048F70873008F070C08093E9008091A2
:1022F000EB0085FB882780F91092E90006C08091E9
:10230000550490915604911182609091E800977F56
:102310009093E8008093F1001092F1008091E80022
:102320008E77C3C1882309F4B0C1823009F04DC053
:1023300080915B048111B4C180915D048F702FEF97
:10234000280F263008F041C08093E9002091EB006F
:1023500020FFA6C1933031F48091EB00806280931E
:10236000EB009EC19091EB0090619093EB0021E017
:1023700030E001C0220F8A95EAF72093EA0010921C
:10238000EA008091EB008860EACF81111EC01091B5
:102390005B041F778091E3008078812B8093E300BA
:1023A0008091E800877F8093E8000E941403809169
:1023B000E80080FFFCCF8091E30080688093E30019
:1023C00082E0111183E0809357048091E80083FF3D
:1023D0000AC08091E800877F8093E8008091EB003D
:1023E00080628093EB00AA96E3E00C94A0328058C0
:1023F000823058F720915B0430915C042C3DE3E07F
:102400003E07A1F583E08A838AE289834FB7F89477
:10241000DE01139620E03EE051E2E32FF0E050931E
:102420005700E49120FF03C0E295EF703F5FEF702B
:102430008E2F90E0EA30C0F0C7968D939D932F5F6A
:10244000243159F74FBF8091E800877F8093E800DF
:102450006AE270E0CE0101960E94C0038091E8001C
:102460008B778093E800B1CFC096E7CF80915D0471
:1024700090915E04432F55274330510509F44AC01B
:1024800078F54130510509F485C08BE590E0E7E728
:10249000F3E04230510509F098CF2091E800277F02
:1024A0002093E80020915F04309160048217930725
:1024B00008F49C0140E02115310509F070C041117C
:1024C0006EC08091E80082FDC9CF809157048823B7
:1024D00029F2853019F28091E80083FFF2CFBECF58
:1024E0004132510509F447C04232510509F06DCF20
:1024F0008330910508F069CFFC01EE0FFF1FEB5907
:10250000FE4F0190F081E02D8E599E4FDC018C91A1
:1025100090E01DC0332721303105E9F02115310548
:1025200079F022303105F9F02330310509F04DCF33
:10253000E4EEF3E0E4918E2F90E0E4EEF3E007C0E8
:10254000E2E2F4E0E4918E2F90E0E2E2F4E0009722
:1025500009F43BCFA2CFE0E1F4E0E4918E2F90E0CC
:10256000E0E1F4E0F4CFE2E0F4E0E4918E2F90E0DB
:10257000E2E0F4E0ECCF8330910508F026CF880F3D
:10258000991FFC01E559FE4F0190F081E02D89E093
:1025900090E083CF82E190E0E2EDF3E07ECF8091A6
:1025A0005704882309F45ACF853009F457CF809116
:1025B000E80083FD53CF8091E80082FD82CF8091B7
:1025C000E80080FF78CF9091F3008091F200211510
:1025D000310519F08830910550F041E0089709F075
:1025E00040E08091E8008E778093E80064CF4491CA
:1025F0004093F1003196215031090196E8CF80389F
:1026000009F0E3CE8091E800877F8093E800809115
:1026100058048093F10082CE8111D7CE10915B04D3
:10262000123008F0D2CE8091E800877F8093E800D6
:10263000109358040E941403112311F084E005C084
:102640008091E30087FDFACF81E08093570442E058
:1026500061EC81E00E94330342E261EC84E00E947D
:10266000330342E261EC82E00E94330342E260EC19
:1026700083E00E94330380915704843021F081E08D
:1026800080931A01A2CE82E0FBCF80915B0481305F
:1026900009F09BCE81E0933009F080E080935604EE
:1026A0001092E9008091E800877F8093E8000E9403
:1026B00014038BCEECE0F4E0128E138E8FEA90E0E0
:1026C0009183808325E0248F88E893E1938382833C
:1026D0008AE090E09583848344E150E05783468309
:1026E00048E050E051874087938782876EE170E031
:1026F000758764879787868780E590E0918B808BCC
:10270000538B428B48E250E0558B448B42E350E0C0
:10271000578B468B48EC50E0518F408F158E178EAB
:10272000168E91A380A322A30E947B0D0E945E10AF
:102730001092200310921F03E0E2F3E08081846096
:10274000808360911F037091200384E090E00E94D9
:102750001E330E94970D0895AEE1B0E0E2EBF3E185
:102760000C947A32C090F603D090F70381E090E0A9
:102770009093F7038093F603912C96E0892E10E056
:1027800000E01DC04E2D21E030E0911008C0F7019F
:10279000EE0FFF1FEA0DFB1D859194919C01672DA3
:1027A000892D0E946C0C2FEFE21AF20A33E0E31637
:1027B000F10441F70F5F1F4F0330110569F0809E50
:1027C000C001819E900D1124FC01EB59FC4F5F016B
:1027D000F12CE12C702ED6CF9394F4E09F12CFCF42
:1027E0000E945A131A8219821C821B821E821D8229
:1027F00018861F8288EC90E09A87898704E910E0A8
:102800004AE050E0B801CE0101960E942433065FF1
:102810001F4F043E1105A1F77E012BE0E20EF11CD3
:102820008AE0F70111928A95E9F74AE050E0B80191
:10283000C7010E942433065F1F4F0433F1E01F07D6
:10284000A1F77E0125E1E20EF11C8AE0F701119269
:102850008A95E9F78FEF9FEF9A8F898F87E08E8FA8
:102860004AE050E0B801C7010E942433065F1F4FC1
:102870000438F1E01F07A1F7D092F703C092F603E6
:102880006E96EDE00C94963280E00E94430C60E07E
:1028900087E290E00E9400330E94AC130E945C0C1F
:1028A00081E00E94430C0895CF92DF92EF92FF9255
:1028B0008FEF9FEF4430510508F46CC0FB01C080DE
:1028C000D180E280F3800E945E1080911F03C0FAE5
:1028D00080F9B701A601769567955795479540FB16
:1028E00081F9B701A60122E076956795579547953E
:1028F0002A95D1F740FB82F9B701A60133E076951E
:102900006795579547953A95D1F740FB83F9B701FD
:10291000A601E4E07695679557954795EA95D1F736
:1029200040FB84F9B701A601F5E0769567955795C8
:102930004795FA95D1F740FB85F9B701A601A6E0C6
:102940007695679557954795AA95D1F740FB86F9F7
:10295000B701A601B7E07695679557954795BA9563
:10296000D1F740FB87F980931F0380912003D0FAB1
:1029700080F9D1FACC24C0F8C0FA81F98093200301
:1029800060911F037091200384E090E00E941E3349
:1029900090E080E0FF90EF90DF90CF9008950E944C
:1029A0005E102FEF84E39CE0215080409040E1F7DF
:1029B00000C0000088E19CE00FB6F894A8958093D1
:1029C00060000FBE90936000FFCF882321F00E942B
:1029D00073090E94AE0F0895882339F09091AB04DB
:1029E000982B9093AB040E94AE0F0895882321F09A
:1029F0000E947A090E94AE0F0895882321F00E9458
:102A000081090E94AE0F0895882381F19CEF980FF1
:102A1000913A28F40E9449040E94AE0F089590E272
:102A2000980F983050F4877091E001C0990F8A9503
:102A3000EAF7892F0E947A09EFCF9BE5980F933030
:102A400028F490E080E00E949504089598E5980F9E
:102A50009B3128F490E080E00E947004089593E395
:102A6000980F933118F460E00E94AF0A0895FF9226
:102A70000F931F93CF93DF93F82E009109041091C9
:102A80000A040115110509F449C0109208041092B6
:102A900007041092040410920504D8011696CD91F3
:102AA000DC919E013A9521153F4108F4D07ED1E09A
:102AB000C11101C0D0E0D8011996ED91FC911A978F
:102AC000309731F01B966D917C9180E00995D82369
:102AD000DD2339F08CEF8C0F813A30F58C2F0E947A
:102AE0004904FF2099F0E0910904F0910A048085DF
:102AF00084FD0CC080910604882341F0808191817F
:102B00009C01215031092F333E47A0F00E94AE0FA7
:102B100010920A041092090410920604C801CDB75D
:102B2000DEB7E5E00C949E320E94AE0F8C2F0E941F
:102B30000415D7CF0E949A05E9CFCF93DF93EC011C
:102B40000E940415CE010E94870B9E01205E310970
:102B50002830310510F0CD2B29F40E94F614DF91B6
:102B6000CF9108950E94E514FACFCF93C82F882300
:102B7000A1F08CEF8C0F813A90F4E6E7F1E08191BF
:102B8000C817E9F181E0EC37F807C9F76C2F84E743
:102B900091E00E9456040E94AE0FCF91089580E20A
:102BA0008C0F883048F4C77081E001C0880FCA9547
:102BB000EAF70E948109EFCFEBE5EC0FE33040F438
:102BC000F0E0ED5DFE4F808190E00E949504E5CF3E
:102BD000E8E5EC0FEB3150F4F0E0EE0FFF1FEA5D9B
:102BE000FE4F808191810E947004D7CF83E38C0FC8
:102BF000833198F661E08C2F0E94AF0ACECF8C2FE4
:102C00000E9449040E94AE0FC1CF1F93CF93DF9360
:102C1000182FEB010E94B515209739F4812F0E94DF
:102C20000415DF91CF911F9108958FE99FE00197DF
:102C3000F1F700C000002197EFCF60912C04709154
:102C40002D04893321F060912A0470912B040E9495
:102C500005160895B0E0A0E0E0E3F6E10C948032C0
:102C6000E82FF0E0EA5AFB4FD490282F26952695BE
:102C7000269530E0F901EA5BFB4F0491877010E084
:102C8000082E02C0159507950A94E2F701701127E6
:102C9000F901EA5CFB4FE490F12C082E02C0F59498
:102CA000E7940A94E2F791E0E922FF24F901EA5D52
:102CB000FB4FC491D0E002C0D595C7958A95E2F745
:102CC000C170DD270115110519F081EE0E94B515BF
:102CD000E114F10419F086EE0E94B51570E060E091
:102CE0008D2D0E940516E114F10419F086EE0E9464
:102CF00004150115110519F081EE0E940415CD2B64
:102D000019F08CE20E941D16CDB7DEB7E7E00C94F7
:102D10009C32EF92FF921F93CF93DF93EC011AE066
:102D20008881882309F44CC0813009F046C089812C
:102D3000813051F47E0182E0E80EF11C8A810E940C
:102D40001D16E7012196ECCF823041F47E01E2E0CE
:102D5000EE0EF11C8A810E94B515F3CF833041F449
:102D60007E01F2E0EF0EF11C8A810E940415E9CF8A
:102D7000843011F02196E6CF2A81229690E080E0FF
:102D8000AE014F5F5F4F2053330B2A30310550F0B7
:102D90000097C1F2EFE9FFE03197F1F700C00000C2
:102DA0000197F6CF189FB001199F700D1124C9012A
:102DB000860F971F2981EA01E3CF0E942A16C2CF0E
:102DC000DF91CF911F91FF90EF900895B0E0A0E0C8
:102DD000ECEEF6E10C947D327C015B01C42FD22F26
:102DE000FC0185818823A9F040933E040E943A04A7
:102DF00090933D0480933C04C77081E001C0880F2C
:102E0000CA95EAF70E94FD14CDB7DEB7EAE00C944C
:102E1000993210913E04141338C080913C04909173
:102E20003D040E941F046C01B701C5010E94D00D32
:102E3000C816D90650F5C0E2CD0F1D17C1F080E2CB
:102E4000810F883048F4177081E0012E01C0880F8F
:102E50000A94EAF70E94F614C83048F481E09D2FE6
:102E6000977001C0880F9A95EAF70E94FD14802F91
:102E70000E941D16C83040F6D77081E001C0880F4F
:102E8000DA95EAF70E94F614BFCFC77081E001C05F
:102E9000880FCA95EAF7F6CFCF93DF93EC010E9433
:102EA000870B9E01205E31092830310510F02097F4
:102EB00041F40E94FD148C2F0E94B515DF91CF9133
:102EC00008950E94EC14F7CF662329F02091AB04FB
:102ED00022602093AB049C0130522115304308F44A
:102EE00099270E944C170895B0E0A0E0EAE7F7E1C7
:102EF0000C947F326C018B01E42E8091110182FFD2
:102F000087C0C0914403D0914503CC15DD0521F065
:102F1000C114D10409F07CC0809111018B7F809392
:102F2000110181FD6EC08091420390914303A8017D
:102F3000481B590B81E020910F013091100142177D
:102F4000530708F480E08170F82E80911101F0FAA7
:102F500081F980931101FE0183E0F695E7958A954A
:102F6000E1F7EE71FF27EE5DFC4F20813181AE016C
:102F70004F70552781E090E002C0880F991F4A9555
:102F8000E2F7FF2009F43FC0822B932B91838083CB
:102F90008091210381FF08C080911101806180939D
:102FA000110182E00E947A098091210385FF08C007
:102FB0008091110180628093110180E20E947A0960
:102FC0006F2DCE010E946417EE2031F0809127040E
:102FD00085FF02C086FF30C080912A0490912B04A7
:102FE0000E94390C80914403909145039C0130521A
:102FF0002115304308F499270E949D150E943F1027
:1030000017C081E0A0CF8095909582239323BECFF7
:10301000C601905281159043A0F4C60199270E94E1
:103020009D1580914403909145038C159D0531F3C6
:103030001093430300934203CDB7DEB7E8E00C944E
:103040009B32C601ECCFA8E0B0E0E9E2F8E10C94D5
:1030500075327C01DC0114968C91882309F447C2F7
:1030600061E0C7010E946C0D8C01F7018581882306
:1030700031F180913F0490914004009701F10817CD
:103080001907E9F0FC01FF27887F9927892B09F0B0
:103090006AC084E0EE0FFF1F8A95E1F7EA52FE4F07
:1030A00085818460858311830083CF010E9418107D
:1030B0001092AB0461E0C7010E946C0D8C01D70136
:1030C00015968C91882309F4BCC0C80197578038A5
:1030D000910510F00C947121D02EBFE0B01708F4C8
:1030E000F6C18FEF93E00E94E2328111F0C104E853
:1030F00011E0D1103BC0B4E04B2E9E012F5F3F4F3B
:10310000390133243A94D301E42D1D92EA95E9F76D
:103110006801FFEFCF1ADF0AC8010E94E2328983FB
:10312000882309F4D4C18130D1F4580122E0A20EE1
:10313000B11CC6010E94E232582E8A83882309F40A
:10314000C6C18FEF850D8330F8F4680133E0C30EFC
:10315000D11CC5010E94E2328B838823F1F1C301A7
:103160000E9489163AC0F0E0E0E09ACF0115E4E051
:103170001E0709F4ACC1C8010E94E232811101C0EE
:10318000DA940F5F1F4FB5CF8BEF850D833068F555
:10319000480143E0840E911CC5010E94E2328B83FA
:1031A00064018823D1F0680154E0C50ED11CC4012C
:1031B0000E94E2328C83882381F08B819C81813054
:1031C000AFEF9A0710F0982F8827B6E05B1639F01A
:1031D000E7E05E1639F00E941F28860194CF0E9416
:1031E000FA27FBCF0E948127F8CFF4E065015F1238
:1031F000F4CFC5010E94E232B82E680124E0C20E6D
:10320000D11CC80103960E94E232BB2009F45FC1C1
:10321000882309F45CC1482F4150550B349EC001EE
:10322000359E900D1124AB2DA150BB0B8A0F9B1F17
:10323000019798F2EFE9FFE03197F1F700C0000045
:10324000F7CF011527E51207B0F1011538E513078F
:1032500010F00C949821680147E5D41A6CEC71E0E9
:103260008C2D0E94BC0D892B31F5C601F4E0880F2E
:10327000991FFA95E1F7FC01EA52FE4F22812130B5
:1032800009F0B7C02091CC013091CD01232B99F0EA
:103290002091CE013091CF01232B69F02091D001F4
:1032A0003091D1014091D2015091D301242B352B83
:1032B000232B09F4A8C0F70155805110EEC080916E
:1032C0000001882309F4CFC6380130EE631A710873
:1032D00040909E0180919001482A80912103482AC4
:1032E00048E06416710408F009C19801277033277B
:1032F00081E090E001C0880F2A95EAF7552009F493
:10330000FAC0482AD7018D919C910E94BC0921E006
:1033100030E0F90102C0EE0FFF1F8A95E2F7FE834D
:10332000ED832091090430910A0438872F8320907F
:103330007C0130907D0167EAC62E62E0D62EB12C6A
:10334000A12CB8E0AB16B10409F4EEC6411005C0DB
:10335000D60112968C9181110DC1F601838190E006
:103360002D813E8182239323892B09F403C180851B
:10337000982F977009F487E038E06316710408F01D
:10338000D7C0552009F4D0C086958170882309F4F0
:10339000F1C0D6018D909C900815190519F455209F
:1033A00009F4E8C0EF81F885EC15FD0509F4E2C0E9
:1033B000D6011D96ED91FC91309721F080818823F4
:1033C00009F4D8C0642DC6010E94EB05882309F4D6
:1033D000D1C00815190509F010C70115110509F428
:1033E00011C7511011C78214930409F0C3C0512CA6
:1033F0000BC7223009F05FCF2091D0013091D1016D
:10340000232B09F458CFFC01E552FE4F20812E7F7B
:1034100020838A529E4F0E9418104DCF823041F473
:1034200086010E5F1F4FF80184910E94B5157BC77E
:10343000833041F486010E5F1F4FF80184910E9492
:10344000041571C7843009F06EC786010E5F1F4FE7
:10345000F801249190E080E0F80131962053330B7D
:103460002A30310558F0009709F45DC7AFE9BFE095
:103470001197F1F700C000000197F5CFB89EA001A9
:10348000B99E500D1124C901840F951F24918F01FD
:10349000E3CF0E942A16860146C70E35ECE71E07C9
:1034A00099F00F35FCE71F0749F00D352CE712079F
:1034B00009F005CF80910001882331F010920001BE
:1034C00080E00E94371503C081E080930001809165
:1034D0009301877061F0D70115968C91882339F09C
:1034E0008091200382FF03C082E00E94570A289641
:1034F000E2E10C9491328095482204CF552009F4E2
:10350000FCC510937D0100937C010E942E04609302
:1035100000047093010480930204909303041092BA
:10352000080410920704EECE82FB882780F92ECF84
:10353000552001F181702ACF0E9404158AC6049794
:10354000813A910558F46C2D84E791E00E9456046D
:10355000552009F488C50E94AE0FB9CF0E94AE0F66
:103560008FE39CE90197F1F700C000008C2D0E94C9
:10357000B515EECF9FEFA91AB90AAFE0CA0ED11C5C
:10358000E0CEDC012D913C910217130709F065C5CF
:10359000511065C51092060480E00E94371563C57E
:1035A000902F812FA5C5F9014485558566857785BE
:1035B000C9010E94C704D60115968C9181FFC8C528
:1035C000C6010E94FF0F80913F04909140040817AC
:1035D000190709F0BDC51092400410923F04B8C508
:1035E00090911101892F8E7F90FF8160809311014E
:1035F0000E943F10D8C5809111018E7FF7CF809136
:1036000011018F7E013E110531F0053E1105E9F4EF
:10361000809111018F7D809311018091110180FFB4
:1036200019C0D70115968C9108321105F0F40E31AE
:10363000110508F06BC00430110548F5882351F0DE
:10364000109245031092440305C0C80190528115A1
:10365000904318F7F801E851FC47E730F10508F00E
:10366000ACC5E85BFC4C0C9468320933110558F486
:103670000D32110518F40B32110501F79091270452
:1036800092FDDCCF08C004361105C1F3D7CF90916D
:10369000270494FDD3CF882309F4A6C080919E010E
:1036A00090912103892B8D7FB1F1109245031092E7
:1036B00044038091270481FD2EC0F80143E0F69574
:1036C000E7954A95E1F7EE71FF27EE5DFC4F980113
:1036D0002F70332781E090E002C0880F991F2A9550
:1036E000E2F7809590952081318182239323918305
:1036F000808360E0C8010E94641780919E018D7FE5
:103700000E944A0982E00E94570AE1CE9091270464
:1037100093FD94CFC0CF89E0F701AFEAB1E001900B
:103720000D928A95E1F71092B2011092B101809149
:1037300044039091450308171907D1F520912704F8
:1037400025FF36C03091110131FF02C026FF30C085
:1037500020914203309143035601A21AB30AB701E4
:103760000E94D00DA816B90618F58091210381FF9B
:1037700008C08091110180618093110182E00E9454
:103780007A098091210385FF08C080911101806230
:103790008093110180E20E947A096091110166957F
:1037A000617080914403909145030E9464178FCE0D
:1037B00080919E0190912103982B2091110191FB02
:1037C00021F9209311018D7F0E944A09109345032E
:1037D00000934403D0924303C092420380911101AD
:1037E0008460809311018ECF970140E0B601C8013B
:1037F0000E9474176CCE06E221EE41EE6AE17CE78E
:10380000C7010E94E61663CE07E225EE45EE6BE1A6
:103810007CE7F6CF06E221EE40EE68E17CE7F0CFF0
:1038200007E225EE44EE69E17CE7EACF06E221EE0D
:1038300042EE6CE17CE7E4CF07E225EE46EE6DE177
:103840007CE7DECF08E221E045EE6EE17CE7D8CFF1
:1038500080911F03816080931F0395C08091200396
:103860008860809320038FC080911F038260F3CF14
:1038700080911F038460EFCF80911F038860EBCF9E
:10388000809120038160EDCF809120038260E9CF99
:1038900080911F038061DFCF80911F038062DBCFA7
:1038A00080911F038064D7CF0E945E1080911F0318
:1038B0008068D1CF80911F038C60CDCF8091200391
:1038C0008360CFCF80911F038E7FC5CF809120036F
:1038D000877FC7CF80911F038D7FBDCF80911F034E
:1038E0008B7FB9CF80911F03877FB5CF8091200355
:1038F0008E7FB7CF809120038D7FB3CF80911F0340
:103900008F7EA9CF80911F038F7DA5CF80911F034C
:103910008F7BA1CF0E945E1080911F038F779BCF7A
:1039200080911F03837F97CF809120038C7F99CF55
:1039300080911F0382FB992790F921E0922790FB49
:1039400082F990FB83F987CF80912003982F90957F
:1039500091708E7F892B90FB81F983CF90911F030B
:10396000892F8F7B96FF806476CF0E945E109091A6
:103970001F03892F97FB87F980586DCF61E08EE098
:1039800090E00E94003360911F037091200384E057
:1039900090E00E941E330E945E1099CD60E0EFCF50
:1039A00090911F03892F8F7E94FF806154CF909157
:1039B0001F03892F8E7F90FF81604DCF9091200350
:1039C000892F877F93FF88604CCF0631FCE71F0764
:1039D000B9F580912103282F2A7A3091260430FFEF
:1039E00004C0482F447409F020E031FF04C0482F80
:1039F000417109F020E032FF04C0482F487809F0F7
:103A000020E033FF03C0827209F020E0992371F0B7
:103A100081E0211101C080E080937E0169E22111E3
:103A200065E384E791E00E94560495CD80917E0184
:103A3000811104C089E20E9449048DCD85E3FBCF4A
:103A400007372CE71207F9F008373CE7130731F185
:103A50009801205E32452032310528F5911135C09C
:103A60000F7181E090E0AC0102C0440F551F0A9530
:103A7000E2F78A01642F83E090E00E940033802FF8
:103A80000E94910A24CD81E0992351F00E946E0A90
:103A900043E062E081E00E942A0A19CD82E0F4CF7F
:103AA0000E944A0AF5CF992381F003305CE715079D
:103AB00009F469C008F04CC001159CE7190709F426
:103AC00055C001301C4709F464C0F7018781908517
:103AD000009709F46CC00E942108182F092FF701E4
:103AE000C580B680B2943FE0B32280919301877085
:103AF00001F1AC2CCC20F1F0892F807F803461F073
:103B000080E2810F8830A8F0892F807E803221F4F6
:103B1000123078F0BB2069F08091200382FF09C049
:103B200082E00E94570A809193018770AA24A3948F
:103B30008111A12C902E92942FE09222FBE0F91596
:103B400008F4A7C0E92DF0E0E15BFC4C0C9468326E
:103B50000B35BCE71B0749F10C35ECE71E07D9F024
:103B60000A351C4709F0B1CF81E01CC00E945E10ED
:103B70002FEF34E34CE0215030404040E1F700C0EB
:103B800000000E94150C6FEF7FEF90E080E00E9434
:103B90001E330E94CF148091200382FB882780F976
:103BA00091E089270E94EE0D90CF80E0FBCF8581C8
:103BB00000811181882369F0C8010E94F70CD82E7A
:103BC000682FC8010E94F009B8018D2D0E94DA0CFF
:103BD00082CFC8010E94BC09D82EF6CF202F2F70AB
:103BE000D22E802F807F19F0D29490EFD922CC2052
:103BF000A9F0DD2059F080E2810F883010F011111A
:103C000007C08D2D0E9481090E94AE0F812F3FC0F9
:103C10008091AB04D82AD092AB04F6CF812F0E94BA
:103C20000415DD20B1F180E2810F883010F0111110
:103C300004C08D2D0E947A0903C08D2D0E94730946
:103C40000E94AE0F26C0302F3F70D32E802F807F72
:103C5000803219F0D29480EFD822112351F0113024
:103C600009F499C0CC2009F4A5C0BB2009F449C0CF
:103C7000CDCF8091200382FD40C0CC20C1F1DD205A
:103C800029F08D2D0E9481090E94AE0F80E00E94D4
:103C9000B515A92DA850BB0B149710F40E94BA04B7
:103CA000812F902F0E94940A8111B7C11092800138
:103CB00010927F01AA20B1F08091930180FD12C083
:103CC000D70115961C928695869586950E946E0A58
:103CD000C7010E9423188091930186958695869549
:103CE0000E944A0A60E0C7010E946C0D00CC80E08F
:103CF0000E940415DD2069F29CCFCC2091F1B11017
:103D000004C08D2D0E94FD14C4CF41E0B41211C037
:103D100080909E018D2D8821D81609F4BACF0E947B
:103D20003A0490939D0180939C01D828D0929E01E3
:103D3000B0CF80912804823008F4ABCFB812A9CF5D
:103D40008D2D0E94FD148D2D0E945E0980919001A1
:103D50009D2D9823D91609F49CCFD82AD092900192
:103D600098CFB1100AC08D2D0E94F6148D2D0E949F
:103D70005E098D2D0E94A8098CCF80912804823085
:103D800008F487CF51E0B51284CF809121038D21B3
:103D900009F47FCFE8CF80912E04CC2021F08B1541
:103DA00008F477CFAECFB81608F073CF8D2D0E94F0
:103DB000F6146FCFBB20D1F380912C0490912D0489
:103DC000193321F080912A0490912B040E94390C20
:103DD000812F0E9404155DCF802F86958695837074
:103DE00069F0813009F055CF812F902F9370C11069
:103DF00002C080E090E00E9470044BCF812F902F92
:103E00009370C11002C080E090E00E94950441CF01
:103E10006C2D812F0E94AF0A3CCF802F837091F5CB
:103E2000C11037CF412F429546954770440F440F3C
:103E3000812F8F70042E01C0880F0A94EAF7212F7A
:103E4000207114FF07C02FE030E001C0220F4A9517
:103E5000EAF72095302F369536953370323069F079
:103E600050F44091A701313029F0822B84230E9425
:103E7000910A0FCF842B822BFACF282B8091A70198
:103E80008227F5CF8695CC2011F0802F8170882372
:103E900009F4FFCE412F429546954770440F440FD9
:103EA000812F8F70042E01C0880F0A94EAF7212F0A
:103EB000207114FF07C02FE030E001C0220F4A95A7
:103EC000EAF72095302F369536953370323069F009
:103ED00050F44091A801313029F0822B84230E94B4
:103EE000270AD7CE842B822BFACF282B8091A801CA
:103EF0008227F5CF802F8F70D82ECC2021F00E9402
:103F00006E0A812FFFCE812F0E94F6148D2D0E9404
:103F10004A0ABFCE123F89F160F4103FB9F0113F59
:103F200081F0CC2009F474C0B11070CE802F8F7155
:103F300028C0133F49F1143FA1F78091200382FD6F
:103F40002FC0802F8F71CC2011F31BC080912E04C5
:103F5000CC2079F0B81608F09CCE202F2F7181E08C
:103F600090E001C0880F2A95EAF79091A80189276F
:103F7000B6CF8B1508F48DCEF0CF802F8F71C11086
:103F8000C6CF0E946E0A85CE80E0CC2009F4A7CF70
:103F900081E0902F9F7101C0880F9A95EAF79FCF1B
:103FA00080912804823008F1CC20A9F090919301EF
:103FB0009770943041F40E948709802F8F710E947E
:103FC0004A0AA12C66CE63E0B816D8F7802F8F710D
:103FD0000E947A0AF6CFB81620F00E94870964E0A2
:103FE000F5CF81E00E94570AECCFCC2031F063E09E
:103FF000802F8F710E947A0A4CCE81E00E94570A6E
:1040000091E09B1508F045CE82E00E94570A41CE10
:10401000B110D2CE802F8F717ACFCC2019F0B11091
:1040200045CE48CEB11042CE20E0F701408151810B
:1040300062817381848195810E94470D809129045A
:1040400083FF34CE80917F0190918001029709F027
:104050002DCE812F0E941D1629CE552021F0FC0166
:10406000808585FF99CAC80197558F3F910511F04A
:1040700008F06EC0C801887F9927892B09F027CAEC
:10408000F801FF2754E0EE0FFF1F5A95E1F79F015B
:104090002A523E4F6901D70115968C91E552FE4F89
:1040A000908180FB90F99083882309F47CCA0E9458
:1040B0003A049093AE018093AD01F60182818F5F47
:1040C00082838091AB0490912103892B838380911B
:1040D0009E0184834681578166857785C6010E944B
:1040E000C704D60115968C9181FF5ACA90E080E0F2
:1040F00090933F04809340042BC080917C01909169
:104100007D010817190781F410927D0110927C013E
:104110001092000410920104109202041092030401
:1041200010920804109207048091090490910A04E7
:10413000009709F498CFE8E06E16710408F021CAE0
:10414000642D0E94EB05811103C081E00E943715A8
:104150008091270480FF7ECA0E943A046C01F70117
:104160008581882309F44BCA8091110182FF08C020
:104170002FEA31E040E0B60190E080E00E94741741
:104180000431FCE71F0709F436CA05312CE7120792
:1041900009F426CA03313CE7130729F48091110181
:1041A000816080931101C80190528115904308F0FD
:1041B00034CA1092450310924403F7019581992364
:1041C00009F403CC10923E04980130572332310594
:1041D00008F0FBCB84E090E00E94EA329093200349
:1041E00080931F03F801E150F047E232F10508F037
:1041F0002FCBE55AFC4C0C9468328114910409F0E1
:10420000F2C8512C912C812C80E00E943715D0925D
:104210000A04C092090481E0809306048FE08A9D1D
:10422000F0018B9DF00D1124E955FD4F85818093A0
:10423000040451100EC08114910459F080819181C1
:104240009C0124503109213A310508F075C90E94BA
:1042500049048FE08A9DF0018B9DF00D1124E955F2
:10426000FD4FC680D780C6019A9581159F4110F4F5
:10427000E0EEDE2299249394C60101978F339E4786
:1042800008F0912C8FE08A9DD0018B9DB00D1124F8
:10429000A955BD4F1996ED91FC911A97309731F0C1
:1042A0001B966D917C9181E0099598229920B1F03F
:1042B0008FE08A9DF0018B9DF00D1124E955FD4F93
:1042C000868197810E94870B80930504C60128E0B0
:1042D0006216710408F033C90E949A050E94AE0F5D
:1042E00037C90930FEE71F0711F00C945B197DE810
:1042F000C72E71E0D72EEAE0BE2EF6018491882306
:1043000009F4E5C8813009F0C4C886010F5F1F4F6A
:10431000F8018491813009F081C80F5F1F4FF801C7
:1043200084910E941D166801BFEFCB1ADB0AE5CF0E
:1043300009302EE7120709F4CAC80C945B19B0E0E3
:10434000A0E0E5EAF1E20C94803280918D01807F5B
:1043500009F054C080918C01882309F44FC0E0918A
:10436000AA0489E0D82E809161048E1709F446C012
:104370000E2F10E0ED9DF0011124EE59FB4F8481CA
:10438000882309F440C0D09EE001D19ED00D1124B5
:10439000FE01EE59FB4F918180918801981333C043
:1043A00090818091870198132EC0858181112BC047
:1043B000E280F3808091890190918A01E81AF90ADC
:1043C00060E087E891E00E946C0D67E871E00E9470
:1043D000D00DE816F906B8F480918D018F708061D8
:1043E00080938D01C859DB4F88818F7080618883ED
:1043F00087E891E00E9423180E94B209CDB7DEB78A
:10440000E7E00C949C32F8013196E770ACCFA8E15C
:10441000B0E0EDE0F2E20C9478328C0186E0F80135
:10442000DE01539601900D928A95E1F7D80114961A
:104430007C9014971596EC9087E8A82E81E0B82E12
:1044400080918B0181112AC0711003C0FF24F39465
:104450001CC0EE20F9F0C8010E94330DF82E88230D
:10446000C9F089E0F801A7E8B1E001900D928A95C2
:10447000E1F780918B01813031F480918701909137
:1044800088010E94260D0E949F218F2D6896EFE0E3
:104490000C949432C8010E942318D8CFF8015080A0
:1044A0006180C280D38060E087E891E00E946C0D5B
:1044B000F0908C018091890190918A014601881ABF
:1044C000990A60E087E891E0FF2009F428C10E9482
:1044D0006C0D67E871E00E94D00D8816990608F00F
:1044E000D1C0772009F4B2CF80918D01382F307F71
:1044F00020918801D80111969C911197311171C0BA
:1045000029131FC0209187019C9129131AC0409143
:104510008E0150918F0117962D913C9142175307B0
:1045200081F4E11054C08F70806180938D0187E821
:1045300091E00E94231880918D01F8018683F12C6F
:10454000A4CFE11044C0662D852D0E94A502E82E5F
:10455000882381F08091290480FFF1CF87E891E0E2
:104560000E94231889E0E7E8F1E0DF011D928A95B7
:10457000E9F7E5CF5B8A6C8A8B899C890E94260DBE
:10458000292F22952F70243058F49F70223088F004
:10459000992399F0F8019681907F79F4FE2C75CFDC
:1045A0002A5F2F70223068F0C8010E942318EF2C78
:1045B000F5CF992311F0882389F3805E883070F35A
:1045C000F3CF803F58F3815F833070F7E7CF80915E
:1045D0008D01816080938D018091290481FDAFCF91
:1045E000BDCF291320C0209187019C9129131BC0A6
:1045F00040918E0150918F0117962D913C91189703
:104600004217530781F4E1100EC016968C93C8012F
:104610000E94231889E0F801A7E8B1E001900D920B
:104620008A95E1F732CFC8010E94330D882309F43F
:1046300031CFEE2009F42ECF80918D018032B8F079
:1046400020918701309188013B872A87DD86CC86BF
:1046500090918B019E871F86888B80918E0190910F
:104660008F019A8B898BCE010A960E94231889E0CC
:10467000F801A7E8B1E001900D928A95E1F70E9458
:104680009F21E4CE80918D01982F907F09F466CF11
:10469000772009F4DBCE20918801F801918129135C
:1046A0001AC0209187019081291315C040918E0175
:1046B00050918F01278130854217530761F4E11033
:1046C0000AC08683C8010E94231889E0D5011D9283
:1046D0008A95E9F7DACEC8010E94330D882309F4E0
:1046E000D9CEEE2009F4D6CE80918D01803208F427
:1046F000BECF20918701309188013A832983DC82E3
:10470000CB8290918B019D831E828F8380918E013D
:1047100090918F0199878887CE010196A6CF0E943C
:104720006C0D67E871E00E94D00D8816990608F0BC
:1047300055C0772009F48ACEFE2CEE2009F4AACECB
:1047400090918801F801818198133AC09091870176
:104750008081981335C020918E0130918F0187811F
:1047600090852817390761F5A0908901B0908A01DA
:1047700060E087E891E00E946C0D8091290482FD41
:1047800049CFCA18DB088091240490912504C816EB
:10479000D90608F03FCF80918D0180FD3BCF982F47
:1047A000907F09F437CFD80116968C931697903FD7
:1047B00009F42DCF982F907F905F8F70892B25CF94
:1047C000C8010E94330D811152CF80918D0181600B
:1047D00080938D01C8010E94231857CE89E0F5010E
:1047E00011928A95E9F751CEA2E1B0E0EAEFF3E247
:1047F0000C9483320A871B872C873D874E875F87FF
:10480000688B798B8A8BCE010A960E9407228111D0
:104810000CC089E0FE013A96DE01119601900D92DE
:104820008A95E1F78E8581110BC019E08091AA0469
:1048300090916104891331C06296E4E00C949F3238
:104840002091610430E0C901019687709927409159
:10485000AA044817190699F099E0929FD001939FF6
:10486000B00D1124AE59BB4FFE01319601900D924F
:104870009A95E1F7809361040E94B209D6CF0E9415
:104880005E10109261041092AA0489E0E7E8F1E05A
:10489000DF011D928A95E9F7C8CF819FC0011124DD
:1048A0008E599B4F0E940722882331F28091AA04DF
:1048B00090E00196877099278093AA04B7CFEF9272
:1048C000FF920F931F93CF93DF93809181038823EF
:1048D00061F0E09148038DE0F82E80918103E817A4
:1048E00048F01092810310924803CDB7DEB7E6E09E
:1048F0000C949D32EE24E394EE0EE0924803CE2F0A
:10490000D0E0EF9DF0011124EE57FC4F8481882305
:10491000E9F087819085892B21F481859285019624
:1049200059F400811181228133814481558166814E
:10493000778180850E94F423FC9EF001FD9EF00D9E
:104940001124EE57FC4F14821092AB04EE2DC5CF0C
:104950001092F5031092F403109212018091F30368
:104960008093F2030E9439060E945F240895B0E00C
:10497000A0E0EDEBF4E20C947632C091F20397E004
:10498000992E01E010E02DE0322E34E0432E552424
:1049900053948091F3038C1309C00E945F240E94FA
:1049A0003906CDB7DEB7E1E10C949232D0E0FE01DA
:1049B000EE0FFF1FE651FC4F80819181989ED00140
:1049C000999EB00D1124A75BBC4F14962C9114979F
:1049D000211159C060908103E2E8F3E030E020E06B
:1049E000812C5D01261508F04CC0E384F484D501C8
:1049F000CD90DC906FEF7FEF712C472D50E0DA0106
:104A0000AA0FBB1FAC0DBD1D0D90BC91A02D109722
:104A100031F0EA16FB0609F4BA017394EECF6F3F4A
:104A20007607A9F1D80102C0AA0FBB1F6A95E2F769
:104A30008A2AB801072C02C0660F771F0A94E2F792
:104A4000AB01415051098416150601F5329EF00163
:104A5000339EF00D1124EE57FC4F989ED001999E85
:104A6000B00D1124A75BBC4F12962D913C9113976A
:104A7000308727834482108211829287818715961E
:104A80005C920E940B062196C37083CF14822F5F25
:104A90003F4F3D96A7CFAEE1B0E0E1E5F5E20C94E3
:104AA00075324B8B5C8B6D8B7E8B8F8B988F8823B5
:104AB00049F080917F01909180010196909380014F
:104AC00080937F01888D81111092AB04188A198A16
:104AD0001A8A86E0FE017396DE011A9601900D9205
:104AE0008A95E1F78091200382FF1EC080910E0419
:104AF00090910F04892BC1F00E943A0420919101FA
:104B000030919201821B930B20910E0430910F047F
:104B10008217930720F08091930182FFEEC10E94DB
:104B20008E0981110E943F098E858823B1F061E0D2
:104B3000CE010A960E946C0D61E0CE010A960E9499
:104B40006C0D6C018F8520E5C2162CE7D20689F426
:104B5000882329F181E0809312010A851B852C8529
:104B60003D854E855F85688979898A890E94F4230D
:104B7000CFC031E5C3163CE7D30629F4882379F08A
:104B80000E94A824EACF42E5C4164CE7D40639F4C3
:104B9000882329F0809112018111F2CFDBCF99E4B3
:104BA000E92E93E0F92E412CB12CA12C66246394BC
:104BB000712CBE016F5F7F4F7A8F698F22242394FF
:104BC000F7014081518188248A94982C20E0822F1B
:104BD00090E0FC01EE0FFF1FE40FF51F6081718173
:104BE0006115710531F0C616D70609F44C012F5F27
:104BF000EECF80E0FFEF8F169F0609F44AC0F70161
:104C0000448130901201832D411180E0F82FF17022
:104C10003F2EF701558086819F85992309F4F9C0BD
:104C2000332009F4F6C0009122041091230451109E
:104C300013C0A301082C01C0440F0A94EAF7842B87
:104C4000868380914603909147038017910720F453
:104C50001093470300934603C30102C0880F991FB6
:104C60002A95E2F70197F70126812817190609F01E
:104C70006EC08091F4039091F503009709F44CC045
:104C80000E941F040817190708F046C0F701248284
:104C900081E0482AFFEFAF1ABF0A27E0E20EF11CBD
:104CA00038E0A316B10409F08BCF8F85882309F46F
:104CB00010C1442009F40DC10E943A049093F503F9
:104CC0008093F40380918103883010F591E0980F70
:104CD0009093810399E0FE013A96DE0111960190CE
:104CE0000D929A95E1F74DE0849FC00111248E57F3
:104CF0009C4F29E0FE013196DC0101900D922A952E
:104D0000E1F72FEF3FEFFC0132872187D486C3867E
:104D10006E96E2E10C9491328091F2035091F3038C
:104D2000982FF0E0E0E0851314C09093F203EE16A4
:104D3000FF0669F090E0FC01EE0FFF1FE651FC4F0B
:104D4000B182A0820196837099278093F303832D0B
:104D5000A0CF882E912CF401EE0FFF1FE651FC4FDF
:104D600020813181F7E0F29FD001F39FB00D112433
:104D7000A75BBC4F2D913C9111973E8F2D8F40E04A
:104D800020E030E0E32FF0E0EE0FFF1F6D8D7E8D11
:104D9000E60FF71F0081118101151105E1F0F70100
:104DA0000190F081E02DFC8FEB8F20E005C006170D
:104DB000170709F4432D2F5FE22FF0E0EE0FFF1FDE
:104DC0006B8D7C8DE60FF71F608171816115710518
:104DD00071F73F5FD7CF4423C9F0F701231708F0DD
:104DE000FD012482EE16FF0621F49093F203342E87
:104DF000AECF981305C0AE17BF0711F49F5F937035
:104E000094012F5F3F4F822F83708DCFF0E0E0E061
:104E1000F7CF90E0511020C0B30102C0660F771F9A
:104E20002A95E2F79B01215031098217930731F44B
:104E3000442309F44CC0C5010E940B06C301082C91
:104E400001C0880F0A94EAF7982F9095F7018681A0
:104E500089238683352C7BCFAC01082C02C0559565
:104E600047950A94E2F7BA01617077279C012150B7
:104E7000310982239323892B31F5672B21F1F70127
:104E800082819381892BE1F0E98DFA8D27E01192DF
:104E90002A95E9F70E943A04282F8B839C8334E0FB
:104EA0003D83F70182819381782F888799870981D3
:104EB0001A813C8144E05E816F81892F0E94F42336
:104EC000F7011582BBCFF42FF1705F2EB7CF532CB3
:104ED000B5CF9091F2038091F303981729F00E94C7
:104EE000B724411015CF39CE0E945F241092F503EC
:104EF0001092F4030E943906F4CF82E00E94570A10
:104F00000ECEA6E0B0E0E7E8F7E20C94853290938D
:104F1000C3018093C201811520E2920730F40E9400
:104F20009D152696E2E00C94A13280EF89838A8356
:104F30000E943A048160682F9C838B8349815A8147
:104F40007C8181E090E00E944B25EBCF0F931F9373
:104F5000CF93DF938C01EB016CEC71E08C2F0E94FE
:104F6000BC0D892BA1F480912A0490912B040E94FE
:104F7000390CDD27CC53DE4F8881F801128218826C
:104F80008330F1F048F4813059F0823081F0DF91C4
:104F9000CF911F910F9108958430B9F08530B9F702
:104FA0008091CC019091CD01009789F306C080914A
:104FB000CE019091CF01009799F30E948127E7CF0E
:104FC0008091D0019091D101F6CF8091D201909142
:104FD000D301009791F72091CC013091CD018091C0
:104FE000CE019091CF0121153105F1F2009729F7FB
:104FF000C901E3CFA6E0B0E0E0E0F8E20C9485322E
:105000009093C3018093C201811520E2920730F48E
:105010000E944C172696E2E00C94A13280EF89831F
:105020008A830E943A048160682F9C838B83498124
:105030005A817C8181E091E00E944B25EBCFCF9398
:10504000DF93EC010E94FA2780912A0490912B04AF
:105050000E94390CCE010E948127DF91CF910895E3
:105060000F931F93CF93DF938C01862F6CEC71E02D
:105070000E94BC0D892BB1F4C091CC01D091CD011F
:10508000209781F0F8018281833051F4CE010E9493
:105090001F28CE010E941F28CE010E941F2802C097
:1050A0008430D0F7DF91CF911F910F9108950F9326
:1050B0001F93CF93DF938C01EB016CEC71E08C2F8D
:1050C0000E94BC0D892B09F05CC0FE01FF27D801AE
:1050D00012968C911297EC53FE4F8130B9F41596CD
:1050E0009C9192FF02C080830AC090FFFCCF82E0B7
:1050F00080838091CE019091CF010097B9F4809187
:10510000CC019091CD010097E1F110C08230B9F54A
:1051100015968C9182FD28C080FD0BC083E08083B2
:105120008091D0019091D101009701F10E94FA275E
:1051300028C084E080838091D2019091D3010097B0
:10514000A9F78091CC019091CD010097F9F00E94D0
:105150001F288091CE019091CF01009739F780915F
:10516000CC019091CD01E2CF85E080838091CC018C
:105170009091CD01009729F00E941F28F0CF86E082
:105180008083DF91CF911F910F9108958091CE017F
:105190009091CF01B8CFA6E0B0E0E1EDF8E20C9439
:1051A00083320E943A048C0180919F019091A0016A
:1051B0008017910781F019821A820E943A04682FA1
:1051C00049815A81792F80E090E00E944B2510930D
:1051D000A00100939F012696E4E00C949F321F9259
:1051E0000F920FB60F9211242F933F934F935F931B
:1051F0006F937F938F939F93AF93BF93CF93DF93DF
:10520000EF93FF93D091E900DF708091EC00C82FFD
:10521000C17080FDC0E81092E9008091F000877FA6
:105220008093F00078940E9485101092E90080919C
:10523000F00088608093F000CD2BCF70C093E90020
:10524000FF91EF91DF91CF91BF91AF919F918F919E
:105250007F916F915F914F913F912F910F900FBE72
:105260000F901F9018951F920F920FB60F92112456
:105270002F933F934F935F936F937F938F939F935E
:10528000AF93BF93EF93FF938091E10082FF09C03A
:105290008091E20082FF05C08091E1008B7F8093C6
:1052A000E1008091DA0080FF24C08091D80080FF67
:1052B00020C08091DA008E7F8093DA008091D9003F
:1052C00080FFAAC080E189BD82E189BD09B400FEEA
:1052D000FDCF81E08093570480914C04811109C077
:1052E0000E94C4020E9465038091E2008460809362
:1052F000E2008091E10080FF1AC08091E20080FF0F
:1053000016C08091E2008E7F8093E2008091E200DF
:1053100080618093E2008091D80080628093D80001
:1053200019BC85E08093570483E080931A01809133
:10533000E10084FF30C08091E20084FF2CC080E156
:1053400089BD82E189BD99B5892F817090FFFBCF1E
:105350009091D8009F7D9093D8009091E1009F7E1E
:105360009093E1009091E2009F7E9093E2009091F3
:10537000E20091609093E20090915804992309F41F
:1053800051C094E09093570490915704943009F4DD
:1053900082E080931A018091E10083FF2CC080910C
:1053A000E20083FF28C08091E100877F8093E100C5
:1053B00082E080935704109258048091E1008E7F20
:1053C0008093E1008091E2008E7F8093E2008091E3
:1053D000E20080618093E20042E060E080E00E94B1
:1053E00033038091F00088608093F00081E0809327
:1053F0001A0180931901FF91EF91BF91AF919F9195
:105400008F917F916F915F914F913F912F910F906D
:105410000FBE0F901F90189519BC10925704109250
:105420004C0467CF9091E30097FD02C0982FAACF5C
:1054300093E0A8CF78941F921FB61F9211248F93E8
:105440009F93AF93BF938091480490914904A0919A
:105450004A04B0914B040196A11DB11D80934804EC
:1054600090934904A0934A04B0934B04BF91AF9129
:105470009F918F911F901FBE1F9018951F921FB66E
:105480001F9211248F939F93AF93BF9380914704F2
:10549000811113C08091480490914904A0914A045D
:1054A000B0914B044196A11DB11D80934804909387
:1054B0004904A0934A04B0934B04BF91AF919F91CC
:1054C0008F911F901FBE1F901895CDB7DEB7EF9735
:1054D0000FB6F894DEBF0FBECDBF85B7806885BF1D
:1054E00085B7806885BF84B7877F84BF0FB6F8947F
:1054F000A8958091600088618093600010926000A0
:105500000FBE80E890E00FB6F8948093610090930E
:1055100061000FBE81E080931A0187E197E09093CC
:105520007301809372010E94F2060E94BA0E0E94DB
:10553000360E0E94970D0E94C4020E94650380915E
:10554000E20084608093E20078948091570488237D
:10555000A1F01091E9001F709091EC00892F8170EB
:1055600090FD80E8182B1092E9008091E80083FDFF
:105570000E9485101F701093E90082E084BD93E0C3
:1055800095BD9AEF97BD80936E000E94920C811199
:1055900002C00E94441486E30E94190785E30E941A
:1055A000190784E30E94190782E90E94190781E91B
:1055B0000E94190780E90E94190783E0EDEBF1E0F2
:1055C000DF01282F1D922A95E9F7E4EAF1E0DF01D7
:1055D0001D928A95E9F790E080E00E94EA32853ECC
:1055E0009E4F21F40E94920C811163C065EE7EEF04
:1055F00090E080E00E941E3360E082E090E00E9434
:10560000003381E08093A70161E083E090E00E9495
:10561000003360E074E184E090E00E941E3360E0BB
:1056200086E090E00E94003360E087E090E00E9416
:10563000003340E050E0BA0188E090E00E9412336D
:1056400060E083E290E00E94003360E08CE090E054
:105650000E94003360E08DE090E00E9400331982E8
:105660001A821B821C821D821E821F82188648E0BD
:1056700050E067E170E0CE0101960E94F03240E018
:1056800050E0BA018FE190E00E94123380E00E9466
:10569000430C0E94441440E050E0BA018FE090E0D7
:1056A0000E94123340E050E0BA0183E190E00E9492
:1056B000123382E090E00E94E2328093A90184E0FC
:1056C00090E00E94EA329093200380931F030E948F
:1056D000FE0EEFEFF6E721E0E150F0402040E1F769
:1056E00000C000000E94FE0E8091BD0180FF08C036
:1056F0006FEF7FEF90E080E00E941E330E94150C58
:1057000083E090E00E94E2320E94910A81E091E001
:105710009093440480934304CE018B969BAF8AAF51
:105720008E010F5F1F4FDE011396BDAFACAF85E654
:10573000682E83E0782E80915704A0E4FA2EB2E11F
:10574000EB2E853009F4D3C10E94FE0E9091BD016D
:105750008091AA019813D5C19091AB018091BE01AF
:105760009813CFC19091AC018091BF019813C9C12A
:105770000E94CB288091070490910804892B09F49A
:105780003EC04091FC035091FD036091FE03709177
:10579000FF032FB7F8948091480490914904A09199
:1057A0004A04B0914B042FBF841B950BA60BB70B7B
:1057B0004091F8035091F9036091FA037091FB0353
:1057C00084179507A607B707D0F08091070490913A
:1057D00008040E944C1710920804109207041092BB
:1057E000FC031092FD031092FE031092FF0310922F
:1057F000F8031092F9031092FA031092FB03C09081
:105800003F04D0904004C114D10469F18091AD01EE
:105810009091AE010E941F047C0189E0AAADBBAD4E
:105820001D928A95E9F7BE01655D7F4FC6010E9412
:10583000D00D8E159F05B8F420913F04309140049F
:10584000C9019927287F3327232B09F096C174E0DB
:10585000880F991F7A95E1F78A529E4FFC012581A6
:1058600022FF0E94181080911201882301F180917B
:10587000F4039091F5030097D1F00E941F0420914A
:105880004603309147032817390788F49091F203B3
:105890008091F303981709F473C10E94B724109202
:1058A0004703109246031092F5031092F40380917F
:1058B000270480FF1EC08091110182FF1AC00E9440
:1058C0003A042091420330914303AC01421B530B35
:1058D00020910F01309110014217530750F02FEA29
:1058E00031E041E0BC0180914403909145030E9466
:1058F000741786E0E6E3F4E0D80101900D928A95F2
:10590000E1F7A0903704D0903804E0903904C090BB
:105910003A04F0903B04109238041092390410922B
:105920003A0410923B048E2D8D2991F0809134041D
:10593000909135040E941F04AC0190910B049923AF
:1059400009F427C180910D018417150608F42FC1B1
:105950008C2D8F2991F080913204909133040E9414
:105960001F04AC0190913004992309F45CC180912B
:105970000B018417150608F464C1809137048A115D
:1059800017C080913804882311F08D1111C0209127
:105990003904222311F02E110BC090913B0499235E
:1059A00011F09F1105C030913A04332309F45BC50F
:1059B0000E94CD0486E0F801A6E3B4E001900D92C8
:1059C0008A95E1F70E94BA049091B801891721F0F5
:1059D0008093B8010E942E0480915704843009F00E
:1059E000AACE83E08093E9008091E80082FFA3CEF5
:1059F0008091E80090E085FF0AC00E94E30260E227
:105A0000C62ED12C7801882309F461C191E08091E0
:105A1000E8008B778093E800992309F48CCEE0901E
:105A2000C001F090C1018981E114F10409F45DC164
:105A30008E3F09F0E1C18A81833020F085508330A8
:105A400008F0DAC1EA81EE3008F0D6C1F0E0E358A0
:105A5000FC4C0C94683280915704843019F11092F8
:105A60004704E8E1F0E00FB6F894A895E0936000F1
:105A70000FBEF092600083B7817F846083BF83B7DD
:105A8000816083BF7894889583B78E7F83BF0FB67C
:105A9000F894A895809160008861809360001092CE
:105AA00060000FBE0E94FE0E8091BD019091BE016C
:105AB000892B9091BF01892BD1F0809156048823C6
:105AC000B1F0F0E1F9BDE9BC09B400FEFDCF809171
:105AD000D8008F7D8093D8008091E0008260809311
