:100000000C9417050C944F050C944F050C944F0558
:100010000C944F050C944F050C944F050C944F0510
:100020000C944F050C944F050C94742A0C94482B97
:100030000C942E240C944F050C944F050C944F05F2
:100040000C944F050C944F050C944F050C944F05E0
:100050000C944F050C94A6240C944F050C944F055A
:100060000C944F050C944F050C944F050C944F05C0
:100070000C944F050C944F050C944F050C944F05B0
:100080000C944F050C944F050C944F050C944F05A0
:100090000C944F050C944F050C944F050C944F0590
:1000A0000C944F050C944F050C944F0562696E65D6
:1000B0007061642F626E3030333A62696E657061D0
:1000C00064204020302E32382E302D32322D6738C9
:1000D0003466396236205B323032352D30332D3183
:1000E000332D32333A31313A34375D0027001E0068
:1000F0001F000000000000000000000000000000E1
:100100000000000044454255473A2064697361622B
:100110006C65642E0A0044454255473A20656E617D
:10012000626C65642E0A006C65645F7461736B3A7F
:1001300020253032580A004F6E6573686F743A207C
:100140006163746976653A2025640A000A002530E7
:100150003862003A200025303258000A722F63209E
:1001600030313233343536370A00313A0964656C40
:100170006179282A31306D73293A2025750A323A7F
:1001800009696E74657276616C286D73293A202551
:10019000750A333A096D61785F73706565643A205A
:1001A00025750A343A0974696D655F746F5F6D6116
:1001B000783A2025750A353A09776865656C5F6D70
:1001C00061785F73706565643A2025750A363A096F
:1001D000776865656C5F74696D655F746F5F6D618D
:1001E000783A2025750A00703A097072696E742099
:1001F00076616C7565730A643A0973657420646589
:100200006661756C74730A75703A092B310A646EF5
:100210003A092D310A6C743A092B31300A72743A5A
:10022000092D31300A4553432F713A0971756974AC
:100230000A0A7370656564203D2064656C746120F2
:100240002A206D61785F7370656564202A202872AA
:100250006570656174202F2074696D655F746F5FD0
:100260006D6178290A77686572652064656C7461D0
:100270003A20637572736F723D25642C2077686530
:10028000656C3D25640A53656520687474703A2F67
:100290002F656E2E77696B6970656469612E6F7268
:1002A000672F77696B692F4D6F7573655F6B657924
:1002B000730A004D3E20004D25753A25733E2000FF
:1002C0003F0A003D2025750A003F0A00646566610B
:1002D000756C74730A0025750A003F0A000A092D1F
:1002E0002056616C756573202D0A00710A000A0999
:1002F0002D204D6F7573656B6579202D0A003F00C9
:10030000433E20004C25640A000A092D20537461E5
:10031000747573202D0A686F73745F6B6579626FF3
:100320006172645F6C65647328293A202530325805
:100330000A6B6579626F6172645F70726F746F636C
:100340006F6C3A20253032580A6B6579626F6172A2
:10035000645F69646C653A20253032580A74696DAF
:1003600065725F72656164333228293A202530381E
:100370006C580A002573000A092D20436F6E736FB5
:100380006C65202D0A4553432F713A0971756974C4
:100390000A6D3A096D6F7573656B65790A000A0914
:1003A0002D204D61676963202D0A443A0944656236
:1003B0007567204D65737361676520546F67676C5F
:1003C000650A583A094D617472697820446562750E
:1003D00067204D6F646520546F67676C65202D2022
:1003E00053686F77206B65797072657373657320DE
:1003F000696E206D617472697820677269640A4B56
:100400003A094B6579626F61726420446562756771
:1004100020546F67676C65202D2053686F77206BC1
:1004200065797072657373207265706F72740A4DAE
:100430003A094465627567204D6F75736520546F86
:1004400067676C650A563A0956657273696F6E0A7A
:10045000533A095374617475730A433A09416374DA
:10046000697661746520436F6E736F6C65204D6FA4
:1004700064650A46312D4631303A09537769746311
:100480006820746F204C6179657220302D392028E6
:10049000463130203D204C30290A302D393A09535D
:1004A000776974636820746F204C617965722030BD
:1004B0002D390A47524156453A09537769746368A2
:1004C00020746F204C6179657220302028616C7433
:1004D00065726E617465290A423A094A756D702029
:1004E000746F20426F6F746C6F616465720A45535C
:1004F000433A094A756D7020746F20426F6F746CB7
:100500006F616465722028616C7465726E617465D8
:10051000290A453A095072696E7420454550524F78
:100520004D2053657474696E67730A4241434B539F
:10053000504143453A09436C65617220454550522C
:100540004F4D0A006B65796D61705F636F6E666910
:10055000672E7261773A20253032580A2E73776100
:10056000705F636F6E74726F6C5F636170736C6FDA
:10057000636B3A2025750A2E636170736C6F636B31
:100580005F746F5F636F6E74726F6C3A2025750ACB
:100590002E737761705F6C63746C5F6C6775693A1A
:1005A0002025750A2E737761705F7263746C5F72B9
:1005B0006775693A2025750A2E737761705F6C61E3
:1005C0006C745F6C6775693A2025750A2E737761C4
:1005D000705F72616C745F726775693A2025750A85
:1005E0002E6E6F5F6775693A2025750A2E737761E5
:1005F000705F67726176655F6573633A2025750A7F
:100600002E737761705F6261636B736C6173685F97
:100610006261636B73706163653A2025750A2E6EA3
:100620006B726F3A2025750A2E737761705F657360
:10063000636170655F636170736C6F636B3A2025F3
:10064000750A0064656275675F636F6E6669672E21
:100650007261773A20253032580A2E656E61626CDD
:10066000653A2025750A2E6D61747269783A2025E5
:10067000750A2E6B6579626F6172643A2025750A7E
:100680002E6D6F7573653A2025750A006565636F79
:100690006E6669673A0A64656661756C745F6C6161
:1006A0007965723A2025750A003F000A6D6F7573EF
:1006B000653A206F66660A000A6D6F7573653A20A9
:1006C0006F6E0A000A6B6579626F6172643A206F1F
:1006D00066660A000A6B6579626F6172643A206F20
:1006E0006E0A000A6D61747269783A206F66660A54
:1006F000000A6D61747269783A206F6E0A000A64AC
:10070000656275673A206F66660A000A64656275FD
:10071000673A206F6E0A000A0A4A756D70696E6743
:1007200020746F20626F6F746C6F616465722E2E1F
:100730002E2000433E2000436C656172696E672085
:10074000454550524F4D0A00290A002575002F00DB
:100750002575005D28002564002000256400200028
:1007600025640020002564007C0025303258006D8F
:100770006F7573656B6579205B62746E7C78207928
:10078000207620685D287265702F61636C293A209D
:100790005B0000000000000000002A2B2800000081
:1007A0000000000000000000000000000029000020
:1007B00000002C1E3420212224342627252E362DFD
:1007C0003738271E1F202122232425263333362E97
:1007D00037381F0405060708090A0B0C0D0E0F1009
:1007E0001112131415161718191A1B1C1D2F31304E
:1007F000232D350405060708090A0B0C0D0E0F10F2
:100800001112131415161718191A1B1C1D2F31302D
:10081000354C000000000000000000000000000057
:1008200000000000000000000000000000000000C8
:100830000000000000007E0F00D4FFFFFFC7000093
:1008400000780A002530325820006B6579626F61AC
:1008500072645F7265706F72743A2025303258206E
:100860007C200073757370656E64696E67206B65BC
:1008700079626F6172640D0A005B575D005B535DC6
:10088000005B525D005B445D005B435D000C034216
:10089000004E0030003000330000001003420069B9
:1008A000006E006500700061006400000004030930
:1008B0000409027400040100A0FA09040000010305
:1008C00001010009211101000122440007058103F3
:1008D00008000109040100020300000009211101C0
:1008E00000012222000705820320000107050303FF
:1008F0002000010904020001030000000921110188
:100900000001227B00070584032000010904030085
:100910000103000000092111010001221500070553
:1009200085032000011201000200000008494287EF
:10093000420100010200010631FF0974A10109759D
:10094000150026FF00952075088102C00660FF098A
:1009500061A1010962150026FF009520750881023A
:100960000963150026FF00952075089102C0050156
:100970000902A10185020901A1000509190129083F
:10098000150025019508750181020501093009311D
:100990001581257F95027508810609381581257F07
:1009A000950175088106050C0A38021581257F9589
:1009B0000175088106C0C005010980A101850319E0
:1009C000012AB700150126B700950175108100C0F6
:1009D000050C0901A101850419012AA002150126AF
:1009E000A002950175108100C005010906A101054D
:1009F0000719E029E7150025019508750181029581
:100A000001750881010507190029FF150026FF005F
:100A100095067508810005081901290515002501AD
:100A2000950575019102950175039101C00011248E
:100A30001FBECFEFDAE0DEBFCDBF04B603FE18C0A5
:100A40008091780390917903A0917A03B0917B0310
:100A50008730904BA740B04B59F410927803109216
:100A6000790310927A0310927B03E0E0F8E3099592
:100A700012E0A0E0B1E0E4E4FCE502C005900D92D4
:100A8000A83CB107D9F723E0A8ECB2E001C01D9261
:100A9000A837B207E1F70E94C5150C94CE2D0C942F
:100AA0000000FF93EF93E091C802F091C9023097E4
:100AB00009F00995EF91FF910895FC01859180302F
:100AC00011F0EFDFFBCF0895FF27E0E230E247FFB0
:100AD0000CC0419597FF09C0EDE260957095809537
:100AE0009095611D711D811D911D27FF02C02195EB
:100AF00030E350E2AA27660F771F881F991FAA1FAD
:100B0000A41710F0A41B63955A95A9F7AA3008F012
:100B1000A95FA05DAF93F3956115710581059105FE
:100B200041F7ED3211F4EF93F395F21718F43F9378
:100B3000F395FBCF8F91B5DFFA95E1F70895E99131
:100B4000F9918591803021F0853219F0AADFF9CF33
:100B5000089520E0E89455915532C1F3503311F4D3
:100B6000689455915A3348F4505390F3220F022E53
:100B7000220F220F200D250FF4CF0EF4219589911D
:100B80009991533619F3533729F1533559F1BC0173
:100B900088279927E8945C3621F489919991689483
:100BA0005591543639F446EF7EF077FF0DC08FEF44
:100BB0009FEF0AC055374AE039F0583540E121F03F
:100BC000523642E009F00895FF93EF937DDFEF91F5
:100BD000FF91B7CFFF93EF93FC0181918030B9F380
:100BE00060DFFBCFFF93EF9368DFF1CFDF93CF930D
:100BF000CDB7DEB72596A3DFCF91DF910895893079
:100C00009E4759F4FB018581882341F060E08CEA1E
:100C100090E00E94F71F80E0089581E008950E940F
:100C2000FF050895843090F4611110C0433070F4D2
:100C3000E42FF0E093E0899FE00DF11D1124EE0F09
:100C4000FF1FE451FF4F85919491089581E090E05A
:100C5000089581E008950E94290608950E942906BA
:100C6000089581E008950E94290608950E940F06C4
:100C70000895089508950E943906089508950895E5
:100C8000A6E0B0E0E6E4F6E00C942A2D49835A830E
:100C90009E833091CF0289819A8131111AC03E81A1
:100CA000332399F0222389F00E94960C182F682F85
:100CB00089819A810E947B0C69817A81812F0E94AF
:100CC0009D132696E3E00C94462D0E94880C182F65
:100CD000F3CF0E94960C69817A81F1CFFC01262F17
:100CE0004081518162817381848195810E94400697
:100CF0000895CF93DF93EC0161E00E946E06BE0180
:100D00000E942B06882359F061E0CE010E946E06F6
:100D1000BE010E942E068170DF91CF91089580E080
:100D2000FACF0F931F93CF93DF93EC0160E00E9403
:100D30006E068C01BE010E943A06BE01C8010E94E7
:100D40003B06DF91CF911F910F91089591E001C073
:100D5000990F8A95EAF7892F0E94C20B0895CF93C5
:100D6000C82F81E00C2E01C0880F0A94EAF70E9478
:100D700007118C2F0E94A606CF91089581E0089557
:100D80000E94BE0608950E94BE060895CF93C82F04
:100D90000E94770B8C2F0E94C0068C2F0E94C306E6
:100DA0002FEF84E39CE0215080409040E1F700C0A9
:100DB0000000CF91089581E00E94C6060E94CA24D7
:100DC000089580E00E94C6060E94EE2408950F93C5
:100DD0001F93CF93DF938C0161E00E946E06EC01BC
:100DE000B8010E943306811106C080E0DF91CF91E7
:100DF0001F910F910895B801CE010E9436068823F5
:100E0000A1F3B801CE010E946221882371F3B801D9
:100E1000CE010E946F20882341F3B801CE010E94C9
:100E2000E11A882311F3B801CE010E94B71A882372
:100E3000E1F2B801CE010E94B3208823B1F2B801DB
:100E4000CE010E949F14882381F2F80185818823B6
:100E500069F0C330FCE7DF07A1F160F4C130ECE7D3
:100E6000DE0789F1C0F4C115DC4791F0C8010E948A
:100E70003106BCCFCB35ECE7DE0759F1CC35FCE7CA
:100E8000DF0721F1CA35DC4789F70E94E210EECF77
:100E90000E94DB06AACF90913603892F8E7F90FFA8
:100EA00081608093360380FF09C086E191E09F93C3
:100EB0008F930E94F6050F900F9097CF84E091E0FA
:100EC000F6CF0E94EA100E94E1068FCF0E94D81050
:100ED000CDCF0E94E610CACF0E943E060E94062493
:100EE0000E94A80708950E94AC070E943F060E9436
:100EF0000B240895829590E09C01220F331F220F4E
:100F0000331F2C7C95958795959587958373282B12
:100F100030E0C901880F991F8A7A35952795257584
:100F2000822B089581E008950895CF93DF93D82F01
:100F30000E949207C82F882319F08D2F0E949407D2
:100F40008C2FDF91CF91089508950E949507089501
:100F500080E00E94A50708950E944A220E94A507EA
:100F60000895CF930E944A22C82F8091CA028C17FD
:100F700001F1C093CA020E949A246093CB0270933D
:100F8000CC028093CD029093CE028091360385707F
:100F9000853061F41F92CF9387E291E09F938F9306
:100FA0000E94F6050F900F900F900F908C2F0E94CB
:100FB000A507CF910895ADE0B0E0E1EEF7E00C9425
:100FC0002B2D488759876A877B878C879D8791114E
:100FD0000E9405101F8286E0FE013896DE01119600
:100FE00001900D928A95E1F78D8181110DC02981C3
:100FF0003A814B815C816D817E818F810E944F0F90
:101000002D96E2E00C94472DCE0101960E947906C0
:101010008111EDCFF5CFFC012481213021F48081B5
:1010200091810E94C30C0895662329F00E94421CFE
:101030000E94151D08950E949C1CFACFCF93C82FC3
:101040008823C9F08238C9F40E94572281FD13C059
:1010500089E30E9450230E9474102FEF87EE93E0E3
:10106000215080409040E1F700C0000089E30E94D9
:1010700058230E947410CF9108958338A1F40E94E0
:10108000572280FDF8CF83E50E9450230E94741000
:101090002FEF81EE94E0215080409040E1F700C0B6
:1010A000000083E5E4CF8438A1F40E94572282FD3A
:1010B000E2CF87E40E9450230E9474102FEF81EE4C
:1010C00094E0215080409040E1F700C0000087E4A8
:1010D000CECF8CEF8C0F813A98F48C2F0E94FE18A3
:1010E0008111C9CF8C2F0E941523882329F08C2FC2
:1010F0000E9458230E9474108C2F0E945023B9CF55
:1011000080E28C0F883048F4C77081E001C0880FFE
:10111000CA95EAF70E94E80FACCFEBE5EC0FE3309D
:1011200040F4F0E0EF5AFE4F808190E00E94B6223A
:10113000A2CFE8E5EC0FEB3150F4F0E0EE0FFF1F2B
:10114000E55EFE4F808191810E94DB2294CF83E394
:101150008C0F833108F08FCF61E08C2F0E94140830
:101160008ACF882309F456C0823879F40E94572226
:1011700081FF50C089E30E9450230E94741089E3CC
:101180000E9458230E9474100895833859F40E94D5
:10119000572280FF3FC083E50E9450230E947410B5
:1011A00083E5EECF843859F40E94572282FF32C083
:1011B00087E40E9450230E94741087E4E1CF9CEFE3
:1011C000980F913AE8F290E2980F983050F48770B7
:1011D00091E001C0990F8A95EAF7892F0E94EE0FDE
:1011E000D1CF9BE5980F933028F490E080E00E94E7
:1011F000B622089598E5980F9B3128F490E080E09E
:101200000E94DB22089593E3980F933118F460E075
:101210000E94140808951F93CF93DF93182FEB01BA
:101220000E941E08209739F4812F0E94B108DF9197
:10123000CF911F9108958FE99FE00197F1F700C0CA
:1012400000002197EFCF70E060E0893311F460E592
:1012500070E00E940B090895882321F00E94E80F96
:101260000E9474100895882321F00E94EE0F0E94BE
:1012700074100895B0E0A0E0E0E4F9E00C94242DAF
:101280006C01D62FC72FFC011581068102950F70C6
:101290000E94DE0FE82E8823F9F0E12E1123E1F001
:1012A0008C2F807F803461F080E28D0F883008F1D0
:1012B0008C2F807E803221F4D230D8F00023C9F008
:1012C0008091640382FF15C082E00E9499100E9401
:1012D000DE0F91E0E82EE926BC2EB2949FE0B92201
:1012E000FBE0FB15B8F1EB2DF0E0E053F24D0C9470
:1012F0000E2DE12CF1CF0C2F0F70C07F11F0029555
:10130000007F112399F0002359F080E28D0F88307F
:1013100010F0D11107C0802F0E94E80F0E947410B6
:101320008D2F48C0802F0E94F80FF8CF8D2F0E947C
:10133000B108002379F080E28D0F883010F0D111D0
:1013400004C0802F0E94EE0F03C0802F0E94FE0F6A
:101350000E947410EB2DE850FF0B349708F061C128
:101360000E944A220E94A507CDB7DEB7E9E00C949F
:10137000402D2C2F2F70F22EC07FC03219F0F29426
:1013800080EFF822DD2341F0D130C9F1112309F4B7
:1013900043C00023E9F0C4CF8091640382FD14C0F0
:1013A000112359F0FF2029F08F2D0E94E80F0E9491
:1013B000741080E00E941E08CDCF80E00E94B1082A
:1013C000FF2041F28F2DBECF112369F0011104C01F
:1013D0008F2D0E942C09BECF013009F0BBCF8F2D7D
:1013E0000E941C10B7CF0111B5CF8F2D0E94330979
:1013F0008F2D0E9428108F2D0E940C10ABCF11232F
:1014000021F0063008F0A6CFE3CF053008F0A2CFD8
:101410008F2D0E9433099ECF0023D1F3D93349F495
:101420003FEF87EE93E0315080409040E1F700C0FD
:1014300000008D2F0E94B1088DCF8C2F8695869548
:10144000837069F0813009F085CF8D2F9C2F9370C8
:10145000111102C080E090E00E94DB227BCF8D2F33
:101460009C2F9370111102C080E090E00E94B62280
:1014700071CF612F8D2F0E9414086CCF8C2F837039
:1014800079F5111167CF4D2F429546954770440F5E
:10149000440F8D2F8F70042E01C0880F0A94EAF735
:1014A0002D2F2071D4FF07C02FE030E001C0220FA4
:1014B0004A95EAF72095C695C695C370822BC2302F
:1014C00049F058F4C13019F00E94CB0B43CF0E9471
:1014D000C50B40CF0E94D10B3DCF0E94C20B3ACF2B
:1014E0008695112311F08C2F8170882309F432CF57
:1014F0004D2F429546954770440F440F8D2F8F70A6
:10150000042E01C0880F0A94EAF72D2F2071D4FF12
:1015100007C02FE030E001C0220F4A95EAF720957E
:10152000C695C695C370822BC23049F058F4C130BD
:1015300019F00E941A0C0ECF0E94140C0BCF0E94BF
:10154000200C08CF0E94DD0B05CFCF70112329F0AE
:101550008C2F0E94EF0B8D2F3CCF8D2F0E943309D3
:101560008C2F0E94FB0BF6CED23F41F160F4D03FAE
:10157000B9F0D13F81F0112309F443C00111D0CE5D
:101580008C2F8F711FC0D33F01F1D43FA1F7809101
:10159000640382FD24C08C2F8F71112311F312C0BC
:1015A000112341F0053008F0D5CE8C2F8F710E94A9
:1015B000080CD0CE063008F0CDCEF7CF8C2F8F712F
:1015C0001111CFCF0E94EF0BC5CE112329F08C2F24
:1015D0008F710E94E60BBECE0E94E20BBBCE1123A0
:1015E00031F063E08C2F8F710E947B10B3CE81E0CD
:1015F0000E949910023008F4ADCE82E00E9499104A
:10160000A9CE002359F0D93309F013CFEFEFF7EE4D
:1016100023E0E150F0402040E1F709CF8C2F8F719B
:10162000A0CFEE2009F4A0CE0E94DA0F80FD9CCE60
:10163000F60115820E94D40F0E94EF0BC6010E9492
:101640003E0B0E94D40F0E94FB0B8ECE0F931F9374
:10165000CF93DF93EC01688179818D810E94CE0C5C
:101660008C010E94260C0E94C10BB801CE010E9481
:101670003A09DF91CF911F910F910895CF93DF9396
:10168000EC018C81882399F0CE010E94E70681113C
:1016900011C00E94DE0F882351F08D81882339F01C
:1016A0008091640382FF03C082E00E949910DF9161
:1016B000CF910895CE010E94260BCE010E94910683
:1016C000F6CF90E080E00E94B62290E080E00E9499
:1016D000DB220E9405100E9474100E94CB1D0E9404
:1016E000151D08950E9460230E94610B08950E94B9
:1016F000F50F0E94720B089592959F70963091F0AD
:1017000058F4925F9F70923058F4803F19F030F493
:10171000883E30F481E008959A5FF4CF843FD1F39E
:1017200080E00895883EB0F3813FD1F7F3CFFC010C
:101730002481222339F0808191810E94C30C0E9470
:101740007C0B089580E00895A6E0B0E0EAEAFBE0B3
:101750000C942B2D2696E2E00C94472DA7E0B0E0E8
:10176000E4EBFBE00C942B2D2796E2E00C94472D44
:1017700008950E94B80B08950E94B90B8093D4027B
:10178000089508950E94BC0B08959091D402892B6E
:101790000E94BC0B08959091D40289230E94BC0B37
:1017A00008959091D40289270E94BC0B08950E944D
:1017B000B80B08950E94D70B08950E94DA0B80930E
:1017C000D302089580E00E94DD0B089591E001C0EE
:1017D000990F8A95EAF7892F0E94DD0B089521E081
:1017E00030E001C0220F8A95EAF78091D302822B64
:1017F0000E94DD0B089521E030E001C0220F8A95A0
:10180000EAF720958091D30282230E94DD0B089590
:1018100021E030E001C0220F8A95EAF78091D302DF
:1018200082270E94DD0B08959091D302892B0E949C
:10183000DD0B08959091D30289230E94DD0B08955A
:101840009091D30289270E94DD0B08950895262FD9
:10185000277091E001C0990F2A95EAF723E0769569
:1018600067952A95E1F7FB01EE0FFF1FE60FF71FC3
:10187000E40FF51F50E040E0682F70E08191DF0138
:1018800011979B01042E02C0369527950A94E2F722
:10189000217021952827292328272C934F5F5F4FFC
:1018A0004330510559F70895A82FA77023E0969566
:1018B00087952A95E1F7FC01EE0FFF1FE80FF91F4E
:1018C000E60FF71F50E040E080E0219130E00A2E63
:1018D00002C0369527950A94E2F721703327042E2B
:1018E00001C0220F0A94EAF7822B4F5F5F4F43300B
:1018F000510559F70895262F911109C0833038F406
:10190000682F70E040ED52E0822F0E94270C08956E
:1019100091110AC0833030F460ED72E090E00E94D3
:10192000540C982F892F089590E0FCCFCF92DF922E
:10193000FF920F931F93CF93DF936C010091D3021B
:101940008091D402082BC3E0D0E010E0FC2EC80147
:101950000C2E02C0959587950A94E2F780FD0CC085
:101960002197A0F7F12C8F2DDF91CF911F910F912F
:10197000FF90DF90CF900895B6018C2F0E94A9139D
:10198000019771F3F0CFCF93DF93EC010E94960C97
:10199000BE010E94A913DF91CF9108951F93CF93A9
:1019A000DF93EB019091CF02992339F0CB010E9494
:1019B000C30CDF91CF911F910895882369F0CB016B
:1019C0000E94960C182F682FCE010E947B0CBE013E
:1019D000812F0E94A913EDCFCB010E94880C182FF4
:1019E000F6CFE1E0F0E0DF0102C0AA0FBB1F6A956D
:1019F000E2F7BD01DF0102C0AA0FBB1F4A95E2F763
:101A00006A2B01C0EE0F2A95EAF7962F98239613BA
:101A100002C08E2B0895E0958E230895242F462F23
:101A2000682F8091D3020E94F10C0E94DD0B089573
:101A30001F93CF93DF93C091D50217E08091D60218
:101A40008C1304C0DF91CF911F910895D0E01C9FAB
:101A5000F0011D9FF00D1124E952FD4F20813181CD
:101A6000428153816481758186810E94AE0B2196EB
:101A7000C770E4CF20910F03309110034091110300
:101A80005091120360911303709114038091150318
:101A90000E94AE0B0895CF93DF9380911503807F52
:101AA00009F04DC080911403882309F448C0E091E7
:101AB000D5025091D602C0911003D0910F036091CE
:101AC00011037091120347E05E17C9F18E2F90E069
:101AD000E49FF0011124E952FD4F2481222391F16A
:101AE000489FF001499FF00D1124DF01A952BD4F1D
:101AF00011962C9111972C1325C02C912D1322C0D7
:101B000015962C91159721111DC012962D913C917F
:101B1000261B370B283C3105A8F4809115038F70E4
:101B2000806180931503E352FD4F80818F70806147
:101B300080838FE093E00E943E0B0E94180DDF919E
:101B4000CF910895FC013196E770BECF482F2091C8
:101B5000D5029091D60257E0291302C080E0089583
:101B600030E0529FF001539FF00D1124E952FD4FD8
:101B70008181681306C08081481303C0858181116B
:101B8000EECF2F5F3F4F2770E7CFA4E1B0E0EBEC43
:101B9000FDE00C94212D8C0186E0F801DE011F96FA
:101BA00001900D928A95E1F7F8018481E5809FE02C
:101BB000A92E93E0B92E9091130391111FC0882391
:101BC000D1F0EE20A9F0C8010E94970BF82E8823CF
:101BD00079F087E0F801D50101900D928A95E1F73F
:101BE000C5010E940B080E944B0D0E943A0D5FC078
:101BF000C8010E943E0BFF24F39459C0C080D180DD
:101C000082809380F090140320911103309112038D
:101C1000A401421B530BFF2009F4F9C0483C5105B5
:101C200008F0A7C0882309F442C090911003809166
:101C30001503282F207F09F05CC09D1116C09091DC
:101C40000F03C91212C0E1104EC08F7080618093E3
:101C500015030E943A0D8FE093E00E943E0B8091A5
:101C60001503F8018683F12C22C0E1103CC06D2DD4
:101C70008C2D0E94A60D6D2D8C2D0E94A60DE82E98
:101C80008111F1CFCF86D88A8F8598890E94C30CA5
:101C9000292F22952F70243078F49F702230A8F0DD
:101CA0009923B9F0F8019681907F99F4FE2C8F2D3D
:101CB0006496ECE00C943D2D2A5F2F70223068F082
:101CC000C8010E943E0BEF2CF1CF992311F088231D
:101CD00069F3805E883050F3F3CF803F38F3815F43
:101CE000833070F7E3CF80911503816080931503F3
:101CF000BACF9D1113C090910F03C9120FC0E1100C
:101D00000DC08683C8010E943E0B87E0F801AFE05A
:101D1000B3E001900D928A95E1F767CFC8010E9468
:101D2000970B882309F464CFEE2009F461CF8091EA
:101D30001503803288F020910F033091100339870A
:101D400028879B868A86909113039C871D868E87A1
:101D5000CE0108960E943E0B87E0F801AFE0B3E0A9
:101D600001900D928A95E1F70E944B0D0E943A0D69
:101D700042CF90911503292F207FA1F4682D9A8AD4
:101D8000898AA6017A899E2D0E94A40B8FE093E098
:101D90000E943E0B87E0F50111928A95E9F70E94B7
:101DA0003A0D61CF882309F482CF809110038D1101
:101DB00010C080910F03C8120CC0E1100AC09683B6
:101DC000C8010E943E0B87E0F50111928A95E9F760
:101DD0006ECFC8010E94970B882309F409CFEE202B
:101DE00009F406CF80911503803208F4B5CF209115
:101DF0000F03309110033A8329839C828B82909148
:101E000013039D831E828F83CE010196A3CF483C8E
:101E10005105B8F5882309F4EECEFE2CEE2009F426
:101E2000E7CE809110038D111EC080910F03C81260
:101E30001AC08091150380FD0DC0982F907F51F03E
:101E40008683903F09F45ECF982F907F905F8F70CC
:101E5000892B57CF87E0F801AFE0B3E001900D92F6
:101E60008A95E1F724CFC8010E94970B811174CFA6
:101E700080911503816080931503C8010E943E0B79
:101E800016CF682D9A8A898AA6017A899E2D0E948A
:101E9000A40B87E0F50111928A95E9F7A6CEAEE092
:101EA000B0E0E5E5FFE00C942A2D288739874A87C2
:101EB0005B876C877D878E87CE0108960E94C50D53
:101EC0008823B1F06C85662341F0288539854A85E1
:101ED0005B857D858E850E94AE0B17E08091D502D3
:101EE0009091D60289133DC02E96E3E00C94462DC6
:101EF00087E0FE013896DE01119601900D928A95D9
:101F0000E1F78C85882349F32091D60230E0C9019E
:101F10000196877099274091D5024817190699F0C4
:101F200097E0929FD001939FB00D1124A952BD4F0D
:101F3000FE01319601900D929A95E1F78093D602B9
:101F40000E94180DCACF0E94770B1092D6021092F1
:101F5000D50287E0EFE0F3E0DF011D928A95E9F713
:101F6000BCCF819FC001112489529D4F0E94C50D95
:101F7000882309F4B9CFE091D5021E9FF001112406
:101F8000E952FD4F20813181428153816481758105
:101F900086810E94AE0B8091D50290E001968770F9
:101FA00099278093D5029ACF80911E0386958695B6
:101FB0008695089580911E038770089590911E0361
:101FC000977081E009F480E0089580912A030895D4
:101FD00090912A03892B80932A03089580959091EC
:101FE0002A03982390932A03089510922A030895B0
:101FF00090912903892B80932903089580959091CE
:102000002903982390932903089510922903089592
:1020100008950E940810089590911F03292F2823E6
:1020200031F08095892380931F030E940910089541
:1020300008950E941810089590912003292F2823B5
:10204000281729F0982B909320030E9419100895C7
:1020500090912003292F282331F0809589238093A4
:1020600020030E941910089580912003882329F0ED
:102070001092200380E00E94191008950F931F937F
:10208000CF93DF930091000110910101C0912A03C9
:1020900080912903C82B80912003882331F0C82B1D
:1020A0000E94002381110E943410F801C083C09166
:1020B0000001D091010148E050E066E173E0CE01FB
:1020C0000E94662D892B59F088E0FE01A6E1B3E05D
:1020D00001900D928A95E1F7CE010E945A22DF917C
:1020E000CF911F910F9108950E943E100895089579
:1020F0000E94771008959091640392FF11C098E0B8
:10210000899F90011124622B60931E030E94EF0BA4
:1021100080911E038695869586950E947810089575
:102120000E94EF0B089510921E0380E00E94781029
:10213000089590911E038095892380931E03282F74
:10214000277069F4891759F09091640392FF07C0D2
:102150008695869586950E94FB0B0E9493100895A4
:10216000CF93C82F8091640382FB992790F99C1725
:10217000E9F0C0FB82F9809364038091630390913E
:1021800064030E94121182E00E949910809136032C
:1021900080FF0CC01F92CF9387E391E09F938F93B2
:1021A0000E94F6050F900F900F900F90CF91089519
:1021B0008091640382FB882780F991E089270E943F
:1021C000B010089581E00E94B010089580E00E9450
:1021D000B01008956FEF7FEF90E080E00E94B82D7F
:1021E000089590E080E00E94842D853E9E4F19F472
:1021F0000E94FC20089580E0089582E090E00E9413
:102200007C2D089583E090E00E947C2D0895682F36
:1022100083E090E00E949A2D089584E090E00E946F
:10222000842D0895BC0184E090E00E94B82D0895AB
:10223000AB01BC018FE090E00E94AC2D0895AB0192
:10224000BC0183E190E00E94AC2D089560E070E055
:10225000CB010E941F11089560E070E0CB010E9445
:1022600018110E9426110895A8E0B0E0EAE3F1E118
:102270000C942B2D65EE7EEF90E080E00E94B82D4F
:1022800060E082E090E00E949A2D81E08093D40289
:102290000E94071160E074E184E090E00E94B82D94
:1022A00060E086E090E00E949A2D60E087E090E098
:1022B0000E949A2D40E050E0BA0188E090E00E9430
:1022C000AC2D60E083E290E00E949A2D60E08CE00B
:1022D00090E00E949A2D60E08DE090E00E949A2D9F
:1022E00019821A821B821C821D821E821F821886FE
:1022F00048E050E067E170E0CE0101960E948A2D2F
:1023000040E050E0BA018FE190E00E94AC2D80E007
:102310000E9415210E9444210E942C112896E2E07F
:102320000C94472D0E9434110895682F8EE090E0A0
:102330000E949A2D0895A6E0B0E0E1EAF1E10C9444
:10234000292D0E948E248C0180912B0390912C03C7
:102350008017910781F019821A820E948E24682FBB
:1023600049815A81792F80E090E00E94DB07109329
:102370002C0300932B032696E4E00C94452D0E9439
:102380009A246093320370933303809334039093C1
:10239000350360932E0370932F0380933003909343
:1023A00031030895089508950E94D2110895089563
:1023B0000E94D7110E94D411089508950E94DD1142
:1023C000089508950E94E1110E94DE1108958FEE94
:1023D00096E20E94DE150E94D3110E94D811089542
:1023E00081E008950E94F01108950E94F01108956F
:1023F0000895089508950E94F8110E94F9110E940D
:10240000FA1108950E94F110811102C00E949211E8
:102410000E94FD10809336030E940D119093640377
:10242000809363030E9401160E9402110E94C20B56
:102430008091D3020E94DA0B08950E9485240E94A5
:1024400054210E9457150E9402120E94A4070E9464
:10245000E2110895A6E0B0E0E0E3F2E10C94252D4E
:102460000E94F21181110AC00E949B110E94ED1D71
:102470000E94B1072696E8E00C94412D0E94631556
:1024800010912D0380E00E94B914181769F3809110
:10249000360381FD0E94BF140E94F511D82E80E002
:1024A0000E94B914182F80912D03181729F1E12EDD
:1024B000E82600E0FF24F394CC24C3948E2D8F21D2
:1024C000A9F0DD2099F009831A820E948E249C8352
:1024D0008B83CD8291E0812F8F2109F490E0498197
:1024E0005A816B817C818D810E94DB070F5FFF0C1D
:1024F000033021F710932D030E94BF11B7CF1F9314
:10250000CF93DF930E94AE13EC01C11580E5D8078D
:10251000F0F5C11580E4D80708F09CC0C03ED10595
:1025200020F5CD3CD10508F082C0C83AD10578F439
:10253000C53AD10508F073C0C130D10519F1209713
:1025400009F1C430D105F0F4D0E0C0E01BC0C33CB9
:10255000D105D0F7C85AD0E0CC0FDD1FCC5ADE4FE2
:102560000990D881C02DD4640DC0C11580E2D80770
:1025700008F0D1C0C11581E0D80708F05AC0C83EA4
:10258000D10510F7CE01DF91CF911F910895C0368C
:1025900082E5D80718F5C03482E5D80708F06BC08B
:1025A000C03282E5D80708F05FC0C11582E5D807C0
:1025B00008F497C02C2F2695269580E2289F90013D
:1025C00011248C2F8370C1E0D0E002C0CC0FDD1F3E
:1025D0008A95E2F7C22BD32BDD68D4CFC03A82E5CF
:1025E000D80760F4C03882E5D80708F459C0CF7125
:1025F000D0E0DC2FCC27C46FD06AC4CFC03C82E5CA
:10260000D80708F462C0C03E82E5D80708F09CCF26
:10261000DC2FCC27CC27DF71C06FD06AB3CFC55A6F
:10262000D0E0C657DE4FC881D0E0D064ABCFD065D4
:10263000A9CF8D2F0E945014182FCE0199270E94E8
:10264000AE13C12FD0E0DC2FCC27CC27DF71C82BF5
:10265000D92B98CFCE0199270E94AE13CC27DF70DB
:10266000C82BD92BD06A8ECFCF71D0E0DC2FCC27EE
:10267000C16FD06A87CF2C2F26952695277080E2D0
:10268000289F900111248C2F8370C1E0D0E002C0FC
:10269000CC0FDD1F8A95E2F7C22BD32BDC6872CFFB
:1026A0002C2F26952695277080E2289F90011124D3
:1026B0008C2F8370C1E0D0E002C0CC0FDD1F8A9563
:1026C000E2F7C22BD32BDA685DCF8C2F8F710E947B
:1026D0005014C82FD0E0DC2FCC27CC27DF71D0627C
:1026E00051CF8C2F8F710E94501455E0D695C7950D
:1026F0005A95E1F7CF70D0E0DC2FCC27282F30E0BF
:1027000084FF05C044E0220F331F4A95E1F7C22B36
:10271000D32BD06937CF8D2F8F710E945014182F73
:10272000CE0199270E94AE13C12FD0E0DC2FCC2719
:10273000CC27DF71C82BD92BD2CF462F711106C001
:10274000633020F460E00E941D1A089590E080E05C
:1027500008950E949D130E947F120895823891056A
:10276000B9F1B0F48133910509F47DC048F48932A0
:10277000910509F46DC08A32910509F47BC0089572
:102780008533910509F45FC08933910509F10895F6
:10279000833E9105D9F138F4803E910529F1823EBE
:1027A000910579F10895863E9105D9F1873E91050D
:1027B00009F43EC0843E910541F52091640321FF58
:1027C00024C08091630384FD19C087EE90E00895D2
:1027D00020916303237009F05AC02091640323FF02
:1027E00014C089E290E008952091630320FD38C071
:1027F0003091640330FF09C024FF43C090E080E0C3
:1028000008952091630322FDF7CF0895209163037B
:1028100022FD3AC03091640330FD39C024FFF5CF6A
:10282000EDCF2091630323FFF0CF24FDE7CFCDCF81
:102830002091630323FD2EC03091640331FFEECF5E
:1028400084EE90E008952091630325FFDECFC9CF89
:102850002091630325FD21C02091640323FFD5CF80
:1028600089E390E0D2CF2091630326FFCECF8AE2A6
:1028700090E008952091630326FFC7CF81E390E0A5
:10288000089583EE90E0089582EE90E0089580EE42
:1028900090E0089586EE90E0089585E390E0089535
:1028A0009091630392FF10C041E0282F24712430DF
:1028B00009F040E031E0282F2871283009F030E09D
:1028C000431711F02CE0822793FF10C041E0282F1E
:1028D0002471243109F040E031E0282F287128319B
:1028E00009F030E0431711F02CE0822730916403A7
:1028F00030FF10C051E0282F2171213009F050E045
:1029000041E0282F2871283009F040E0541711F0D9
:1029100029E0822731FF10C041E0282F21712131A9
:1029200009F040E031E0282F2871283109F030E02B
:10293000431711F029E0822794FD877E0895CF93F5
:102940009C01205E3245C1E02032310538F4FB01A4
:10295000C581C11103C08F710E94AF068C2FCF912A
:10296000089508950E94B114089508950E94B51421
:102970000895E82FF0E0EA59FC4F808108958BE537
:1029800091E09F938F930E94F6051F921F9286E518
:1029900091E09F938F930E94F60583E591E09F93CA
:1029A0008F930E94F605809166030E947A071F921A
:1029B0008F938EE491E09F938F930E94F6058CE4B1
:1029C00091E09F938F930E94F6058DB79EB70E9668
:1029D0000FB6F8949EBF0FBE8DBF089580EA8A950A
:1029E000F1F7089500C008950E94EE140895F89438
:1029F000E82FE295EF70F0E031A1282F2F7081E0F1
:102A000090E001C0880F2A95EAF7982F90959323BC
:102A100091A392A1892B82A37894089586E60E94BF
:102A2000F71484E30E94F71485E30E94F71486E309
:102A30000E94F71408950F931F93CF93DF938C0197
:102A4000C62FF8943E9A469878940E94F214EDE8C6
:102A5000F1E081E0D0E091919F3F79F0A92FA2951C
:102A6000AF70B0E090962C9130E09F7002C0359529
:102A700027959A95E2F7982F20FD90E0D92B880FA3
:102A800091E0E039F90739F786E60E94F71461E032
:102A9000D11101C060E08C2F0E94F414F801EC0FFA
:102AA000F11DD083DF91CF911F910F9108950E9466
:102AB0000E15109266031092650381E00E9488153E
:102AC0000E94B2140895A1E0B0E0E9E6F5E10C94AB
:102AD0002A2D198260E0CE0101960E941B1590916B
:102AE0006503898121E0981301C020E09813809349
:102AF000650341E066E673E085E693E00E94891590
:102B0000182F0E94B614812F2196E3E00C94462DD5
:102B10000895B0E0A0E0EFE8F5E10C94252D6C01FC
:102B20007B01042FC22F222379F081E080933903A7
:102B30000E948E24909338038093370380E0CDB7B2
:102B4000DEB7E8E00C94412DD0913903DD23B1F3D9
:102B500080913703909138030E941D24059770F3EC
:102B600010E0A801B601C7010E94662D892B31F043
:102B7000A801B601C7010E94732DCD2F1092390311
:102B80008C2FDDCF0E942A1208950E9427240E94D4
:102B900051270E94E7110E946B270E941D120E947C
:102BA00078270E947D270E94C2150E94A3270E94B9
:102BB0004B250E947A250E94FB11F3CF9093C90206
:102BC0008093C80208950E94EA10089580E00E9450
:102BD000B914817008950E9463152FEF86E791E084
:102BE000215080409040E1F700C000000E94631532
:102BF0000E94E615882321F00E94E3150E94CA2452
:102C000008950E94EB150895809102011F928F9301
:102C1000809103011F928F93809106011F928F93E1
:102C2000809107011F928F93809108011F928F93CB
:102C3000809109011F928F938AE691E09F938F9371
:102C40000E94F6058DB79EB70E960FB6F8949EBFFC
:102C50000FBE8DBF0895883248F58E3108F07FC0D1
:102C60008B3069F130F4873009F4E0C089EC92E0F0
:102C7000F1C0833109F468C08431C1F78BEE92E072
:102C80009F938F930E94F6050F900F9080913E03C3
:102C9000882309F411C110923E0310923D03109253
:102CA0003C0310923B0310923A0325C08F3409F481
:102CB000D6C008F03FC0893209F38833B9F68EEEEA
:102CC00092E09F938F930E94F6050E9404161F9234
:102CD00081E08F931F9288E08F9387EE91E09F931E
:102CE0008F930E94F6058DB79EB708960FB6F8949D
:102CF0009EBF0FBE8DBF20913E03222309F4D3C097
:102D000080913A0390913B03009711F480E991E0A0
:102D10009F938F931F922F9387EB92E09F938F93B4
:102D20000E94F6050F900F900F900F900F900F904C
:102D300081E00895813509F4A6C008F4A6C0823563
:102D400009F094CF81E08CC08DED92E09F938F933A
:102D50000E94F6050E9404160F900F90CCCF8D5163
:102D600080933E03833009F446C078F48130E1F06B
:102D70008230C1F110923E038AED92E09F938F93CF
:102D80000E94F6050F900F901BC0853009F445C0D6
:102D9000D8F1863079F782E091E090933D038093FB
:102DA0003C0388ED91E008C089E091E090933D03F9
:102DB00080933C0384E991E090933B0380933A0332
:102DC00080913E03882309F496CF1F928F9386ED5E
:102DD00092E09F938F930E94F6050F900F900F90B3
:102DE0000F9089CF88E091E090933D0380933C035E
:102DF0008DE991E0E1CF87E091E090933D038093EE
:102E00003C0389EA91E0D8CF86E091E090933D03BE
:102E100080933C0386EB91E0CFCF83E091E09093E9
:102E20003D0380933C0385EC91E0C6CF81E0809325
:102E3000090184E1809308018AE0809307018EE113
:102E40008093060188E08093030188E28093020169
:102E50008CEC92E09F938F930E94F6057DCF8AE0E1
:102E6000E0913C03F0913D033097D1F02081082E92
:102E7000000C990B820F911D8F3F910541F03CF0A2
:102E80008FEF808307C08FEFEBCF86EFE9CF97FFFF
:102E9000F8CF108280811F928F9383EC92E099CFBC
:102EA00080EC92E0D7CF83EB92E09F938F930E94C8
:102EB000F6050F900F903CCF80E00895CF93C82F78
:102EC0001F928F9384E093E09F938F930E94F60567
:102ED00081E001C0880FCA95EAF70E94C20B0E94E8
:102EE000770B0F900F900F900F90CF910895EF9266
:102EF000FF920F931F93CF93DF938B3109F426C179
:102F000008F0B4C08B3009F4D2C008F086C0863017
:102F100009F4E6C068F4853009F4B6C089EA96E0A1
:102F20009F938F930E94F6050F900F9080E0F0C062
:102F3000873009F4F2C0883089F70E9402111F928D
:102F40008F938CE896E09F938F930E94F6050E94E2
:102F5000FD1083FB992790F91F929F9382FB99277D
:102F600090F91F929F9381FB992790F91F929F934D
:102F7000982F91701F929F931F928F9383E496E0F6
:102F80009F938F930E94F6050E940D1193FB2227B9
:102F900020F91F922F9387FB222720F91F922F934E
:102FA00086FB222720F91F922F9385FB222720F9E9
:102FB0001F922F9384FB222720F91F922F9383FBCC
:102FC000222720F91F922F9382FB222720F91F929C
:102FD0002F9391FB222720F91F922F93292F2170E5
:102FE0001F922F9381FB222720F91F922F93282FC6
:102FF00021701F922F939F938F9384E495E09F936A
:103000008F930E94F6058DB79EB78A960FB6F894F7
:103010009EBF0FBE8DBF81E07BC0803109F4B0C080
:1030200080F48E3009F07ACF90913603892F8B7F10
:1030300092FF84608093360382FF9FC084ED96E008
:1030400091C0863109F4ACC0893109F067CF8DEEAB
:1030500091E09F938F9384E793E09F938F930E94D7
:10306000F6050F900F900F900F90D5CF8A3269F12F
:10307000A0F4873231F128F48E3108F44FCF8D510E
:1030800021C0893209F04ACF87E197E09F938F935F
:103090000E94F6050E94DB0620C0833478F48A3350
:1030A00008F0A5C0853369F0883309F037CF8EE981
:1030B00093E09F938F930E94F6050FC0833409F02D
:1030C0002DCF80E00E945E17A6CF87E397E09F9305
:1030D0008F930E94F6050E9492110F900F909BCF44
:1030E00080913603807F8093360387E793E09F9338
:1030F0008F930E94F60583E397E09F938F930E943E
:10310000F60581E080933F030F900F900F900F9092
:10311000CDB7DEB7E6E00C94432D90913603892FAE
:103120008E7F90FF81608093360380FF03C08BE029
:1031300097E0BFCF8EEF96E09F938F930E94F605A6
:1031400080913603817F80933603C7CF90913603F9
:10315000892F8D7F91FF82608093360381FF0AC0A3
:1031600081EF96E09F938F930E94F605809136033E
:103170008160E9CF83EE96E09CCF84EC96E099CF16
:1031800090913603892F877F93FF88608093360361
:1031900083FF03C088EB96E0E5CF8BEA96E089CF0A
:1031A0000E949A24162F072FF82EE92E0E94012440
:1031B000D82F0E94E123C82F0E944A22EF92FF924B
:1031C0000F931F931F92DF931F92CF931F928F93A2
:1031D00089E093E09F938F930E94F6058DB79EB789
:1031E0000C960FB6F8949EBF0FBE8DBF14CF8953B7
:1031F00069CF80E008950E94F9180895CF93C82FF1
:1032000080913F038130C1F0882339F0823009F486
:1032100050C010923F0380E00DC00E94E50F823243
:10322000D1F78C2F0E94F91881111FC08C2F0E949A
:1032300077178170CF9108950E94E50F823289F34C
:103240008C2F0E94FB18811127C0C43139F180F402
:10325000CB3091F0C03131F18EEF92E09F938F939C
:103260000E94F6050F900F901BC081E090E0E1CF27
:10327000C932A1F0C83381F787E793E09F938F931A
:103280000E94F60580E093E09F938F930E94F605DD
:103290000F900F900F900F9081E0CBCF10923F03D3
:1032A00080E0C7CF82E080933F0388E30E942B1623
:1032B000F3CF8C2F0E942B1681E0BCCF0F931F936E
:1032C000CF93DF938C01FC01C081D181CE010E949C
:1032D0007C2D2196F801D183C083DF91CF911F917E
:1032E0000F91089584E008950F931F93CF93DF9378
:1032F000843008F561111FC04330E8F4042F10E05A
:10330000000F111F26E0829F000D111D1124C8011E
:1033100088960E947C2DC82FD0E0DC2FCC27C801D6
:1033200089960E947C2D9E01282BC901DF91CF91A7
:103330001F910F91089590E080E0F8CF1F93CF93F5
:10334000DF93122F8430B8F4611115C0433098F424
:10335000C42FD0E0CC0FDD1F96E0899FC00DD11D9A
:103360001124632FCE0188960E949A2D612FCE01E1
:1033700089960E949A2DDF91CF911F910895CF9346
:10338000DF93D0E0C0E04C2F60E08D2F0E9412064A
:103390009C014C2F60E08D2F0E949E19CF5FC3309F
:1033A00091F7DF5FD43071F7DF91CF910895EF92FD
:1033B000FF920F931F93CF93DF93EC018A017C015F
:1033C000E60EF71ECE018896CE15DF0529F4CDB79F
:1033D000DEB7E6E00C94432DC831D10540F40E94DD
:1033E0007C2DF80180830F5F1F4F2196EBCFF801F2
:1033F0001082F9CFB0E0A0E0E0E0FAE10C94252DD6
:103400007C016A018C01060F171FEC01CE01889622
:10341000C017D10729F4CDB7DEB7E8E00C94412DF1
:10342000C831D10540F4FE01EE19FF09EC0DFD1D78
:1034300060810E949A2D2196E9CF843038F4611181
:1034400005C0433018F40E947419089590E080E09C
:10345000089580E1089580EC93E00895EF92FF9243
:103460000F931F93CF93DF93EC018A017C01E60E4B
:10347000F71ECE01805C9F4FCE15DF0529F4CDB736
:10348000DEB7E6E00C94432DC03C23E0D20740F4C5
:103490000E947C2DF80180830F5F1F4F2196E9CF9A
:1034A000F8011082F9CFB0E0A0E0E9E5FAE10C9470
:1034B000252D7C016A018C01060F171FEC01CE013E
:1034C000805C9F4FC017D10729F4CDB7DEB7E8E085
:1034D0000C94412DC03C23E0D20740F4FE01EE19CC
:1034E000FF09EC0DFD1D60810E949A2D2196E7CF0A
:1034F000CF93DF93C0E4D0E060E0CE010E949A2D2C
:103500002196C11584E0D807B9F7DF91CF910895CE
:10351000A2E0B0E0EEE8FAE10C94282DF82E8FE05E
:103520008F15A0F08FEF93E00E947C2D81110EC0CB
:1035300000E410E0F1100EC01A83098340E0BE01E0
:103540006F5F7F4F8EE599E10E94881F2296E5E02C
:103550000C94442D011584E01807C1F3C8010E94A2
:103560007C2D811101C0FA940F5F1F4FE3CFCF93E1
:10357000DF93EB0186319C4711F50E94E50F9D8199
:10358000992399F08A7A91E009F490E090934003AE
:10359000811109C089E20E9450230E94741080E0CA
:1035A000DF91CF91089585E3F6CF8091400381119B
:1035B00004C089E20E945823F0CF85E3FBCF81E06D
:1035C000EFCFCF93DF93EC01FB018581882309F4D2
:1035D000D2C09E0130572332310508F0B2C00E949C
:1035E0000D119093640380936303FE01E150F04753
:1035F000E232F10520F4E452F24D0C940E2D80914C
:10360000630381608093630393C080916403886047
:10361000809364038DC0809163038260F3CF8091B7
:1036200063038460EFCF809163038860EBCF809168
:1036300064038160EDCF809164038260E9CF809163
:1036400063038061DFCF809163038062DBCF809171
:1036500063038064D7CF0E94770B809163038068F7
:10366000D1CF809163038C60CDCF80916403836060
:10367000CFCF809163038E7FC5CF80916403877F16
:10368000C7CF809163038D7FBDCF809163038B7F14
:10369000B9CF80916303877FB5CF809164038E7F1C
:1036A000B7CF809164038D7FB3CF809163038F7E0A
:1036B000A9CF809163038F7DA5CF809163038F7B1A
:1036C000A1CF0E94770B809163038F779BCF80916E
:1036D0006303837F97CF809164038C7F99CF809120
:1036E000630382FB992790F921E0922790FB82F9EE
:1036F00090FB83F987CF80916403982F9095917008
:103700008E7F892B90FB81F983CF90916303892F62
:103710008F7B96FF806476CF0E94770B9091630336
:10372000892F97FB87F980586DCF81E00E94951112
:1037300080916303909164030E9412110E94770BA1
:1037400080E0DF91CF91089580E0F0CF9091630306
:10375000892F8F7E94FF806155CF90916303892FCD
:103760008E7F90FF81604ECF90916403892F877F79
:1037700093FF88604DCF81E0E4CF282F35EB230302
:10378000C001112497FF04C080589109892F089522
:1037900080589F4FFBCF8091470380FF0DC0609101
:1037A000070170E0660F771F6038710570F56115CD
:1037B000710569F1862F089581FF07C060910701A7
:1037C00084E0689FB0011124EFCF6091070182FD72
:1037D0000AC0809146038823A9F0209106016091D8
:1037E0000701821710F088E0ECCF869FC0011124FA
:1037F00033E0880F991F3A95E1F7622F70E00E943D
:10380000FA2CD2CF68E070E0D5CF8FE7089581E041
:1038100008958091470380FF0CC06091030170E020
:1038200075956795759567956115710549F1862FB1
:10383000089581FF06C06091030170E0759567955A
:10384000F3CF6091030182FD0BC090914503992352
:10385000A1F06091020180910301961738F0682F62
:1038600070E06038710500F38FE70895899FC0010B
:10387000112470E00E94FA2CF4CF61E070E0D7CF01
:1038800081E008958D3C31F40E94CB1B819580939B
:103890004B0308958E3C19F40E94CB1BF8CF8F3C4C
:1038A00031F40E94CB1B819580934A030895803D9B
:1038B00019F40E94CB1BF8CF893D29F40E94091C02
:1038C00080934C0308958A3D21F40E94091C819540
:1038D000F7CF8B3D31F40E94091C819580934D03F5
:1038E00008958C3D19F40E94091CF8CF9FE2980FAF
:1038F000983070F4815D990B21E030E001C0220F17
:103900008A95EAF780914903822B809349030895B1
:103910008D3D31F480914703816080934703089582
:103920008E3D21F4809147038260F7CF8F3DB9F738
:10393000809147038460F1CF40914A038D3C59F454
:1039400080914B0387FF0DC010924B0341110BC0B8
:103950001092460308C08E3C81F480914B031816E8
:103960009CF3442381F080914C0390914D03892B6B
:1039700009F05AC01092450308958F3C49F447FF5F
:10398000F0CF10924A0380914B038111ECCFE0CF2E
:10399000803D19F41416ACF3E4CF90914C03893DAB
:1039A00029F41916F4F610924C03DBCF8A3D19F472
:1039B00097FFD7CFF8CF90914D038B3D29F497FF18
:1039C000D0CF10924D03CDCF8C3D19F41916CCF306
:1039D000C8CF9FE2980F983090F4815D990B21E059
:1039E00030E0B90102C0660F771F8A95E2F7CB017C
:1039F000809590914903892380934903B2CF8D3DEF
:103A000031F4809147038E7F80934703AACF8E3D88
:103A100021F4809147038D7FF7CF8F3D09F0A1CF2F
:103A2000809147038B7FF0CF08958091360383FF09
:103A300096C08FE697E09F938F930E94F605809142
:103A400049031F928F938AE697E09F938F930E947A
:103A5000F60588E697E09F938F930E94F605809184
:103A60004A03282F082E000C330B3F938F9385E6D3
:103A700097E09F938F930E94F60583E697E09F93CC
:103A80008F930E94F60580914B03282F082E000C7F
:103A9000330B3F938F9380E697E09F938F930E9421
:103AA000F6058EE597E09F938F930E94F60580912F
:103AB0004C03282F082E000C330B3F938F938BE57C
:103AC00097E09F938F930E94F60589E597E09F9377
:103AD0008F930E94F60580914D03282F082E000C2D
:103AE000330B3F938F9386E597E09F938F930E94CC
:103AF000F60583E597E09F938F930E94F6058DB7B7
:103B00009EB780960FB6F8949EBF0FBE8DBF809172
:103B100046031F928F9380E597E09F938F930E94B7
:103B2000F6058EE497E09F938F930E94F6058091AF
:103B300047031F928F938BE497E09F938F930E948C
:103B4000F60588E497E09F938F930E94F6058DB762
:103B50009EB70C960FB6F8949EBF0FBE8DBF0E9405
:103B60008E249C0190914A0380914B03982B21F065
:103B7000309344032093430390914C0380914D0371
:103B8000982B21F0309342032093410388E493E083
:103B90000E94A822089586E0E8E4F3E0DF011D9288
:103BA0008A95E9F710924603109245031092470355
:103BB0000895FC01828181110EC0838181110BC0A7
:103BC0008481811108C091E08581811101C090E05C
:103BD000892F8170089581E0FCCFA6E0B0E0E3EF8B
:103BE000FDE10C942A2D86E0E8E4F3E0DE01119675
:103BF00001900D928A95E1F710924A0310924B03BF
:103C000010924C0310924D038B819C81892B89F07B
:103C100080914303909144030E941D24AC01909134
:103C200046039923C9F1809108018417150608F409
:103C300040C08D819E81892B91F0809141039091AC
:103C400042030E941D24AC0190914503992309F47D
:103C50006AC0809104018417150608F472C0BE0181
:103C60006F5F7F4F88E493E00E946B23811105C052
:103C700088E493E00E94D91D81110E94151D86E001
:103C8000FE013196A8E4B3E001900D928A95E1F728
:103C90002696E3E00C94462D209109018AE0289FA6
:103CA000900111242417350720F69F5F9093460357
:103CB00002C09F3FD1F71B81112359F00E94CB1BFB
:103CC0009FEF11160CF491E0899F802D11248093B1
:103CD0004A031C81112359F00E94CB1B9FEF111640
:103CE0000CF491E0899F802D112480934B038091E7
:103CF0004A03882309F49DCF10914B03112309F443
:103D000098CF0E94BD1B882351F080934A03812FD6
:103D10000E94BD1B882329F080934B038ACF81E04A
:103D2000F4CF81E0F9CF209105018AE0289F90012E
:103D300011242417350708F092CF9F5F9093450315
:103D400002C09F3FD1F71D81112359F00E94091C29
:103D50009FEF11160CF491E0899F802D1124809320
:103D60004C031E81112359F00E94091C9FEF11166C
:103D70000CF491E0899F802D112480934D03809154
:103D80004C03882309F46BCF10914D03112309F4E0
:103D900066CF0E94BD1B882351F080934C03812F76
:103DA0000E94BD1B882329F080934D0358CF81E0EA
:103DB000F4CF81E0F9CFDC01ED91FC911197849172
:103DC0003196ED93FC930895B0E0A0E0EAEEFEE1B9
:103DD0000C94242DE82FF0E0EE56F84FB490282FE5
:103DE00026952695269530E0F901EE5CF74F049173
:103DF000877010E0082E02C0159507950A94E2F727
:103E000001701127F901EE5DF74FE490F12C082EB7
:103E100002C0F594E7940A94E2F791E0E922FF24C6
:103E2000F901EE5EF74FC491D0E002C0D595C79579
:103E30008A95E2F7C170DD27C62ED12C0115110538
:103E400049F5E114F10431F086EE0E941E08C60126
:103E5000009771F5B6018B2D0E940B09C6010097E2
:103E600079F5E114F104A1F50115110531F081EEA8
:103E70000E94B108C6010097C9F5CD2B31F08CE244
:103E80000E942309C114D104C9F5CDB7DEB7E9E01A
:103E90000C94402D81EE0E941E08C601009789F205
:103EA000EFE9FFE03197F1F700C000000197F6CF8E
:103EB000EFE9FFE03197F1F700C000000197C8CFAC
:103EC000EFE9FFE03197F1F700C000000197C7CF9D
:103ED00086EE0E94B108C601009731F2EFE9FFE0DB
:103EE0003197F1F700C000000197F6CFEFE9FFE04E
:103EF0003197F1F700C000000197BDCF8FE99FE037
:103F00000197F1F700C0000091E0C91AD108BACFBB
:103F1000B0E0A0E0EEE8FFE10C94242D8C017B01E1
:103F2000D42F8AE0B82EC701F80109958823A9F09B
:103F3000813009F058C0C701F8010995C82F8130B8
:103F400089F4C701F80109950E9423098D2F90E09B
:103F5000009709F040C0C111E6CFCDB7DEB7E9E068
:103F60000C94402D823031F4C701F80109950E946C
:103F70001E08ECCF833031F4C701F80109950E9487
:103F8000B108E4CF843011F7C701F8010995C82FB3
:103F9000D12CC12C2C2F2053330BC9012A303105D1
:103FA00068F0C114D10491F28FE99FE00197F1F715
:103FB00000C0000091E0C91AD108F3CFBC9C900169
:103FC000BD9C300D11246C01C20ED31EC701F80137
:103FD0000995C82FDFCFEFE9FFE03197F1F700C077
:103FE00000000197B5CF6D2F0E94E41E9CCFA2E088
:103FF000B0E0EDEFFFE10C942B2D462F9A838983DF
:10400000BE016F5F7F4F8BED9EE10E94881F22965D
:10401000E2E00C94472D0F931F93CF93DF93C42FAF
:10402000D22FFC0185818823C9F0409350030E9460
:104030008E2490934F0380934E0380E28C0F883040
:1040400040F4C77081E001C0880FCA95EAF70E946A
:104050002C09DF91CF911F910F910895109150037A
:10406000141332C080914E0390914F030E941D247F
:10407000883C910548F5C0E2CD0F1D17B9F080E2EC
:10408000810F883040F4177081E001C0880F1A95C5
:10409000EAF70E943309C83048F481E09D2F9770F9
:1040A00001C0880F9A95EAF70E942C09802F0E9480
:1040B0002309C83070F6D77081E001C0880FDA9507
:1040C000EAF70E943309C5CF80E28C0F883008F6EA
:1040D000C77081E001C0880FCA95EAF7F2CF0F934D
:1040E000DB0188519C4787309105A0F5FC01E25027
:1040F000F24D0C940E2D06E221EE41EE6AE17CE7D2
:10410000CD010E940B2080E00F91089507E225EE7B
:1041100045EE6BE17CE7F4CF06E221EE40EE68E18C
:104120007CE7EECF07E225EE44EE69E17CE7E8CFDD
:1041300006E221EE42EE6CE17CE7E2CF07E225EEFB
:1041400046EE6DE17CE7DCCF08E221E045EE6EE172
:104150007CE7D6CF15968C91882319F010925003E6
:10416000D3CF81E0D1CF1F93CF93DF9387372CE755
:10417000920759F0C1E088379C47E1F4FB01C58103
:10418000CC2371F10E94F62006C0FB01C581CC232F
:10419000B1F00E94F3200E94EF0B0E94F920D82F6B
:1041A0000E94F620C82F0E94F3204D2F6C2F0E94F2
:1041B0000E0DC0E08C2FDF91CF911F9108950E94CA
:1041C000F3200E94FB0B0E94F920182F0E94F6207A
:1041D000D82F0E94F320412F6D2F0E940E0DEACFA1
:1041E0000E94F620EECF80910C01089580910B0182
:1041F000089580910A01089584E290E00E947C2D48
:10420000853289F485E290E00E947C2D833059F458
:1042100086E290E00E947C2D91E0833109F090E0ED
:10422000892F8170089580E0FCCFCF93C82F6FEF66
:10423000811165E284E290E00E949A2D6FEFC11136
:1042400063E085E290E00E949A2D6FEFC11163E177
:1042500086E290E00E949A2DCF910895089587E21A
:1042600090E00E947C2D682F70E090E080E008953F
:104270000895CF93C62F0E9438216C2F87E290E0DB
:104280000E949A2DCF91089580E00E94152160E050
:1042900070E0CB010E9439210E94BF190E94781A58
:1042A00081E00E94152108950E942E210E942F2155
:1042B0000E9438210E94FC20811102C00E944421EA
:1042C000089508959C01FB018581882351F0A9017F
:1042D00057574038510530F4822F0E94881A80E0E9
:1042E000089581E008952FEFFC01208308950E9436
:1042F0007321089580E00895EF92FF920F931F932A
:10430000CF93DF93EC01162F0E947A21811110C008
:10431000E881E150E331B8F4F0E0EB5FF14D0C944B
:104320000E2D19828CE08A83612FCE010E944225D6
:10433000CDB7DEB7E6E00C94432D89818230C1F021
:1043400028F4813061F08FEF8883EECF833099F0CD
:104350008430C9F71A821B821C821D82E5CF0E941D
:104360009A240E94142D6A837B838C839D83DCCFE7
:104370000E942F21F6CF0A81802F90E07E0123E05A
:10438000E20EF11C892B81F680E00E94B914F7013E
:1043900081937F0181E090E0053EA1F7C5CF89813F
:1043A000823031F0853079F68A810E946121BCCF5C
:1043B0006A817B818C819D810E94142D0E9439210C
:1043C000B3CF4B816A8189810E947419982789270C
:1043D00098279D838C83A8CF2C813D81322723276A
:1043E00032274B816A8189810E949E199DCF0E944C
:1043F000BF199ACF612FCE010E94772195CF0E94DD
:10440000291A898391CF0E942B1A982789279827E8
:104410009A83898389CF6B8170E089819A81AE010B
:104420004C5F5F4F9827892798270E942E1A7CCFD0
:104430006B8170E089819A81AE014C5F5F4F982754
:10444000892798270E94531A6FCF0E94781A6CCF41
:104450000E947219D6CF6B8170E089819A81AE017A
:104460004C5F5F4F9827892798270E94D7195CCF08
:104470006B8170E089819A81AE014C5F5F4F982714
:10448000892798270E94FA194FCF9093560380935B
:1044900055030895E0915503F0915603309729F0A4
:1044A0000190F081E02D0995089580E008950E9423
:1044B0004A220895EF92FF920F931F93CF93DF93B9
:1044C000EC01E0915503F09156033097E1F1028041
:1044D000F381E02D09958091360382FF34C080FF7F
:1044E0000DC088811F928F938AE498E09F938F93E9
:1044F0000E94F6050F900F900F900F907E0186E0BE
:10450000E80EF11C04E418E08091360380FF0BC034
:104510008A811F928F931F930F930E94F6050F902D
:104520000F900F900F902196CE15DF0569F78091BF
:10453000360380FF08C082E498E09F938F930E9427
:10454000F6050F900F90CDB7DEB7E6E00C94432D43
:10455000E0915503F0915603309739F022E0DC01E9
:104560002C930680F781E02D09950895A3E0B0E033
:10457000ECEBF2E20C942B2D209153033091540379
:1045800028173907A1F09093540380935303E091C7
:104590005503F0915603309751F023E029839B8314
:1045A0008A830084F185E02DCE010196099523963A
:1045B000E2E00C94472DA3E0B0E0E1EEF2E20C94CF
:1045C0002B2D209151033091520328173907A1F068
:1045D0009093520380935103E0915503F091560359
:1045E000309751F024E029839B838A830084F185EE
:1045F000E02DCE01019609952396E2E00C94472D1B
:1046000040910001509101019A012E5F3F4F485F98
:104610005F4F80E02417350709F40895F90191915F
:104620009F019923B9F38F5FF5CF882371F0209113
:10463000000130910101F9013296285F3F4F9191BD
:10464000981729F0E217F307D1F780E0089581E089
:1046500008959C01FC0132969FEF80E0419146173E
:1046600051F09F3F19F4411101C0982F8F5F8630A0
:10467000A9F79F3F09F40895290F311D97FD3A9539
:10468000F90162830895FC01329608962191261360
:1046900003C0DF0111971C92E817F907B9F70895D5
:1046A000682F80910001909101010E9429230895B3
:1046B000682F80910001909101010E944323089589
:1046C000E0910001F0910101329686E0DF011D9238
:1046D0008A95E9F70895DC01FB0111969C911197E9
:1046E0008181981322C012968C911297882319F019
:1046F000928189131AC013968C911397882319F00D
:104700009381891312C015968C911597882319F0FF
:10471000958189130AC014969C91992321F081E018
:104720002481291303C080E001C081E081700895D5
:1047300008950E949823089581110EC081E080930E
:10474000100160910D0170910E0180910F01909107
:1047500010010E949923089582E0F1CF83E08093B5
:10476000100160910D0170910E0180910F019091E7
:1047700010010E94992308950E949C23089581E0CE
:104780008093100160910D0170910E0180910F01D5
:10479000909110010E94992308950E94BF230895CB
:1047A00091E0811101C090E090930F0160910D01A3
:1047B00070910E0180910F01909110010E94992338
:1047C000089580910F01089580930E0160910D016D
:1047D00070910E0180910F01909110010E94992318
:1047E000089580910E01089580930D0160910D014F
:1047F00070910E0180910F01909110010E949923F8
:10480000089580910D010895089508950E9405244A
:104810000895089508950E94042408950E9409248B
:104820000E9463150E940A2480E00E94B91491E05E
:10483000811101C090E0892F0895CF93DF93EC019F
:104840000E948E248C1B9D0BDF91CF91089585B71C
:10485000806885BF85B7806885BF08951F921FB6A1
:104860001F9211248F939F93AF93BF93809157030F
:10487000811113C08091670390916803A09169032F
:10488000B0916A034196A11DB11D80936703909377
:104890006803A0936903B0936A03BF91AF919F919E
:1048A0008F911F901FBE1F90189580916F038430C9
:1048B00031F10E946C071092570388E190E020E4E8
:1048C0000FB6F894A895809360000FBE2093600007
:1048D00083B7817F846083BF83B7816083BF78940F
:1048E000889583B78E7F83BF0FB6F894A895809183
:1048F0006000886180936000109260000FBE089590
:104900000E94770B0E947307089582E084BD93E0B4
:1049100095BD9AEF97BD80936E0008952FB7F894D8
:104920008091670390916803A0916903B0916A0335
:104930002FBF08952FB7F8946091670370916803B3
:104940008091690390916A032FBF089578941F9214
:104950001FB61F9211248F939F93AF93BF938091A3
:10496000670390916803A0916903B0916A0301966F
:10497000A11DB11D8093670390936803A093690301
:10498000B0936A03BF91AF919F918F911F901FBE0B
:104990001F90189581E08093E00080E28093D8001A
:1049A0001092C9008FE19EE40197F1F700C000006A
:1049B00087E090EBDC018093780390937903A093D8
:1049C0007A03B0937B0388E19CE00FB6F894A89536
:1049D000809360000FBE90936000FFCF88E19CE061
:1049E0000FB6F894A895809360000FBE9093600076
:1049F000FFCF08959B01BA0190916F039430E9F4C1
:104A00008F708093E9009FEF8091E800915085FDC1
:104A100006C085ED8A95F1F700009111F5CF8091E0
:104A2000E80085FF0AC050E040E0C9010E94192853
:104A30008091E8008E778093E800089543E050E08D
:104A4000BC0184E00E94FA24089546E050E0BC01D5
:104A500084E00E94FA240895CF93DF93EC010E9432
:104A6000E12348E050E0BE0181E00E94FA2488E0A2
:104A7000FE01ABE5B3E001900D928A95E1F7DF917D
:104A8000CF910895603231F440E250E0BC0182E001
:104A90000E94FA240895A0E2B0E0E1E5F5E20C946A
:104AA0002B2D80916F03843009F583E08093E9001A
:104AB0008091E80082FF1AC08091E80090E085FFB5
:104AC00009C050E040E060E270E0CE0101960E9433
:104AD000682891E08091E8008B778093E800992323
:104AE00029F060E2CE0101960E947C21A096E2E0CE
:104AF0000C94472D089589E898E09F938F930E9426
:104B0000F60580916E030F900F90811109C00E94ED
:104B1000F8290E94552A8091E20084608093E20087
:104B2000089585E898E09F938F930E94F605109270
:104B30006E030F900F90089581E898E09F938F93F4
:104B40000E94F6050E94BF2381E00E94D0230F90AF
:104B50000F9008958DE798E09F938F930E94F6053C
:104B600060916B0381E0611101C080E00E94AE237F
:104B70000F900F90089589E798E09F938F930E947C
:104B8000F60590916F0381E0943009F080E0609128
:104B90006B030E94BC230F900F900895209159033E
:104BA0002F5F822F62E30E94EE2C992319F020934D
:104BB000590308951092590380915A038823F1F004
:104BC00080916F038430C1F49091E9009F7020912F
:104BD000EC00822F817020FD80E8892B95E0909376
:104BE000E9009091EB0090FF04C09091EE0097FDDA
:104BF00008C08F708093E90010925A0308951092B4
:104C0000F1009091E80095FDFACF9091E80090FFB7
:104C1000F0CF9091E8009E779093E800EACF42E0D1
:104C200061EC81E00E94742942E261EC84E00E9420
:104C3000742942E261EC82E00E94742942E260EC55
:104C400083E00E94742942E261EC85E00E947429AD
:104C500090916F0381E0943009F080E060916B03E4
:104C60000E949C23089580917103833009F463C0EE
:104C700030F48130E1F1823009F4A0C008958A3027
:104C800009F48CC08B3009F471C0893009F052C02E
:104C900080917003813209F04DC08091740390912E
:104CA0007503009719F0029709F044C08091E8005D
:104CB000877F8093E8008091E80082FF37C0909161
:104CC000F3008091F200029731F48091F10081307D
:104CD00011F0863021F48091F1000E94E42380914C
:104CE000E8008B778093E8000E94A82923C0809178
:104CF0007003813AF9F48091E800877F8093E8009F
:104D00008091740390917503892B61F468E08BE5C1
:104D100093E070E00E94B7288091E8008B77809341
:104D2000E800089560E090E080E0F3CF80916F03A9
:104D30008111C1CF089580917003813AD9F7809194
:104D4000740390917503892BA9F78091E800877F00
:104D50008093E8008091E80080FFFCCF0E94E1236F
:104D60008093F1008091E8008E77BCCF8091700332
:104D7000813201F78091740390917503892BD1F6EC
:104D80008091E800877F8093E8000E94A8298091A5
:104D900072030E94D0230E94770B089580917003C4
:104DA000813241F68091E800877F8093E8000E947D
:104DB000A829809173030E94F423089580917003C1
:104DC000813A09F0B7CF8091E800877F8093E800AF
:104DD0008091E80080FFFCCF0E940124C1CF9FB7E3
:104DE000F89410925A039FBF90916F03943009F08A
:104DF00048C02091E9002F703091EC00932F917002
:104E000030FD90E8922B25E02093E9002091EB0003
:104E100020FF34C02091EE0027FF30C020915803BE
:104E2000222321F02091E80025FF28C0109258038A
:104E300026E03091E80035FF14C08093F1008091A6
:104E4000E80085FD27C08091E80080FFFCCF8091BD
:104E5000E8008E778093E8009F709093E90080E0EF
:104E6000089530916F03343049F43091EB0035FDF3
:104E700005C0215041F481E0809358039F709093C6
:104E8000E9008FEF0895EFE9FFE03197F1F700C0F7
:104E90000000CFCF8FB7F89421E020935A038FBF43
:104EA000DBCF84B7877F84BF0FB6F894A895809135
:104EB0006000886180936000109260000FBE80E8FF
:104EC00090E00FB6F89480936100909361000FBE5C
:104ED0000E94CD2308950E94F8290E94552AE2EEEF
:104EE000F0E080818460808378940E94D32C0895C0
:104EF00081E191E00E944522089580916F03853001
:104F000091F48091360380FF08C083E698E09F9378
:104F10008F930E94F6050F900F9080916F0385305C
:104F200019F00E94802408950E9455240E940E24A6
:104F3000882399F380916D03882379F30E940328D5
:104F40000E94770BEACF08959A0140917603509121
:104F500077030E94AC270895492F55274330510508
:104F600021F168F44130510509F443C04230510544
:104F700009F444C090E080E050E040E026C04132B7
:104F8000510551F142325105A9F76430710590F78E
:104F9000FB01EE0FFF1FE954FD4F408151816D541D
:104FA0007D4FFB01808190E010C0992781309105F1
:104FB00081F0009729F00297E9F6EDE8F8E002C0E9
:104FC000EDEAF8E0849190E0AF01F901518340836C
:104FD0000895EBE9F8E0F6CF6430710558F6660FF6
:104FE000771FFB01E154FD4F4081518189E090E042
:104FF000ECCF82E190E045E259E0E7CF84E790E032
:1050000041EB58E0E2CF80E189BD82E189BD09B47E
:1050100000FEFDCF8091D8008F7D8093D8008091D5
:10502000E00082608093E0008091E00081FDFCCF91
:105030000895AF92BF92CF92DF92FF920F931F938A
:10504000CF93DF936C01EB018A010E94C729F82EF0
:10505000811123C00115110539F0F801808191817A
:10506000C81BD90BC80ED91EB12CA12C2097A9F0B2
:105070008091E80085FD22C08091E8008E778093C2
:10508000E80001151105A1F0F80180819181A80EB9
:10509000B91EB182A08285E0F82E8F2DDF91CF91CD
:1050A0001F910F91FF90DF90CF90BF90AF90089528
:1050B0000E94C7298823D1F2F82EEFCFF601819103
:1050C0006F018093F1002197FFEFAF1ABF0ACECF97
:1050D000AF92BF92CF92DF92FF920F931F93CF9325
:1050E000DF936C01EB018A010E94C729F82E811120
:1050F00023C00115110539F0F80180819181C81B89
:10510000D90BC80ED91EB12CA12C2097A9F08091E3
:10511000E80085FD22C08091E8008B778093E8004D
:1051200001151105A1F0F80180819181A80EB91E29
:10513000B182A08285E0F82E8F2DDF91CF911F9153
:105140000F91FF90DF90CF90BF90AF9008950E9495
:10515000C7298823D1F2F82EEFCF8091F100F60114
:1051600081936F012197FFEFAF1ABF0ACECFFC01E9
:10517000809176039091770386179707A0F06115C9
:10518000710529F49091E8009E779093E80090E0F3
:105190006115710551F4911108C08091E80082FFFA
:1051A00034C080E00895BC01F2CF80916F03882362
:1051B000C1F18530C1F18091E80083FD30C080915C
:1051C000E80082FDEACF8091E80080FFE1CF809186
:1051D000F3002091F200382F6115710519F0283085
:1051E000310558F091E02830310509F090E0209128
:1051F000E8002E772093E800CBCF81918093F100D7
:10520000615071092F5F3F4FE7CF80916F03882373
:1052100041F0853041F08091E80083FFBECF81E00E
:10522000089582E0089583E00895FC01809176035B
:105230009091770386179707A0F06115710529F4FF
:105240008091E8008E778093E80090E06115710509
:1052500051F4911108C08091E80082FF35C080E0D0
:105260000895BC01F2CF80916F038823C9F1853086
:10527000C9F18091E80083FD31C08091E80082FD92
:10528000EACF8091E80080FFE1CF8091F300209188
:10529000F200382F6115710519F02830310558F0EA
:1052A00091E02830310509F090E08091E8008E7798
:1052B0008093E800CBCF84918093F10031966150C8
:1052C00071092F5F3F4FE6CF80916F03882341F034
:1052D000853041F08091E80083FFBDCF81E00895E3
:1052E00082E0089583E00895982F973028F08F701A
:1052F0008093E90081E008959093E900242F762FB0
:1053000050E0981731F07091EC002091ED00509131
:10531000F00021FD02C09F5FE8CF3091EB003E7F9F
:105320003093EB003091ED003D7F3093ED003091F4
:10533000EB0031603093EB007093EC002093ED00B4
:105340005093F0002091EE0027FDE5CF80E0089516
:105350008091700387FF13C08091E80082FF06C030
:105360008091E8008B778093E80004C080916F0300
:105370008111F2CF089580916F038823D9F3809132
:10538000E80080FFF8CF8091E8008E77ECCF209185
:10539000E4003091E50095E6A9012091EC00822F10
:1053A000817020FF06C08091E80080FF06C080E089
:1053B00008952091E80022FD1AC080916F03882390
:1053C00089F0853089F08091EB0085FD0FC0209138
:1053D000E4003091E50042175307F9F29150E1F6ED
:1053E00084E0089582E0089583E0089581E00895BF
:1053F0000E94672A0E946F2AE0EEF0E080818160BF
:105400008083E8EDF0E080818F77808319BCA7ED81
:10541000B0E08C918E7F8C9380818F7E8083109200
:105420006E0308950F931F93CF93DF930E94672A13
:105430000E946F2AC8EDD0E088818F7788838881A9
:105440008068888388818F7D888319BC10926F0360
:1054500010926B0310926D0310926C0300EE10E03B
:10546000F80180818B7F808388818160888342E01E
:1054700060E080E00E947429E1EEF0E080818E7FA0
:105480008083E2EEF0E080818160808380818860AB
:105490008083F80180818E7F80838881806188830A
:1054A000DF91CF911F910F910895E8EDF0E0808199
:1054B0008F7E8083E7EDF0E080818160808384E0EF
:1054C00082BF81E080936E030E94122A0895E8ED66
:1054D000F0E080818E7F80831092E2000895109228
:1054E000DA001092E10008951F920F920FB60F920A
:1054F00011242F933F934F935F936F937F938F93D9
:105500009F93AF93BF93EF93FF938091E10082FF4E
:105510000BC08091E20082FF07C08091E1008B7F89
:105520008093E1000E94CE258091DA0080FF19C0AF
:105530008091D80080FF15C08091DA008E7F809323
:10554000DA008091D90080FF96C080E189BD82E1B8
:1055500089BD09B400FEFDCF81E080936F030E94F6
:105560007B258091E10080FF19C08091E20080FFDF
:1055700015C08091E2008E7F8093E2008091E2006E
:1055800080618093E2008091D80080628093D8008F
:1055900019BC85E080936F030E94AA258091E100E9
:1055A00084FF2BC08091E20084FF27C080E189BD89
:1055B00082E189BD89B5982F917080FFFBCF8091E2
:1055C000D8008F7D8093D8008091E1008F7E8093FA
:1055D000E1008091E2008F7E8093E2008091E20002
:1055E00081608093E20080916B03882309F449C0B5
:1055F00084E080936F030E94BB258091E10083FFCC
:1056000029C08091E20083FF25C08091E100877F5F
:105610008093E10082E080936F0310926B0380918E
:10562000E1008E7F8093E1008091E2008E7F809385
:10563000E2008091E20080618093E20042E060E05D
:1056400080E00E9474298091F00088608093F000CF
:105650000E949C25FF91EF91BF91AF919F918F91F7
:105660007F916F915F914F913F912F910F900FBE5E
:105670000F901F90189519BC10926F030E949125EE
:1056800070CF8091E30087FD93E090936F03B3CFD9
:105690001F920F920FB60F9211242F933F934F93A7
:1056A0005F936F937F938F939F93AF93BF93CF93AA
:1056B000DF93EF93FF93D091E900DF708091EC00CE
:1056C000C82FC17080FDC0E81092E9008091F00001
:1056D000877F8093F00078940E948C2B1092E900D1
:1056E0008091F00088608093F000CD2BCF70C09344
:1056F000E900FF91EF91DF91CF91BF91AF919F9121
:105700008F917F916F915F914F913F912F910F906A
:105710000FBE0F901F901895AAE2B0E0E2E9FBE2FD
:105720000C942A2D80E793E02091F100FC01219355
:10573000CF01F3E088379F07B9F70E9433268091A5
:10574000E80083FF1EC180917003909171039A302D
:1057500008F017C1E92FF0E0E85EF14D0C940E2D32
:10576000803899F0823809F00CC1809174038F70F1
:10577000873008F006C18093E9008091EB0085FB3B
:10578000882780F91092E90006C080916C039091FF
:105790006D03911182609091E800977F9093E800EB
:1057A0008093F1001092F1008091E8008E77E5C0BF
:1057B000882309F4D3C0823009F0E3C080917203DA
:1057C0008111D6C0809174038F702FEF280F26307F
:1057D00008F0D7C08093E9002091EB0020FFC8C0FB
:1057E000933031F48091EB0080628093EB00C0C075
:1057F0009091EB0090619093EB0021E030E001C0CC
:10580000220F8A95EAF72093EA001092EA0080912D
:10581000EB008860EACF8111B4C0109172031F774A
:105820008091E3008078812B8093E3008091E800F1
:10583000877F8093E8000E94A8298091E80080FF7C
:10584000FCCF8091E30080688093E30082E0111137
:1058500083E080936F0395C08058823008F091C038
:1058600080917203909173038C3D23E09207A1F520
:1058700083E08A838AE289834FB7F894DE01139626
:1058800020E03EE051E2E32FF0E050935700E49136
:1058900020FF03C0E295EF703F5FEF708E2F90E026
:1058A000EA30C0F0C7968D939D932F5F243159F74E
:1058B0004FBF8091E800877F8093E8006AE270E044
:1058C000CE0101960E94B7288091E8008B778093E3
:1058D000E80057C0C096E7CF6091740370917503DC
:1058E000AE014F5F5F4F0E94A427BC01892B09F4D2
:1058F00048C09091E800977F9093E80089819A8151
:105900000E941529E1CF8038E1F58091E800877F7A
:105910008093E80080916B038093F10045CF811163
:1059200030C090917203923060F58091E800877FDB
:105930008093E80090936B030E94A82980916B03E9
:10594000882311F084E005C08091E30087FDFACF41
:1059500081E080936F030E940F2613C08091720331
:10596000813079F481E0933009F080E080936D0319
:105970001092E9008091E800877F8093E8000E9400
:10598000A8298091E80083FF0AC08091E800877F02
:105990008093E8008091EB0080628093EB00AA96F0
:1059A000E3E00C94462DCF9380916F038823A1F000
:1059B000C091E900CF709091EC00892F817090FD2B
:1059C00080E8C82B1092E9008091E80083FD0E94D6
:1059D0008C2BCF70C093E900CF910895991B79E08B
:1059E00004C0991F961708F0961B881F7A95C9F76F
:1059F0008095089597FB072E16F4009407D077FD45
:105A000009D00E94522D07FC05D03EF49095819557
:105A10009F4F0895709561957F4F0895EE0FFF1F7A
:105A20000590F491E02D0994692796276927782736
:105A30008727782708952F923F924F925F926F9217
:105A40007F928F929F92AF92BF92CF92DF92EF920E
:105A5000FF920F931F93CF93DF93CDB7DEB7CA1B8F
:105A6000DB0B0FB6F894DEBF0FBECDBF09942A88BA
:105A7000398848885F846E847D848C849B84AA8462
:105A8000B984C884DF80EE80FD800C811B81AA81EF
:105A9000B981CE0FD11D0FB6F894DEBF0FBECDBFBA
:105AA000ED010895AA1BBB1B51E107C0AA1FBB1F34
:105AB000A617B70710F0A61BB70B881F991F5A959A
:105AC000A9F780959095BC01CD010895FB01DC01FB
:105AD00004C08D910190801921F441505040C8F7C5
